:020000040000FA
:06000000020A6B0201A8D8
:03002B0002076861
:0300330002055172
:030043000207436E
:030053000200E9BF
:03006B0002052962
:100083000201370101010503010F10FEFF88230060
:10009300000000BE2200000000FF000000FF00017E
:1000A3000A0020FD000206FFFF0101009610000078
:1000B30000FFFFF210E80364006400B801020200CD
:1000C30000100005020701051E02051E020A0A01AF
:1000D30003B80B02803E0102FEFFE8030A0500019C
:1000E300AD0D0A1401E0C0E074F21203C9A2AFE43B
:1000F30033FED2AF85A708AFA1EF550854106006B1
:1001030012170F75A1EFEF55085408600812171561
:1001130075A1F78013EFA2E092F0E508A2E082F068
:1001230050061217CF75A1FEEEF8EEA2E092AF7F54
:1001330001020428C0E074F21203C9A2AFE433FE43
:10014300D2AF9061A4E0F8759B00E5915854086024
:10015300087591F71217698026E5915854106008C5
:100163007591EF12176F8017E591A2E092F0E8A264
:10017300E082F0500A9061A4E0C2E0F01218BF9050
:1001830061A3E0F8E5E9585404600E12189575E987
:10019300FB906193E0A2E640F2EEF8EEA2E092AFAC
:1001A3007F01020428C0E074F21203C9A2AFE43352
:1001B300FED2AF9061A5E0F8E5BF58540460067520
:1001C300BFFB1218D7EEF8EEA2E092AF7F01020454
:1001D30028C3E498F8E499F91202158026C3E49A37
:1001E300FAE49BFBE920E7E9120215E498F8E499A5
:1001F300F922C3E498F8E499F9120215E498F8E4B3
:1002030099F9C3E49AFAE49BFB22EB20E7CFE920B8
:10021300E7E0B90010BB0008E88AF084F8AAF022EE
:10022300E4FBC8FA22EB70227B10C833C8C933C978
:10023300335007C39AC3DBF280069A50012ADBEAE4
:10024300C833F4C8C933F4C9FA2275F008E4C833D3
:10025300C8C933C933C99AC99B5004C92AC93BD5F4
:10026300F0ECFBC833F4C8E4C9FA22080808EAC072
:10027300E0EBC0E086F0E7A4FA180986F0E7A42AC9
:10028300FA180986F0E7A42AFA180986F0E7A42ADF
:10029300FA1986F0E7A4FBE5F02AFA190886F0E7D5
:1002A300A42BFBE5F03AFA190886F0E7A42BFBE54B
:1002B300F03AFA18180986F0E7A4C5F02BFBE43AE4
:1002C300FA1908E7C5F0C6A426F6E5F03BFBE43AC5
:1002D300FA1886F0E7A4F6E5F00826F6E43B08F6FC
:1002E300E43A08F6D0E0FBD0E0FA22E4CFC0E0E441
:1002F300CEC0E0E4CDC0E0E4CCC0E075F020E6265B
:10030300F608E633F608E633F608E633F618181867
:10031300EC33FCED33FDEE33FEEF33FFC3EC970913
:10032300ED9709EE9709EF97191919400FFFEC970D
:10033300FC09ED97FD09EE97FE191906D5F0BFEC00
:10034300F709EDF709EEF709EFF7191919D0E0FCF2
:10035300D0E0FDD0E0FED0E0FF222518C582C0E04A
:10036300E51934FFC583C0E0E518C3958224F8106E
:10037300AF088583198582188008858319858218BB
:10038300D2AFCEF0A3E520F0A37808E608F0A3DE11
:10039300FAEFF0A3E58124FAF8E608F0A3E608F003
:1003A300A3E608F0A30808E608F0A3E608F0A315FF
:1003B300811581D0E0FED0E0F8158115811581E823
:1003C300C0E0EEC0E022C0D02518C582C0E0E51928
:1003D30034FFC583C0E0E518C3958224F310AF084A
:1003E3008583198582188008858319858218D2AF81
:1003F300C8F0A3E9F0A3EAF0A3EBF0A37908E709B7
:10040300F0A3D8FAECF0A3EDF0A3EEF0A3EFF0A382
:10041300D0E0F0A3D0E0F0A3D0E0F0A3E520F0A378
:10042300E5F0F0A322851983851882E0C0E0A3E0FC
:10043300F9A3E0FAA3E0FBA37808E0F608A3DFFA48
:10044300E0FCA3E0FDA3E0FEA3E0FFA3E0C0E0A384
:10045300E0C0E0A3E0F5D0A3E0F520A3E0A3F5F02E
:1004630010AF0885831985821880088583198582D2
:1004730018D2AFD082D083D0E0F8D0E032120AD9BC
:10048300B900030204BFE49003017872790F80027C
:10049300F0A3D8FCD9FA7A727B119000867864793C
:1004A300018015E493A3AD82AE838A828B83F0A38C
:1004B300AA82AB838D828E83D8E9D9E775826E7564
:1004C30083CB740412082D75825175832074001236
:1004D300082DE4731575F0108E1A8F1B85821F8506
:1004E300831E851882851983E0CEA3E0CF851F8202
:1004F300851E83EBC9EAC8EDCBECCAC3E833C8E970
:1005030033C9EA33CAEB33CBC3EA9EF51DEB9FF540
:100513001CB35004AB1CAA1DEC33CCED33CDD5F08A
:10052300DAAE1AAF1B22C0E074F21203C9A2AFE421
:1005330033FED2AFE589A2E1500312161375890089
:10054300C2C5EEF8EEA2E092AF7F01020428C0E03C
:1005530074F21203C9A2AFE433FED2AFE58BA2E07B
:100563005003121613758B00C2E8EEF8EEA2E09268
:10057300AF7F01020428D083D082ECC0E0EDC0E05D
:10058300E493A3FCE493A3FDED4C600D120651EC40
:1005930024FFFCED34FFFD80EFE493A3FCE493A37D
:1005A300FDED4C600D1206EEEC24FFFCED34FFFD77
:1005B30080EFD0E0FDD0E0FCE493A3C0E0E493C07F
:1005C300E022851983851882E0A3FEE0A3F5207855
:1005D30008E0A3F608DFFAE0A3FFE0A3C0E0E0A38E
:1005E300C0E0E0A3C0E0E0A3C0E0E0A3C0E010AF40
:1005F300088582188583198008858218858319D216
:10060300AFD083D082020833D083D082E9C0E0E444
:1006130093A3C386F0C5F095F0F908E493A386F09D
:10062300C5F095F0700BE493A3C3994005E90480EA
:1006330002A3E475F002A42582F582E5F03583F583
:1006430083D0E0F9E493A3C0E0E493C0E022C0E0E8
:10065300C3E49396087401939618400FE49366706D
:100663000808740193661870007019A3A3C3E49378
:1006730096087401939618A3A3400DD0E0D0E0D060
:10068300E00205B5A3A3A3A3A3A3D0E0227404802F
:100693000474028000CCC0E0EDC0E0E518C39CCC3C
:1006A300AD1950011D10AF068C188D1980068C18DA
:1006B3008D19D2AF1207AFD0E0FDD0E0FC22740257
:1006C3008000CCC0E0EDC0E0E518C39CCCAD195070
:1006D300011D10AF068C188D1980068C188D19D248
:1006E300AF12078DD0E0FDD0E0FC22C0E0C0F0885F
:1006F300F0E4936670080874019366187000A8F01C
:10070300A3A3700BD0F0D0E0D0E0D0E00205B5A3F6
:10071300A3D0F0D0E022D083D082CCC0E0E493A376
:1007230060061207EF1470FAE493A360061209152A
:100733001470FAD0E0FCE493A3C0E0E493C0E02299
:10074300C0E074F21203C9A2AFE433FED2AFC2C059
:10075300E5D1A2E45003121667EEF8EEA2E092AFE1
:100763007F01020428C0E0C0D0E8C0E0E9C0E0A2F5
:10077300AFE433F8D2AFC2C7E8F9E8A2E092AFD052
:10078300E0F9D0E0F8D0D0D0E032CAC0E0E493A3DF
:10079300C582CCC582C583CDC583F0A3C582CCC534
:1007A30082C583CDC583DAE5D0E0CA22CAC0E0E0C2
:1007B300A3C582CCC582C583CDC583F0A3C582CC36
:1007C300C582C583CDC583DAE6D0E0CA22700908A5
:1007D3000808226016181818C6C333C608C633C6DD
:1007E30008C633C608C633C6D5E0EA22C0E0E493A0
:1007F300A3D39C5010E493A3C39C400AD0E0D0E061
:10080300D0E0020736A3A3A3D0E022C008C3E0963A
:10081300F50808A3E096420808A3E096420808A357
:10082300E09645087001D3D00822C09FF59FE4737A
:10083300D09F22D083D082C09FE493C0E074019301
:10084300C0E0740293F59F227404800A7403800647
:10085300740280027401C0E0F404120866D0E0124E
:100863000AA8222518F58210AF08F518400C1519AF
:100873008008F51840021519D2AF8519832200C0EC
:10088300D0251810AF08F518500C05198008F51875
:1008930050020519D2AFD0D022BB0102E722C08299
:1008A300C08389828A83BB0003E08002E493D08300
:1008B300D082226016080808C6C313C618C613C61A
:1008C30018C613C618C613C6D5E0EA222518F8E4DD
:1008D3003519F9222518FAE43519FB222518FCE409
:1008E3003519FD22C3E0C696F608A3E0C696F608BE
:1008F300A3E0C696F608A3E0C696F622251810AF25
:1009030008F518400C15198008F51840021519D27E
:10091300AF22C0E0E493A36C7009D0E0D0E0D0E054
:10092300020736A3A3D0E022C3E09608A3E096080B
:10093300A3E09608A3E096A2D265D03322E76670BF
:10094300100809E766700A0809E76670040809E7F2
:100953006622E066701008A3E066700A08A3E066EA
:10096300700408A3E06622C3E697F60809E697F643
:100973000809E697F60809E697F622C3E096F00819
:10098300A3E096F008A3E096F008A3E096F02270A7
:100993000422600D18C6C333C608C633C6D5E0F4B7
:1009A3001822E647F60809E647F60809E647F60877
:1009B30009E647F622E026F008A3E036F008A3E0B4
:1009C30036F008A3E036F022E026F608A3E036F678
:1009D30008A3E036F608A3E036F622E627F6080970
:1009E300E637F60809E637F60809E637F622E6574A
:1009F300F60809E657F60809E657F60809E657F632
:100A030022E056F608A3E056F608A3E056F608A33C
:100A1300E056F622E056F008A3E056F008A3E056AD
:100A2300F008A3E056F022E4C396F608E496F6082D
:100A3300E496F608E496F622C6F4C608C6F4C60899
:100A4300C6F4C608C6F4C622C3E7960809E79608A3
:100A530009E7960809E79622C3E09608A3E09608FB
:100A6300A3E09608A3E0962275D00075813F751820
:100A73000175190300020480E6F008A3E6F008A359
:100A8300E6F008A3E6F022600C08C6C313C618C636
:100A930013C6D5E0F422E0F608A3E0F608A3E0F6D7
:100AA30008A3E0F622CAC0E0E6F0A308DAFAD0E031
:100AB300FA22E8F0A3E9F0A3EAF0A3EBF022E0F8CE
:100AC300A3E0F9A3E0FAA3E0FB22E0FAA3E0FBA38F
:100AD300E0FCA3E0FD22E5C754F84401F5C7790122
:100AE300222518F582E43519F58322C2AF75D69F06
:100AF300020000221208367D26001208360627005F
:100B0300120836C227001208360A28001208364592
:100B130028001208369B2800120836032900120801
:100B230036872900120836A02900120836C5290085
:100B3300120836032A00120836522A001208367B9E
:100B43002A00120836CA2A00120836762B00120829
:100B5300363E2C00120836A32C00120836702D00E6
:100B6300120836B62D00120836D22D0012083604AC
:100B73002E00120836AC2F001208368330001208FC
:100B830036AF3000120836E5300012083606310061
:100B9300120836153100120836203100120836D4F7
:100BA3003100120836473200120836B932001208F3
:100BB30036C132001208363C330012083695330032
:100BC300120836D833001208366A3600120836B0D7
:100BD3003700120836403A00120836283B00120844
:100BE300365B3B001208361D3C00120836CC3C0035
:100BF300120836143D00120836763D001208369B63
:100C03003D00120836AC3D00120836243E0012089F
:100C130036AC3E00120836103F00120836F53F008E
:100C23001208361A40001208363B41001208364EAD
:100C33004100120836C141001208360F4200120863
:100C4300361842001208361844001208366245006E
:100C5300120836724500120836EB45001208363288
:100C630046001208360648001208366B4A0012087E
:100C7300367F4A00120836894A00120836934A0022
:100C83001208369D4A00120836A74A00120836C0D9
:100C93004A00120836CA4A00120836D44A0012081B
:100CA30036DE4A00120836064B00120836114B0096
:100CB3001208365B4B00120836654B00120836707B
:100CC3004B00120836944B00120836B84B0012083A
:100CD30036194C00120836644C00120836804C005A
:100CE300120836EA4C00120836364D001208367EDA
:100CF3004D00120836F94D00120836934E001208C3
:100D030036575000120836C55000120836F7510006
:100D13001208361D52001208368D53001208364150
:100D23005700120836415900120836195B001208A1
:100D330036B25B00120836C45D00120836865E00C8
:100D4300120836D25E00120836385F001208364A9F
:100D53005F001208369A6100120836C76200120853
:100D630036196300120836BE63001208367965002F
:100D7300120836AA6600120836C866001208361D25
:100D830067001208361B6800120836436800120811
:100D930036A66800120836A769001208361A6A00D8
:100DA300120836486B00120836B36B00120836A3DC
:100DB3006C00120836096F00120836376F001208EC
:100DC30036327000120836D07100120836207200D5
:100DD300120836D872001208368D7300120836F1E5
:100DE3007300120836AA74001208364A75001208F6
:100DF30036AE7500120836F87500120836357600DF
:100E03001208369D7700120836908001120836C802
:100E13008001120836A18301120836E78301120804
:100E230036048501120836698501120836BA86012F
:100E3300120836AB8901120836CA8A011208369F96
:100E430095011208364096011208363399011208AB
:100E530036339A01120836A99A01120836E69B0125
:100E6300120836369D011208361D9E011208368679
:100E7300A00112083694A20112083621A301120818
:100E830036F5A30112083681A4011208368BA4019A
:100E9300120836B4A40112083661A5011208364CB3
:100EA300A60112083624A70112083688A7011208E2
:100EB30036B1A701120836DEA7011208362FAA01A0
:100EC3001208360AAB011208364EAB01120836BFC0
:100ED300AB0112083678AC01120836AAAC0112082D
:100EE30036F1AC0112083624AD0112083689AD0182
:100EF300120836D8AD01120836DDAD0112083631BD
:100F0300AE011208367BAE0112083677AF01120824
:100F130036DCAF0112083643B00112083668B3015C
:100F23001208363CB401120836A6B5011208368001
:100F3300B80112083628B9011208364FBB0112084E
:100F430036F4BB0112083632BC011208360BBE015F
:100F53001208361EBE0112083627BE0112083630AB
:100F6300BE0112083645BE0112083664BE011208DE
:100F73003643C00112083696C001120836A0C001DC
:100F8300120836AAC00112083605C1011208364FED
:100F9300C1011208365BC201120836B2C20112083F
:100FA3003601C4011208364AC4011208362AC501A3
:100FB30012083655C6011208360BC7011208360D42
:100FC300C8011208360FC901120836F5C901120803
:100FD300360CCA0112083649CA0112083653CA012F
:100FE3001208365ECA011208367CCA01120836BEE0
:100FF300CA011208361CCB0112083641CB01120874
:10100300365BCB01120836E8CB0112083621CC013E
:101013001208366FCD01120836C1CD01120836DB36
:10102300CE0112083602CF011208369ECF011208F4
:10103300361AD00112083666D10112083681D20160
:1010430012083647D301120836F1D3011208367657
:10105300D401120836DED40112083693D5011208E2
:1010630036E5D5011208364BD60112083614D701DE
:1010730012083637D701120836EFD7011208361394
:10108300D80112083635D80112083696D80112084D
:1010930036E1DA01120836BCDB0112083666DC01E0
:1010A300120836A7DE01120836F5DE0112083638BB
:1010B300DF0112083690DF01120836EEDF01120855
:1010C3003618E0011208363CE0011208366DE001E3
:1010D30012083697E001120836DEE00112083632B4
:1010E300E1011208368EE1011208368FE20112087F
:1010F30036F9E30112083637E40112083660E401D9
:10110300120836F1E4011208363BE5011208365F96
:10111300E501120836B2E501120836CDE5011208E1
:101123003688E601120836B2E60112083608E701EE
:1011330012083614EA0112083647EA011208360487
:10114300EB01120836DFEB011208366FEC011208CF
:1011530036B0EC01120836A1DC04120836E0DC04D8
:101163001208364D8002120836F68002120836D570
:101173008102120836F08202120836108302120826
:1011830036328402120836CF85021208363C8602B4
:101193001208361287021208361888021208367DA2
:1011A3008802120836B98802120836128902120818
:1011B300364B8902120836948902120836268A02AF
:1011C300120836C38A02120836988B021208366553
:1011D3008C02120836F28C02120836188D0212089D
:1011E30036458D02120836768D021208364B8E0272
:1011F3001208365B8E02120836AE8E02120836BB18
:101203008E02120836C88E02120836D18E021208D8
:1012130036358F02120836938F02120836DE8F029C
:10122300120836F98F021208362090021208363D52
:101233009002120836499002120836ED9102120804
:1012430036069202120836829202120836959202EC
:10125300120836A592021208364B9302120836BBC7
:101263009402120836CE95021208366E96021208C0
:1012730036789602120836E69602120836F7960278
:10128300120836369702120836649702120836316E
:101293009802120836889802120836CD980212086E
:1012A300362399021208364199021208368F9902A1
:1012B3001208365D9A02120836AB9A02120836ED0E
:1012C3009A02120836709B021208369A9B02120881
:1012D30036D09B02120836DF9B021208363D9C0271
:1012E300120836B59C02120836F69C0212083645DF
:1012F3009D02120836709D021208368A9D0212085A
:1013030036A49D02120836799E02120836839E0285
:10131300120836BE9E02120836CE9E021208361FEF
:101323009F02120836339F0212083651A002120898
:101333003666A00212083600A1021208367FA10207
:1013430012083622A2021208362DA2021208367A99
:10135300A30212083696A302120836EEA30212085D
:10136300365CA402120836A8A402120836C2A402EC
:1013730012083622A502120836C0A5021208360B3F
:10138300A6021208366EA80212083606A90212082F
:10139300367DA902120836C3AB02120836DBAB0254
:1013A300120836DEAB02120836EAAB02120836FE2A
:1013B300AB0212083606AC021208363DAC02120824
:1013C3003631AD02120836BBAD021208363DAE020D
:1013D300120836B2AE021208368AAF02120836ACD1
:1013E300AF0212083643B0021208364FB002120899
:1013F30036ACB002120836AFB0021208361EB10284
:101403001208366AB2021208367DB3021208360891
:10141300B4021208361BB502120836E5B5021208EB
:101423003616B6021208363CB60212083645B60224
:1014330012083674B60212083624B702120836D4DC
:10144300B70212083647B802120836F9B802120872
:10145300366CB902120836ABB902120836F4B90277
:1014630012083671ED011208360FEE011208365ECE
:10147300EE01120836D3EE011208366FEF0112089F
:101483003650F201120836CBF401120836E1F801A6
:1014930012083615F90112083643F901120836C746
:1014A300F9011208360FFA0112083638FA01120848
:1014B300367EFA01120836A9FA01120836F4FA0147
:1014C3001208363FDC03120836C7DC031208363134
:1014D300DD03120836A5DD031208366DE00312089A
:1014E3003689E003120836E2E00312083696DB027F
:1014F3001208363BE203120836EAE30312083645C4
:10150300E503120836ADE50312083620E603120898
:1015130036F2E6031208364CE70312083696E70361
:1015230012083695E903120836B3EA03120836D9CE
:10153300EB03120836E6EC0312083654ED031208E7
:1015430036AEED03120836E8ED0312083613260013
:101553001208364DEF03120836EDD8041208366C24
:10156300D904120836BDBC0412083616BD0412088D
:101573003670BD04120836B3BD04120836B6BD0476
:10158300120836B9BD04120836BCBD04120836BFB2
:10159300BD0412083623BE041208368ABE0412089C
:1015A3003698BE0412083604BF0412083601C0047C
:1015B3001208365ADD041208366BDD041208361A97
:1015C300FE0212083628FE02120836B0DD041208A5
:1015D30036C7DA04120836D7DA04120836F4DA0406
:1015E30012083688DB0412083690C3041208362B1F
:1015F300C40412083621C6041208366DD604120834
:1016030036A0D60412083611D70412083625D7049B
:1016130012083672D704120836F8FB031208361183
:10162300FC03120836A3FC03120836A1FD031208BB
:101633003692FF03120836C57F0012083600800475
:1016430012083648800412083644830412083616FA
:1016530084041208360185041208368286041208AF
:1016630036C88804120836528904120836A289043F
:10167300120836B08904120836C48904120836DC0D
:101683008904120836F48904120836107800120807
:10169300364A7800120836D97900120836387A00AB
:1016A300120836647A001208367D7A001208369BD7
:1016B3007A00120836777B00120836A37C001208E2
:1016C300366B7D00120836787E00120836AA7E003B
:1016D300120836D57E00120836007F001208362B1A
:1016E3007F001208364DD30412083676D30412084D
:1016F300368AD304120836D4D30412083613D4041A
:1017030012083652D404120836B5D404120836B877
:10171300D404120836C6D404120836D7D4041208E7
:10172300362CC00412083666C004120836C3C0043F
:10173300120836F1C0041208363EC1041208367C82
:10174300C104120836B7C104120836E1C1041208F5
:101753003607C2041208366AC20412083698C20455
:101763001208362BC30412083643C3041208365832
:10177300C304120836EADC0412083607DD04120833
:10178300362BDD041208364BA604120836DFA704F5
:10179300120836EDA70412083609A8041208362EDB
:1017A300A8041208368BA804120836E7A804120806
:1017B300367CA90412083601AA0412083692AA0438
:1017C30012083684AB0412083698AB04120836AB01
:1017D300AB04120836CDAB0412083696DB041208AC
:1017E30036C7DB04120836F8DB0412083625DC049E
:1017F3001208369FB5041208360EB60412083633A3
:10180300B604120836D6B60412083634B9041208E0
:101813003657B90412083669B90412083677B90481
:10182300120836A0B904120836B8B904120836D023
:10183300B904120836E8B90412083694BA04120837
:101843003611BB0412083645BB041208369ABB0492
:10185300120836EFBB041208361DBC041208362BDF
:10186300BC0412083642BC04120836ACBC0412088D
:1018730036567F00120836D1EF031208361AF003EA
:1018830012083646F0031208365FF0031208367F5B
:10189300F003120836E9F00312083623F1031208A5
:1018A300366AF60312083633F80312083679F8035A
:1018B300120836E6F80312083694FA03120836C4FF
:1018C300FA03120836DEFA03120836F2FA03120894
:1018D3003646FB03120836A9FB03120836BEFB0388
:1018E300120836E8D404120836FFD4041208362846
:1018F300D5041208364ED5041208367BD5041208D7
:1019030036ABD504120836CCD50412083603D604F8
:101913001208362BD60412083656DC041208365940
:10192300B10412083670B104120836DAB204120890
:10193300360FB30412083637B30412083664B304FF
:101943001208367DB304120836BEB3041208363CBF
:10195300B40412083688B404120836DCB40412083E
:101963003613B50412083645B504120836BDCD0446
:10197300120836FCCD0412083655CF041208365827
:10198300CF04120836E2D9041208360BDA0412081F
:10199300362BDA041208364BDA04120836A3DA04BB
:1019A300120836B9DA04120836028A0412083648D5
:1019B3008A04120836C48A04120836E58A04120817
:1019C30036098C04120836178C04120836738C04FB
:1019D300120836A68C04120836B98C041208364451
:1019E3008D04120836DD8D041208362B8E0412087E
:1019F30036A88E04120836148F041208364D8F044D
:101A0300120836D58F041208365B9004120836B2DA
:101A130090041208360F910412083621910412081B
:101A23003633910412083659910412083662910430
:101A3300120836A59204120836B1D104120836C032
:101A4300D2041208363CC60412083681C6041208B2
:101A530036CEC6041208366BC8041208360CE302ED
:101A6300120836C2E40212083611E5021208368063
:101A7300E702120836E5E702120836E5EA02120821
:101A83003647EB021208367BED0212083667EE0288
:101A9300120836CAEE0212083662EF021208360541
:101AA300F00212083650F00212083698F0021208BB
:101AB30036E7F002120836B5F2021208366DF40268
:101AC3001208363BF7021208367DF702120836D9A0
:101AD300F702120836E8F70212083650F802120825
:101AE3003600F902120836DEFC02120836A5FD02A2
:101AF30012083685DD04120836A0DD041208360606
:101B0300AC0412083626AC0412083616AD041208CB
:101B1300365FAD041208367FAD04120836BDAD043E
:101B230012083618AE0412083656AE04120836A050
:101B3300AE0412083648B104120836B0D7041208AE
:101B43003637D80412083688D804120836CBD8049E
:101B5300120836A59904120836AB99041208360800
:101B63009A04120836959A04120836D89A04120871
:101B730036099B041208361A9B041208362F9B045D
:101B8300120836409B041208364E9B041208365F37
:101B93009B04120836829B04120836FC9D0412082B
:101BA30036149F04120836D39F04120836F3A60393
:101BB3001208365DA7031208366EA703120836D340
:101BC300A803120836C6A903120836E0A9031208AF
:101BD3003646AA03120836C3AA03120836DBAA0341
:101BE30012083631AB0312083652AB0312083640E3
:101BF300AE0312083698AF03120836FEAF0312087D
:101C03003669B203120836A5B203120836FAB203D4
:101C13001208363FB30312083676B303120836B3FD
:101C2300B303120836CBB303120836B7B403120852
:101C33003615B50312083671B503120836EAB60332
:101C430012083631B70312083693BA03120836DA8C
:101C5300BA0312083642BC0312083681BC031208C9
:101C63003612BD0312083622BD0312083676BD03B1
:101C730012083607BE0312083641BF031208368323
:101C8300BF0312083691BF03120836A6BF0312081A
:101C930036C6BF0312083655C00312083692C00376
:101CA300120836C9C00312083611C10312083634AC
:101CB300C1031208363EC10312083692C10312084B
:101CC30036D2C103120836F9C1031208365BC203C8
:101CD300120836D5C20312083613C503120836BCE0
:101CE300CF04120836CDCF04120836B0D004120840
:101CF30036FD7F0012083600800312083623800366
:101D0300120836378003120836C981031208364693
:101D13008203120836CF8203120836A883031208FF
:101D2300363A8403120836EA84031208369A850386
:101D33001208369986031208365E8703120836C3E3
:101D43008703120836568E0312083632910312089F
:101D5300366E91031208367191031208360094030C
:101D6300120836BF9803120836209A031208362148
:101D73009C031208368FA003120836A4A00312088E
:101D83003623A3031208362DA403120836B3A50382
:101D93001208367AA6031208364AC7031208361CFD
:101DA300C803120836A1C80312083660C903120813
:101DB3003602CA0312083698CA03120836D0CE0375
:101DC300120836F7D003120836E2D103120836722E
:101DD300D5031208366AD603120836FBD603120857
:101DE300367BD80312083629D9031208368DDA0355
:101DF3001208360D9304120836769304120836C47B
:101E030093041208365C9404120836A3940412084F
:101E130036119504120836CA9504120836FA950449
:101E23001208360896041208361696041208361B52
:101E33009604120836A59604120836C197041208B0
:101E430036FA9804120836DCC80412083654C9045A
:101E530012083688C9041208366BCA04120836D928
:101E6300CA041208366BFB011208368DFB011208F7
:101E730036EAFB011208360BFC0112083637FC0167
:101E830012083656FC0112083673FC01120836920A
:101E9300FC011208369EFD01120836EAFD01120804
:101EA30036FAFD0112083627FF0112083637FF0103
:101EB30012083645FF0112083653FF011208366631
:101EC300FF0112083623A004120836A5A504120840
:101ED30036C5A504120836CAA504120836EECB048B
:101EE30012083606CC04120836BACD041208362E70
:101EF300DD0412083665DB0212083649DB021208DC
:101F030036E1DA021208369ADA02120836E4D90206
:101F130012083634D60212083604D602120836D115
:101F2300D502120836BDD502120836CBD4021208E8
:101F33003649D402120836EAD3021208365BD202BB
:101F4300120836E9D102120836E6D102120836E346
:101F5300D002120836BDD002120836F9CF02120899
:101F63003643CE02120836E3CD02120836B4CD0250
:101F7300120836B1CD021208369CCD02120836B9CA
:101F83002500120836DBE202120836BDE20212080F
:101F930036FAE10212083667E10212083612E0024D
:101FA3001208365CCD021208364CCD0212083656A2
:101FB300CC0212083685DD0212083615CC0212084F
:101FC30036DBCB0212083680CB021208364FCB0227
:101FD300120836D6DC0212083618C80212083686F2
:101FE300EE031208362AC702120836E4C5021208A5
:101FF3003692C50212083686C502120836EDC402AF
:10200300120836BBC30212083616C102120836B9CB
:10201300BE021208366DBE0212083652BD02120805
:1020230036E7BC0212083611BC02120836CDBB02D9
:1020330012083694BA02120836D5DB021208365B50
:10204300BA0212083629BA02120836D1E103000097
:102053000080FB8F000100681187000100671124D5
:10206300000200A41125000200A61126000200A808
:102073001127000200AA1128000100AC1129000158
:1020830000AD1184000400AE1186000100B2112AD4
:10209300000100B3112B000100B4112C000100B7A3
:1020A300112D0008004F112E000100B8112F00015F
:1020B30000B91130000100BA1131000100BB113227
:1020C300000100571133000100581134000100BC16
:1020D3001136000100591138000100BD113900010A
:1020E30000B61183000200CF116300010064116484
:1020F300000100461165000100B5116D0001006586
:102103001171000800471166000100CE1143000160
:1021130000BF1144000200C01145000100C2114676
:10212300000200C311470008005C1148000100C50C
:10213300114B000100C61104000100D111A10001DF
:1021430000D41137000100D31188000100D2113CE3
:102153000001005A113D000100BE1149000200C7F1
:10216300116700010066114D000200C9114E000104
:1021730000CB114F000200CC113E0001005B1100A7
:1021830000000000000001363601010001020100D9
:102193000103010001040106060502000007010016
:1021A300340801000F090401010D0100FF0E0800AE
:1021B3000017020000190100FF1A0100011B0100B2
:1021C300FE1C0100081D0200001F01000120010088
:1021D30001210200002301000F2402000026010058
:1021E3000127010008280200FF2A0100072B010232
:1021F300402C0100002D0100012E0100012F0100E0
:10220300FF30010B1C310800003A0100083B0100BC
:102213000F3C0100013D0100FF3E040000420400A9
:1022230000460400004A0400004E0400005204006B
:1022330000560400005A0400005E20FFFF36000130
:1022430000060000000F0000000000000000000076
:1022530000000003FFFF00000403FFFF0000FFFF77
:102263000FF4010005C4040320000100000B00006B
:1022730000000000000003010F0000000000000048
:10228300000000000000000000000000000000004B
:10229300000000000000000000000000000000003B
:1022A300000000000000000000000000000000002B
:1022B30000000000000000000000000103710301A2
:1022C30003010301030103010322030203010310BA
:1022D30003000300030003000300030003000342A1
:1022E300030003240306030003000304031203256E
:1022F3000323032503230304030403000300030050
:102303000344030003000323030003650321003593
:1023130003810300030503000300030003000325F7
:102323000323030304710402046004110470040210
:10233300040204010402041004610400041404638D
:1023430004730472046204430400041304060400C7
:1023530004000404041204000400040004000451F3
:1023630004640000040004000444040004000400A6
:1023730004000465040004350481046400050400BA
:102383000483040004030071003001600011007035
:10239300003102200350048000100061000000148B
:1023A3000063007300720062004300000013000624
:1023B3000000000000040012000000000000000004
:1023C3000004000400370037003C02440000000012
:1023D30000000000006500000035008100000005DA
:1023E30000000083000000010171010101010111DE
:1023F3000101013101010101018001100161013B72
:1024030000140063017301720162014301000113AF
:102413000106013D01350004011201000100010024
:1024230001000104010401330133013C0144013281
:102433000136000001000165010001350081010042
:102443000105018201830100010302710230016071
:1024530002110270020102020202028002100261F2
:10246300023A0041006302730272026202430200F5
:1024730002130238000002000204021202000200EA
:10248300020002000204020402370037003C024447
:1024930002000239000002000265020002350281D7
:1024A300020002050282028302000201450E067B3E
:1024B3000E08750E0B930E10BB0D024B0E05690E25
:1024C30007510E0C2D0E0D390E64F30BFF000000A7
:1024D30000B71D1300571D0100B71D0200211D0386
:1024E30000271D04002D1D0500331D06003F1DFFA1
:1024F300FF000007ECFDFDFDECDCDCCCBCACAC9CD0
:102503009C8C7C7C6C6C5C5C5C4C4C3C3C2C2C1C38
:102513001C03EAF5E5D5D5C5B5A5959585857575EE
:102523006565555545453535252515150500160FA2
:1025330000000B150B020002220F3300000E0C0EDD
:10254300020B040B0A0708000F00011916181616D0
:102553001823030000034A49434E181A2505023085
:102563003017181921301B1D1F3000393D3F373CF0
:102573003C362C442D303016181920231A1C1E30DB
:1025830002040201010101090200BE040A7F003CAA
:10259300000E0000000000E8033C0008100C0A03D2
:1025A30028090900040003FF1E1E01050C0504048D
:1025B30008100008030CC082C0837900EA1227BE0A
:1025C3003BF583C082C083900338127540D083D01B
:1025D30082C3E09CA3E09D500CEA240B12260B124D
:1025E30025EB600109024626EA75F00BA4FAA8F070
:1025F30075F00BEBA428FB90033AE02AF8A3E03B29
:102603008882F583E0540F22F582E43B1257392286
:1026130074F712035D8908124DD2A3E0F9E875F04F
:102623000BA4F8ACF075F00BE9A42C12296FE8FEAB
:10263300E9FF7401650860067402650870228A82E6
:102643008B83122C9B740265087021EA2403FA50D1
:10265300010B120B27E970148E828F83E4F0800C38
:10266300EA2403FCE43B122C92120B218E828F830B
:10267300E0D2E7F0121C8B024A7A74F412035D1263
:102683002D5579008E828F83E06075890A890B80CE
:1026930064E50A75F00BA4FAA8F075F00BE50B12CC
:1026A30025F77049E50A75F00BA4F8AAF075F00B4D
:1026B300E50B1228F38E828F83E0850882850983D8
:1026C3001245DA122C12EE2403FCE43F1227B11256
:1026D3000B21124C0D12616A123EA3D2E7F0121CB9
:1026E3008B7901900338E0F50AA3E0F50B050AE5C1
:1026F3000A7002050B122B6EE50A9AE50B9B4091BB
:102703000250C074F512035DEAFEEBFF750A017413
:102713000B120AE4123662EC4D6015EC1227BE3D33
:10272300122D63790112154DE50845096075802363
:10273300E508450960441227BC3509122D631227A9
:10274300B2120B27E96401701BEEFAEFFB120AF7D2
:10275300E9F50A850882850983122C0A7902AA08F9
:10276300AB098011122C93120B27E96401703479A1
:1027730003EEFAEFFB12154D80298E828F83A3E0BF
:1027830064FE7003A3E0F4700B122C93120B27E981
:102793006401700CEEFAEFFB120AF7E9F50A800305
:1027A300750A000231CDE50A2403FCE4350BFDE58F
:1027B300082403FAE43509FB22E50812656F227445
:1027C300F712035D900338124D2AEA4B602FEA7526
:1027D300F00BA4FAA8F075F00BEBA428FBEAFEEBD0
:1027E300FF121A5190033A124D2A90033A125724BA
:1027F3006012EEFCEFFD79001219B5800790033AE1
:10280300E4F0A3F0024A7A74F612035DE4F508F5E6
:1028130009780812085390033812365D75F00BA43B
:10282300FCA8F075F00BEDA428FD7A237B00121AA7
:10283300D57402120881E9FE6003120B0FEEF90250
:1028430030E074F612035D74FF1208FF7E007F0010
:10285300803C851882851983E41233CC12085375A2
:1028630008017509007808120853EEFCEFFDEC75BA
:10287300F00BA4FCA8F075F00BEDA428FD7A237BE4
:1028830000121AE174041208810EEE70010F12296E
:102893007B40BF74010230DD74F612035D7E007F5E
:1028A300008039EEF8EFF91228E77808120853751B
:1028B300080B7509007808120853EEFCEFFDEC7560
:1028C300F00BA4FC75F00BEDA42AFD7A237B001218
:1028D3001AE774041208810EEE70010F12297B406F
:1028E300C20230E0E875F00BA4F8AAF075F00BE92A
:1028F300A42AF990033AE028F508A3E039F5092260
:1029030074F612035D7E007F00804AEEF8EF122911
:102913006088828983E0A2E75036C2E7F0858208A7
:10292300858309780812085375080B750900780820
:10293300120853EEFCEFFDEC75F00BA4FC75F00BE5
:10294300EDA42AFD7A237B00121AE1740412088194
:102953000EEE70010F12297B40B10230E0F9E875E9
:10296300F00BA4F8AAF075F00BE9A42AF990033A46
:10297300E028F8A3E039F922900338124A61C3EE44
:1029830098EF9922C082C083EC4D6005121B4D80E5
:10299300097C087D0079001219B502462674F612E7
:1029A300035D7900EA4B60177800EA28F582E412A8
:1029B3005E8160047901780808E8C3940840EB025B
:1029C30030E074F712035D74F31208FFECFEEDFFC1
:1029D300851882851983E4F004120AE4EAF0A3EB74
:1029E300124A53120B457403120AE4AC82AD83EE10
:1029F300FAEFFB120B21EEFAEFFB120B27024A75DB
:102A030074F712035D74F31208FFECFEEDFF8518F3
:102A130082851983E4F0EAFCEBFD7403120AE4AA4D
:102A230082AB83120B21AA18AB19120B4B74011240
:102A33000AE41245E78E828F83124A4474FE68705B
:102A43000374FF696004790180027900024A757496
:102A5300F712035DEAFEEBFF121F7FE9F50874012D
:102A630065087011122ABBF4FA88828983E05A44FC
:102A730080F0121C8B023E1874F712035DEAFEEB22
:102A8300FF7508008E828F83E0602A121F7FE9F5AD
:102A93000874016508701E122ABBFA88828983E0D4
:102AA3005A70128E828F83E04480FA88828983E091
:102AB3004AF0121C8B023E18124C11123FF01229DD
:102AC300608E828F83E02274F412035D8A088B097F
:102AD3007C007D00EA1227B4120B21E508122C2C8E
:102AE3007900850882850983A3E064FE7003A3E06F
:102AF300F460757E007F008066EEFAEFFB1225EB33
:102B03006058EEFAEFFBEA75F00BA4FAA8F075F043
:102B13000BEBA428FB90033AE02AF50AA3E03BF56C
:102B23000B850882850983A3125E5C850A82850B67
:102B330083A3E06A7003A3E06B701FE50A2403FA22
:102B4300E4350BFB120B27E9640170061227A91267
:102B53000B21122C2179011273740EEE70010F12E6
:102B63002B6EEE9AEF9B40910250C09003381257A0
:102B73003BC32274F312035D8A088B098A828B8319
:102B8300122C0AEA122C2C750C00EA1227B4120B31
:102B930027E96401706A7E007F00805FEEF8EFF939
:102BA300E875F00BA4F8AAF075F00BE9A42AF990E4
:102BB300033A1273E6E0540F603CEEF8EFF9E87560
:102BC300F00BA4F8AAF075F00BE9A42AF990033AE4
:102BD300E028F50AA3E039F50B1227A9121B47E9F0
:102BE30064017012850A82850B83122C12122C2128
:102BF300750C011273740EEE70010F12297B409C49
:102C0300A90C7F050205C5A374FEF0A304F022A35B
:102C1300124A61850882850983A312441222E508BA
:102C2300122C36EEF0A3EFF022122C3674FEF0A332
:102C330004F0221265733509F5832274F512035DDE
:102C4300EAFEEBFF8E828F83122C0A7C007D00123A
:102C53002C93120B21EEFAEFFB121F7FE9F50A7496
:102C630001650A7027124A5A1228E7850882F583FC
:102C7300122C9B1227B2120B27E96401700EE50890
:102C83002403FCE43509122C92120B210231CDFDF1
:102C9300EE2403FAE43FFB22A3125E6612441222DF
:102CA30074F212035D74E61208FF122D55750C01C0
:102CB300750800750900750A00750B008518828573
:102CC3001983E4F0EE2403FCE43FFD7403120AE4E9
:102CD300AA82AB83120B21AA18AB19120B4BE9641E
:102CE30001701F740B120AE4122D657401120AE4B9
:102CF300125E607003A3E069604AA818A9198808E6
:102D03008909740D120AE41245D9A31245E7740E1A
:102D1300120AE4124A44740D1208D7120B45E964EF
:102D2300017009740D1208CF880A890B780A1208FA
:102D330053AC08AD09EEFAEFFB120AFD7402120858
:102D430081E9F50CEEFAEFFB120B3FA90C741A02A2
:102D53005DBCEAFEEBFF124C1174FEF0A304F022FB
:102D6300F583123FF0F9124C1112441222C082C0B3
:102D73008378007900800508E8700109122B6EE85A
:102D83009AE99B5029E8FAE9FBEA75F00BA4FAAC3F
:102D9300F075F00BEBA42CFB90033AE02AFCA3E0C4
:102DA3003B8C82F583E0540F70CD7900800279016A
:102DB300024626C082C0839004D7E49375F016A41C
:102DC300FCADF079FF7A657B0A1219B502462674C9
:102DD300F612035DEAF87508007D008012ED125EBD
:102DE30073C3994009E0FAE8C39A400205080D90BD
:102DF30004D7E493FAEDC39A40E3AA087B000230B8
:102E0300E074F012035D74F31208FF8A0C8B0D8CCF
:102E1300088D09890AEC45096016AA08AB09120B4B
:102E2300938A0E8B0FAE0EAF0FEE4F6003022EF799
:102E33007B0080010B126160500F122F9F70F5749D
:102E43006528FE740A39FF80047E007F00EE4F7010
:102E530003022F4B902598122F7260217403650A89
:102E630060067404650A70157A047903120B69907D
:102E730004D7E493FC902598122F78502990259637
:102E8300122F7260287401650A60067402650A7065
:102E93001C7A027901120B699004D7E493FC902504
:102EA30096122F7840077A007B00022F6F851882D5
:102EB3008519837401F0120AE4E50CF0A3E50DF023
:102EC300AC08AD097403120AE4AA82AB83120B2186
:102ED300AA18AB19120B57740B120AE412440B8E87
:102EE300828F83A3A3A3A3A3A3E412753CAA0CAB71
:102EF3000D1210C17800E50A6007C39405500278EB
:102F0300048E828F83E50CF0A3E50D126B20E50A96
:102F1300F0E88E828F83A3A3A3A3A3126171500150
:102F2300097A027B0012020D1239E3A3125D9CA3FE
:102F3300123A27E50A600DC3940350081239B212FE
:102F43002F9080031239C9F07A047900120B698A31
:102F5300089004D7E493FAC3E5089AEB940040057C
:102F6300901174E4F0120F9BEEFAEFFB02332B1275
:102F73002F88E84922122F88ECC398F8E499F9C303
:102F8300EA98EB9922E493F8740193F922F9EE2479
:102F930014F582E43FF583E8F0A3E922EB75F0161C
:102FA300A4F8A9F0123A1CF42274F212035D74F32C
:102FB3001208FF8A088B09ECFEEDFF750A00EEFA92
:102FC300EFFB120B938A0C8B0DA80CA90DE849702B
:102FD3000302307088828983E065087004A3E0658A
:102FE30009700302307088828983A3A3A3A3E0C37B
:102FF30094055079888289831269A0124E8EE0600D
:103003003488828983A3A3A3A3E0C39403502690A7
:103013002592E493FA740193FB123D0590259CE4F9
:1030230093FA740193FBE82414F582E439F583EAF7
:10303300F0A3EB800DE82412123077F0E824141289
:103043003077F08518828519837401F0120AE4122F
:1030530069A0F0EEFCEFFD7403120AE4AA82AB83CD
:10306300120B21AA18AB19120B57750A01A90A747E
:103073000D025DBCF582E439F58374FEF0A30422EE
:1030830074F612035D120B8D8A088B09A808A9092F
:10309300E849601488828983A3A3A3A3E06009C3DA
:1030A30094055004790180027900803174F612038B
:1030B3005D120B8D8A088B09A808A909E8496014D9
:1030C30088828983A3A3A3A3E06009C39403500464
:1030D300790180027900800574021208817F02025F
:1030E30005C574F612035D120B8D8A828B83E5820C
:1030F3004583600BA3A3A3A3E07004790180027945
:103103000080DAC082C083EAFCEBFD7A007B000218
:103113004623C082C0837C007D0002462374F512DF
:10312300035D74F31208FFEAFEEBFF8C088D09C3FD
:10313300EC94F8ED94FF4004EE4F606A750A00804A
:103143001974FF6508700474FF6509600B126C9DA8
:103153007004A3E06509603B050A9004D7E493F883
:10316300E50AC3985040E50A122FA060EBEE4F60CA
:10317300D01231B4120AE4124A4F120B51E960D84B
:103183007403120AE4AC82AD83EEFAEFFB121B4721
:10319300E960C5E50A75F016A4F8A9F0746528FA84
:1031A300740A39FB80047A007B00740D1208818055
:1031B3001B8518828519837401F0746728F582745E
:1031C3000A39F583124A61740B22A90A7F030205A7
:1031D300C574F412035D74F31208FF750800120B33
:1031E300938A0A8B0BAE0AAF0BEE4F601F12323776
:1031F3001231C7120AE4124A4F120B397C167D00B2
:1032030079FFEEFAEFFB1219B57508017A0479001C
:10321300120B698A0A9004D7E493FAC3E50A9AEB7E
:10322300940050099011747401F0120F9BA9087453
:103233000D0250BD8518828519837401F08E828F2B
:1032430083A3A32274F712035DE9FC74FE6A70037F
:1032530074FF6B7D007003802C0D1232A95026ED94
:10326300122FA060F41277816A7003A3E06B70E9F8
:103273008012ED75F016A4F8A9F01277746018E0C7
:10328300640360130D1232A95015EC60E5123A1075
:1032930060F2C3940550ED126EE1125E5980047A18
:1032A300FE7BFF024A7A9004D7E493F8EDC3982299
:1032B300120BA5024626C082C083790180F274F006
:1032C30012035D8A0A8B0B7A047901120B698A0C4B
:1032D3008B0DEA450D6040EA2AFAEB33FB121A51D3
:1032E3008A088B09AE08AF09EE4F60267AFE7BFF92
:1032F300120BAB74FE6A700374FF6B601E85088249
:10330300850983124D2AE5082402F50850E20509D0
:1033130080DE750C0080047E007F00850A82850BA9
:1033230083E50C124C5E8005740D1208817F080240
:1033330005C5E493F8ECC3982274F612035DE4F533
:1033430008F50978081208539004D7E493F5087434
:1033530003780812099212364F121AD57402120812
:1033630081E9FE740A6E6024E4F508F50978081211
:1033730008539004D7E49325E0FCE433FD7A3F7BC4
:1033830000121AD57402120881EE6003120BBD02FB
:10339300284074F612035D74FE1208FF85188285B7
:1033A3001983E4F0A31233CC12085375080275098C
:1033B3000078081208537C007D007A227B00121AE1
:1033C300E174041208810230DBF0A818A9198808F7
:1033D300890978082274EE12035D74E41208FF8AE7
:1033E3000E8B0F8C088D09750C007A227B00121A44
:1033F300DB8A0A8B0B7A3F7B00121ADB8A108B1154
:10340300AE10AF11E50A450B6017E508650A7004B5
:10341300E509650B600BAC0AAD0B7A227B00121A2F
:10342300ED7430120AE4E0F50AA3E0F50BEE4F6009
:1034330015E50A6E7003E50B6F600BEEFCEFFD7A8A
:103443003F7B00121AEDE4F510F5117810120853C2
:10345300AC08AD097A227B00121AD57402120881D6
:10346300E9640A7003023645E4F508F509780812A1
:103473000853AC0AAD0B7A3F7B00121AD5740212C3
:103483000881E9640A700302364574041208CF8880
:103493000889097808120853750802750900780825
:1034A3001208537C007D007A017B03121AE774042F
:1034B300120881E96003023645851882851983E481
:1034C300F0A3F0FE0235BC74061208CF8808890900
:1034D300780812085375080875090078081208530C
:1034E3008E0874037808120992E5082402FCE43577
:1034F30009FD7A017B03121AE77404120881E9605B
:10350300030236457408120AE4E0F47003A3E0F4FE
:1035130070030235BB74061208CF8808890978083E
:1035230012085375080875090078081208537404C3
:10353300120AE41236627403780812099212364FA3
:10354300121AE17404120881E96003023645740219
:103553001208CF880889097808120853750802757C
:1035630009007808120853EE25E0FCE433FD7A02E3
:103573007B03121AE77404120881E970387402128B
:1035830008CF880889097808120853750802750955
:103593000078081208537404120AE412365D2CFCF6
:1035A300ED33FD7A3F7B00121AE17404120881E9BE
:1035B3006003023645123B180E851882851983C0B5
:1035C30082C0839004D7E493F8D083D082C3E09879
:1035D300A3E094005021851882851983C082C0839B
:1035E3007404120AE41245E7D083D082C3E098A39F
:1035F300E09950030234CAA818A9198808890978E0
:103603000812085375080275090078081208537CDC
:10361300007D007A227B00121AE17404120881E90A
:103623007020AC0EAD0F7A017B03121AEDE9701214
:10363300742E120AE41275407A027B03121AEDE922
:103643006003750C01A90C741C025385E508240260
:10365300FCE43509FD7A227B0022127544EC22E05A
:10366300F508A3E0F5092274EC12035D74FE120859
:10367300FF750A00851882851983E4F0A3F090048E
:10368300D793F510F50875090074037808120992A9
:10369300E5082402F50850020509E51025E0F510B8
:1036A300E433F5117A227B00121ADB8A0C8B0DAE00
:1036B3000CAF0D7A3F7B00121ADB8A0E8B0FA81812
:1036C300A919880C890D780C120853750C02750D15
:1036D30000780C1208537C007D007A227B00121ABA
:1036E300E774041208817A017B03121ADB8A0C8BBC
:1036F3000D7A027B03121ADB8A128B13A812A91309
:10370300E50C450D700AE5086E7003E5096F702539
:10371300E849700CE510650E7004E511650F70152E
:10372300E50C450D607BEE4F604E8518828519834D
:10373300124D3060437C017D037A227B00121151CC
:10374300E9F8880A705B7C027D037A3F7B001211E3
:1037530051E9F8880A704AEEFCEFFD7A227B0012E9
:103763001AEDE9700EAC0EAD0F7A3F7B00121AED25
:10377300E96011750A018029AE0CAF0DE8496004B8
:10378300880E890F7810120853780E120853AC086C
:10379300AD09EEFAEFFB120BC37404120881E9F5CD
:1037A3000AA90A74021208817F0C0205C574F1127A
:1037B300035D74D91208FF7402120AE4E4F0A3F063
:1037C300120BC9E960030239A174021208CF8808F9
:1037D30089097808120853750802750900780812D8
:1037E30008537C007D007A227B00121AE7740412CE
:1037F3000881E960030239A19004D7E493FA7402C3
:10380300120AE41245E7C3EA98E49950030239A186
:10381300750A00750B00750800803E8518828519AE
:1038230083125F45126ED4124A4485188285198328
:10383300123FF0122F90F07A047900120B698A0C70
:103843009004D7E493FAC3E50C9AEB9400400590F7
:103853001174E4F0120F9B05089004D7125D7B40AE
:10386300030239A17402120AE41245E7C3E50A9878
:10387300E50B9940030239A174111208CF880C8912
:103883000D780C120853750C08750D00780C12088E
:103893005385080C7403780C120992E50C2402FC7E
:1038A300E4350DFD7A227B00121AE77404120881B5
:1038B300E970A47413120AE4E0F47003A3E0F46063
:1038C30096050AE50A7002050B7404120AE47401F2
:1038D300F07413120AE41245E7740F120AE4124A51
:1038E3004474041208D7120B51E9700302385A12B8
:1038F300753D7411120AE4125E5C1210C1E508757D
:10390300F016A4F8A9F0746528FE740A39FF74113F
:103913001208CF880C890D750E00780C12084F7CA5
:10392300087D00EEFAEFFB1219A974031208811245
:1039330061765001097A027B0012020D1239E312FB
:103943003A27A818A919880C890D780C1208537501
:103953000C02750D00780C120853AC08EC2CFCE437
:1039630033FD7A3F7B00121AE77404120881E96081
:103973000302383A851882851983E0F47003A3E0C3
:10398300F4600302381EE508123A11600BC3940376
:1039930050061239B20238361239C9023839740264
:1039A300120AE4E0F974271208817F070205C59023
:1039B3002592122F88EE126ED812441290259CE4A1
:1039C30093F874019322EE24121239D7F0EE2414E3
:1039D3001239D722F582E43FF58374FEF0A3042263
:1039E300E88E828F83A3A3A3A3A3A3A3A3123A085E
:1039F3007401123A08A374AAF0EE2410F582E43F8E
:103A0300F583E4F022126B43A3A3A3A322ED75F085
:103A130016A4F8A9F0123A1C22746928F582740AD4
:103A230012763022A3F0124C11E4F0EE240CF5824E
:103A3300E43FF583E4F0A3F0A3F0A3F02274F312C0
:103A4300035D74FE1208FF851882851983E4F0A3D1
:103A5300F0F50C023AD9E50C75F016A4F8A9F07448
:103A63006528F50A740A39F50B850C82AE82780A4B
:103A730012085375080875090078081208538E0850
:103A83007403780812099212364F121AE174041261
:103A93000881E50A2414F508E4350BF509780812C2
:103AA30008537508027509007808120853EE2EFEB4
:103AB300E433FFEEFCEFFD7A3F7B00121AE174045E
:103AC300120881850A82850B83A3A3A3A3E0F46074
:103AD30003123B18050C9004D7E493F8E50CC39844
:103AE3005003023A59A818A91988088909780812B5
:103AF300085375080275090078081208537C007D85
:103B0300007A227B00121AE17404120881740212F3
:103B13000881022C05851882851983E02401F0A30E
:103B2300E03400F022C082C0837D008009EA24FFD4
:103B33001AEB34FFFB0D1232A95016123A10C3943C
:103B43000550F2EA4B70E6746528FA740A39FB8073
:103B5300047A007B0002462674F712035D74F312A5
:103B630008FF7E00023BF3EF75F017A4F8A9F012EB
:103B73007757125F4275F016A4FAABF074652AF515
:103B830082740A1261947003A3E0696040EF75F0D8
:103B930017A4F8AAF0EAF912775739F5831245E723
:103BA3007401120AE4E0687003A3E069601FEF7513
:103BB300F017A4F8EAF9743528FC740C39FD740382
:103BC300120AE4AA82AB83121B47E96013EF75F074
:103BD30017A4F8A9F0743328FA740C39FB1210CD2A
:103BE3000F90259FE493F8EFC3985003023B6A0EAE
:103BF3009004D71272C6501FEE12777AF47003A3A3
:103C0300E0F460EB1231B4120AE4124A4F120B5182
:103C1300E960DC7F0080CA024A7574F712035D74A1
:103C2300F31208FF90040B1257247003023CC9756A
:103C33000800802BE50875F016A4F8EAF9747928D2
:103C4300F582740A12762C64FE7003A3E0F4600D0F
:103C5300747728F582740A39F583125DB2050890EA
:103C630004D7125D7B505FE50875F016A4F8AAF03F
:103C7300EAF9123A1860E6C3940350E1747728F521
:103C830082740A12572170ACE50875F016A4F8EA9D
:103C9300F9746528F8740A39F9E8FEE9FF123D67FB
:103CA300123D5D1204D51232371231C7120AE412E3
:103CB3004A4F120B51E960A57403120AE4AA82ABBE
:103CC30083120B9F8097024A7574F612035D120BE1
:103CD3008D8A088B09A808A909E849602088828988
:103CE30083A3A3A3A3E06011C39403500CE824149B
:103CF300F582E4125E59123D0579018002790002D2
:103D030030E0E82412F582E439F583EAF0A3EBF01E
:103D13002274F712035DEAFEEBFF900405125724A9
:103D2300603090040B125724602890040F1257241C
:103D330060201270221204D5E97017123D58120444
:103D4300D5E96401700C8E828F83A3A312700F12C6
:103D530004D5024A7A123D67A3A312573B90040B82
:103D63001270192290259CE493FC740193FD8E82BA
:103D73008F8322C082C0839003417463F0A3740EC7
:103D8300F0900343745DF0A3740EF09003477471D5
:103D9300F0A3740CF0024626C082C08390034574DE
:103DA30057F0A3740EF002462674F712035DEAFE81
:103DB300EBFF90037BE06408601CE0640460178EF3
:103DC300828F83E0540364017041125B14F8123E46
:103DD3001DE0640670358E828F83A3A3E064FE70BA
:103DE30003A3E0F460258E828F83A3A3126555702D
:103DF30003A3E0697008EE241512654A6005120FEB
:103E0300178003120F1DE9F50880037508C2EEFA47
:103E1300EFFB121A57A908024A7AA3E0F5838882B6
:103E23002274F412035D8A088B09123FECFAE82A24
:103E3300FAE43400FB121A518A0A8B0BAE0AAF0B59
:103E4300EE4F6055850882850983E0FC7D0079008B
:103E53001219B58E828F83A3122C0A120F538E82EE
:103E63008F83A3A3A3A3EAF0A3EB123EA3F8EE2848
:103E7300F8E43F122D68850882850983A3E0C0E03A
:103E8300126156D0E0F0120F6512614CE91243EE55
:103E9300E0C0E01243E4D0E0F0EEFAEFFB0250C0E2
:103EA300F0850882850983E02274F412035D74E8C7
:103EB3001208FF8A088B098C0A8D0BE9FE90037B9D
:103EC300E064046005E06408700479C2803CA37870
:103ED30008120A7BEE90038212412F1219B585183E
:103EE300828519837808120A7B7405120AE4EEF0BE
:103EF3007404120AE47401F07407120AE4E4F09003
:103F0300037B7402124A53121E8F0250BB74F412C5
:103F1300035D74E81208FFEAFEEBFF90033C1257BF
:103F2300246003023FE77A077B00121A5190033C97
:103F3300124D2A90033C1257247003023FE38E82F2
:103F43008F83120AC190033CE0FCA3E0F5838C82CB
:103F5300120AB5EE2404F50AE43FF50B850A82F54F
:103F630083E0C0E090033C1256F8A3A3A3D0E0F093
:103F7300EE2405F508E43FF509850882F583E0C0E2
:103F8300E090033C125706D0E0124A49C0E0900388
:103F93003C123FF0C82406F582E438F583D0E012E2
:103FA300412F1219B58E828F83120AC1851882851B
:103FB3001983120AB5850A82850B83E0C0E0740574
:103FC300120AE4D0E0123EA3C0E07404120AE4D063
:103FD300E0F07407120AE4E4124A53121E8F8006BB
:103FE3007910800279010250BB8A828B83E0F8A3A7
:103FF300E022C082C08390033C12572460109003D8
:104003003C125E5C121A5790033CE4F0A3F0120ECC
:104013008D12106D02462674F412035D74E81208C3
:10402300FF8A0A8B0BECFEEDFF89087428120AE461
:10403300E0FC7429120AE4E0FD740F6C7005740F40
:104043006D60129011BBE064026005ECC39D5005E6
:1040530079C102412C7424120AE4120AC190037C30
:10406300120AB5E508900382F0EC900380F0EDA30B
:10407300F0742A120AE4E0900383F074FF650A7077
:104083000474FF650B70249011CFE0F47003A3E078
:10409300F4700C1219C1900379EAF0A3EB8012902B
:1040A30011CF126EFEE8F0A3E98006900379126146
:1040B3006AF0EE4F6017EEFAEFFB121121E964018B
:1040C300700BEEFCEFFD7A8D7B03121B4D90036C9E
:1040D300E4F0A3F090036FF0A3F090038CF0901141
:1040E300BBE064027008900380740FF0A3F09003A8
:1040F3007B740512412F1219B57404120AE4E4F01B
:1041030090037C120AC1851882851983120AB5901F
:104113000382E0C0E07405120AE4D0E0F0740712F1
:104123000AE4E4124A53121E8F0250BBF07C187D3E
:10413300007900AA18AB1922C082C083900340E023
:104143007003121D51120C2F02462674F012035DE8
:10415300900340E0901173700FE060057900121C2A
:1041630055901173E4F0804AE064016008900340C5
:10417300E0F9121C559011737401F0900340E0F4C0
:104183006030E0F50CE4F50DF50EF50FF090807559
:104193007808120A99780C790812026E780C1208C2
:1041A3004B7A807B009003C6E0F9121B177404124C
:1041B30008817A737B117941121E7702333074F4CC
:1041C30012035D74E81208FF8A088B098C0A8D0BB1
:1041D300E9FE90037B740112412F1219B5851882F1
:1041E3008519837808120A7B7405120AE4EEF074C9
:1041F30004120AE47403F07407120AE4E4124A5343
:10420300121E8F0250BB120C41024A7A74F712033A
:104213005D7C0080F174F012035D74FC1208FFE909
:10422300851882851983F0EAFEEBFF8C0A12753D2F
:10423300120E818A088B09EA4509700579CA02437F
:10424300DF8A828B83A3A3A3A3A3A3A3E064FE704B
:1042530003A3E0F4700579C30243DF120F538A0C02
:104263008B0DA80CA90D850882850983A3A3A3A39D
:10427300A3A3A3E0687003A3E069700579C20243B6
:10428300DF9003791245E7850882850983E068702A
:1042930003A3E069601285088285098312455BAA3E
:1042A30008AB097950121E77900379125E5C1210E5
:1042B300D3850882850983A3A3A3A3A3A3A3A3A34D
:1042C300A3E00490038C124547121B4D7402120A9B
:1042D300E47402F0141208D7120FD18A0C8B0DAEBE
:1042E3000CAF0DEE4F70030243D51250447406F029
:1042F300A3A882A983900366126282125AF1120F55
:104303004D124D21EE2413125AF41261427440F0FF
:10431300A3E41243EEA3A3A3A3A312440B1243E407
:10432300E50A124C5E120C05E9F50B60030243D853
:1043330090037B7409F0E5082407FEE43509FFEEDA
:10434300FAEFFB794B121E778E828F8312455190C1
:10435300036EE0F8851882851983E068600CE090AD
:10436300036E124A5379E1121E779011A81245E7A2
:104373009011AAE0687003A3E069602890033E12DD
:104383004A449011AA125E5C120F7D1243F8780C16
:1043930012084B7A017B009003C6E0F9121B1774D5
:1043A300041208817A007B049003C6E0F9121B23F0
:1043B3001243F87402780C1207D0780C12084B7A67
:1043C300007B049003C6E0F9121B177404120881E2
:1043D3008003750B10901079E4F0A90B7404023379
:1043E3002DEE2411F582E43FF58322F085088285C2
:1043F3000983A3A3229011AAE0F508A3E085080C82
:10440300F50DE4F50EF50F2212618C12441222E829
:10441300F0A3E9F02274F612035D74E21208FF853B
:104423001882851983ECF0A3EDF0EAFEEBFF89080F
:1044330090037BE064046005E06408700579C202C0
:1044430045427429120AE4E064FE7003A3E0F470A9
:104453000579C30245427C197D0079007405120871
:10446300D71219B590037B7403124A537950121E65
:104473007774291208D7794B121E7785188285190C
:104483008312455BE50890036EF07429120AE41267
:1044930045517428120AE4E0F50990036612454772
:1044A300121B4D74CE55094480C0E0741D120AE4FA
:1044B300D0E0F0742B120AE4E00490038CF0741A39
:1044C300120AE47402F07429120AE41245E7741222
:1044D300120AE4E8F0A3E91245E0741B120AE4129D
:1044E3004A447410120AE4E508F0740D120AE4E475
:1044F300F0900381740FF07A817B037954121E7755
:10450300900380740FF07A807B037947121E7790B3
:104513000380E0C3940F501F7410120AE4E0C0E05C
:104523007402120AE4D0E0F07404120AE47401F095
:10453300041208D7121E9B74051208D7121E7D742D
:104543001E0230DDF0EEFCEFFD7A8D7B0322124A72
:104553006190036F12441222126F021244122274EA
:10456300F712035DEB900383F0120E6F024A7A7425
:10457300F712035D74F81208FFEAFEEBFF7900906F
:10458300037BE064086005E0640470458518828558
:10459300198374FDF0A374FFF0120F4D7402120A15
:1045A300E4124D2A7405120AE41245D9A3E0C0E0CF
:1045B3007404120AE4D0E01245DAE0C0E074061293
:1045C3000AE4D0E0F07407120AE4E4124A53120F2B
:1045D300B97408024A77E4F08E828F8322F085183B
:1045E30082851983124A6122C082C08390034D746D
:1045F3000DF0A3740DF09003F37413F0A37410F093
:104603009003517443F0A3740DF0900353740DF0B1
:10461300A3740DF09003557449F0A3740DF0800357
:10462300120B99D083D08202083374070250BD74F1
:10463300F512035D8A088B098A828B83127377EEE6
:104643004F70030247EA90031412572460158A82BD
:104653008B83A3A3E0F9EEFAEFFB900315123E1E42
:104663001204D58E828F83A3A3A3A3A3A3A3A3A37F
:10467300E0640260030247538E828F83A3A3A3A344
:10468300A3A3E05402700302477785088285098358
:10469300A3A3E064E9700302477785088285098351
:1046A300A3A3E064CD70030247778508828509835D
:1046B300A3A3E064F070030247778E828F83A3A3E2
:1046C300A3A3A3A3A3A3A3A3E070169011BFE00425
:1046D3008E828F83A3A3A3A3A3A3A3A3A3A3F080E7
:1046E300101247FB120FE9E970077A307B01121CA5
:1046F300F1850882850983A3A3E0701F750A0080F2
:10470300097A367B01121CF1050A85088285098323
:10471300A3A3A3E0F8E50AC39840E68E828F83A3A0
:10472300A3A3A3A3A3A3A3126B37A3A3A3A3740459
:10473300F09011C0126186E81247ED121B29EA4B73
:104743004C4D700C7A207B009003C6E0F9121A09D5
:104753008E828F83A3A3A3A3A3A3A3A3A3E0640233
:1047630060128E828F83A3A3A3A3A3A3A3A3A3E017
:10477300640670738E828F83A3A3A3A3A3A3E0A273
:10478300E05064850882850983A3A3E0F9EEFAEF7C
:10479300FB121F1F8E828F83A3A3A3A3A3A3E054A3
:1047A300FEF01247FB120FE9E9850882850983A30E
:1047B300A3702AE070237A2F7B01121CF17E0085FF
:1047C3000882850983A3A3A3E0F8EEC39850187A5F
:1047D300367B01121CF10E80E67A318005E070070A
:1047E3007A2D7B01121CF10231CFF0A3E9F07A207C
:1047F3007B009003C6E0F9228E828F831270191218
:10480300573B2274EC12035D74DB1208FFEAFEEBE4
:10481300FF8C108D11750E0074051208DF121FB581
:104823007412120AE4E070087415120AE4E06020BE
:104833007405120AE4E0A2E6501B8E828F83A3A3C1
:10484300A3A3A3A3A3A3A3125E5C120FE9E96005CC
:104853007A3502494F7405120AE4E0540C6404707B
:1048630005750D018003750D00E0A2E55030750E4E
:1048730001E50DA2E04027120F538A088B09A8080F
:10488300A909125B14687003A3E06960117405122F
:1048930008DF126564121F31E9600302494D740594
:1048A300120AE4E0A2E650227406120AE4E054037A
:1048B30070187405120AE4E0540C640C600CE054A4
:1048C3000C64086005750C018003750C00740512F7
:1048D3000AE4E05403F8740268700E74051208DFEA
:1048E300126564121F91024A397401687041E50C24
:1048F300A2E0500B74051208DF126564121F9D7449
:10490300051208CF7403120AE4E8F0A3E9124A5926
:10491300851882851983E8F0A3E9124A49C0E07437
:1049230002120AE4D0E0124A53122027024A39E85D
:104933006003024A39900363E0640170178E828F2B
:1049430083A3A3A3A3A3A3E0700A7A347B01121C5D
:10495300F1024A397424120AE47402124A59741C8B
:10496300120AE4124A44E50CA2E0500B7405120843
:10497300DF126564121F9D7439120AE47808120A63
:1049830099E50DA2E0EE5072240F12654AC0E0745F
:1049930017120AE4D0E0F0900316125724700302B2
:1049A3004A39120F538A128B13A812A913741C12BB
:1049B3000AE4E0687003A3E069707B780812084B8F
:1049C300E50EF50878081208578E828F83A3A3A3F8
:1049D300A3E0F50878081208577810120853A90CB9
:1049E300740D1208DF74241208D7900316125ECEDA
:1049F3001204D57408120881803C126548F50C78BE
:104A03000C120857780812084BE50EF508780812BF
:104A130008577810120853900379120694EE241263
:104A230012654AF974261208DF740F1208D7121F91
:104A330013740A12088174250237A8A3A3A3A3A39E
:104A4300A3E812441322126B3FA3E022E8F0A3E988
:104A5300F0AA18AB1922F0124C11124A6122124A21
:104A63006522E0F8A3E0F92274F712035D121C310A
:104A73008005740D1208817F010205C574F71203C6
:104A83005D121C3D80F174F712035D121C4980E72F
:104A9300C082C083121C4302462674F712035D12C0
:104AA3001C4F80D374F712035D7409120AE4E0F516
:104AB300087808120857121C61740180B7C082C0BD
:104AC30083121C6D024626C082C083121C730246E9
:104AD3002674F712035D121C79809C74F712035D30
:104AE300EAFEEBFF89087401650870147900120D62
:104AF300859025ABE493FC7900EEFAEFFB120CFBF7
:104B0300024A7A74F712035D121C67024A7A74F43C
:104B130012035D74F91208FFE9FE8A088B098C0AF7
:104B23008D0B9010B0125724602BEE8518828519D7
:104B330083F07401120AE47808120A7B7413120AD0
:104B4300E41245E77405120AE4124A4F9010B012BA
:104B53005ECE1204D502462DC082C083121CAF0262
:104B6300462674F712035D121C85024A7A74F71203
:104B7300035D901176E0F97E00800B124DE0540D39
:104B830064017001190E124D775003E970ED024A6A
:104B93007A74F712035D901177E0F97E00800B12AF
:104BA3004DE0548D64817001190E124D775003E965
:104BB30070ED024A7A74F212035D890BE975F0060F
:104BC300A4A9F0240CF508E439F509E5082AFAE468
:104BD3003509FB121A518A0C8B0DAE0CAF0DEE4F3B
:104BE3006021AC08AD0979001219B5124C0DE50B23
:104BF300F0EE2508F8EF3509F98E828F83A3A3A37E
:104C0300124A3EEEFAEFFB025DBF124C1122EE1286
:104C130065733FF5832274F612035DEAFEEBFF1220
:104C23000CD7901175E0F8E9C39840099003491235
:104C33005E5C120CDDEE2402F8E43FF98808890972
:104C430090034B12628290034BE004124C5E120CF1
:104C5300E3850882850983E0022841F0EEFAEFFB41
:104C630022C082C0837900900349800109125E5CEF
:104C73008A828B83E582458370F202462674F7129B
:104C8300035DEAFEEBFFEE4F605A9003491257248F
:104C93006052888289837A007B00EE65827003EF1D
:104CA30065836013AA82AB831245E788828983E513
:104CB300824583602F80E3900349125F4568700249
:104CC300EF698E828F8370081245E7900349800352
:104CD300127007124A44EEFAEFFB121FF7EEFAEFD7
:104CE300FB121A57024A7AC082C083900349800498
:104CF30088828983125724600A8882898312365DE9
:104D03004D70ED8A828B83E4F0A3F0E84960068856
:104D13008289838003900349124D2A024626EE249A
:104D23001AF582E43FF583EAF0A3EBF02212573B36
:104D3300EA4B2274F712035D90034980048A828B45
:104D430083124D3060277E0080010E124D7750EDA7
:104D5300EE75F006A4FCADF0EA2CFCEB3DFDEC2473
:104D630010F582E43DF583E06970DF80047A007B0F
:104D730000024A7A124DD6EEC3982274F712035DED
:104D83007D0080010D124DD2EDC398503BED75F0BF
:104D930006A4FEA8F0E8FFEA2EFEEB3FFFEE241088
:104DA30012654A6970DEED75F006A4FEE8FFEA2E8F
:104DB300FAEB3FFBEA2411F582E4125E814CF0EA40
:104DC300240CFA50070B80047A007B00024A7A1203
:104DD3004DD622EA1265733BF583E0F822EE75F0B7
:104DE30006A4FCADF0EA2CFCEB3DFDEC2411F582AE
:104DF300E43DF583E02274F612035D120DF17B00AE
:104E03008016EB75F006A4F8A9F01262B0E4124E16
:104E13008EF0A3126278F00B9025B812616340E222
:104E23007A0080168A0875090074037808120992BB
:104E3300125D83126181A3E4F00A90259EE493F846
:104E4300EAC39840DF7900801A8908750900740362
:104E53007808120992745B12737F740F1271B8127F
:104E63002C0B099025A512698640DE9025ADE493AD
:104E7300900357F09080751206907A107B00900390
:104E8300C6E0F9121B1D74040230DD126994A322DB
:104E930074F012035D74F51208FF8A088B09890AFE
:104EA3008C0BE9A2E050147508FC7509FFA2E150D0
:104EB30005D2E4024F5CD2E3024F5C120DD98A0C97
:104EC3008B0DA80CA90D90036CE0687003A3E06937
:104ED300600EAC0A7902AA08AB09120DD3E970057A
:104EE300790002502DE50AF50C780C120857790267
:104EF3007CFE7DFFAA08AB09120D4F7401120881D5
:104F0300E9600302502BE50AC2E5F50A9003B9E014
:104F13007049E50AA2E6404374031208DFAA08AB0E
:104F230009120B2DE9702E1256FF1210AF8A0C8B4B
:104F33000DAE0CAF0DEE4F6022EE2402FAE43FFB00
:104F4300120B27E96015EE2402FCE43FFD74031203
:104F530008D7121B4DE50AD2E5F50A90034CE0F59C
:104F63000C90036C1251EF780E1208537D017C00F4
:104F730090034CE0F9AA0EAB0F120D9174021208C4
:104F830081E9F890034CE004F0E8600302502BE55C
:104F93000AA2E55004740E80027406C0E074011284
:104FA3000AE4D0E0124A53120FD18A0E8B0FAE0ED1
:104FB300AF0FEE4F606E125AF1120F4D124D2112C8
:104FC30050447401F07478550AA31275A9E50C12C4
:104FD30075A9A3E508F0E509125032E4F0E50AA249
:104FE300E5500F74031208DFE82406FAE439FB12D4
:104FF3001B4D8E828F83A3A374FDF0A374FFF0E592
:105003000B60189025ACE493F8E50BC398500CEEB5
:105013002413F582E43FF583E50BF0EEFAEFFB1280
:105023000C0580067910800279C7740B02332D8832
:10503300828983A3A3A3A312503E22126998A3A338
:1050430022EE12656F3F12504D22F583124A658896
:105053008289832274F412035D7A007B109003C665
:10506300E0F9121B29EA4B4C4D60089003D87401F8
:10507300F08043901159E064019011BC7006E0FC8C
:1050830079018004E0FC79037A007B00120CFB9029
:10509300259AE493F508740193F509E4F50AF50BF1
:1050A300780812084B7A007B109003C6E0F9121BB4
:1050B300177404120881800574181208817F040292
:1050C30005C574F012035D8A088B098C0A8D0B8960
:1050D3000C120FE9E960057AFF0251B39011BBE0AE
:1050E300640260030251DF9025B7E493F9AA08AB89
:1050F30009120E03E960030251D97900AA08AB092A
:10510300120DD9A90C120DCD8A0E8B0FAE0EAF0F57
:10511300EE4F70030251C58E828F83A3A3A3A3A373
:1051230012689C7073125E5C8E828F83A3A3A3A309
:10513300A3A3E05418604D9025AAE4938E828F8335
:10514300A3A3A3A3F07410120AE4127540741212FD
:105153000AE41251EFEA650A7003EB650B6012EA89
:105163006C7002EB6D600AEA650E7003EB650F70FD
:105173001B780E120853AA0AAB0B1210EB7402121F
:105183000881800890036B126B2EA3F074FE6A7083
:105193000374FF6B601E8051A3A3A3E06403602A22
:1051A3008E828F83A3A3A3A3A3E0640470067AFE75
:1051B3007BFF80358E828F83A3A3A3A3A3E0640226
:1051C30070089003B8E0640270127907AA08AB096B
:1051D300120E03E96006AA08AB09800DAA08AB0901
:1051E30090034D125ECE1204D5023330E0F50EA3C8
:1051F300E0F50F2274F712035DEAFEEBFF120B7B5F
:10520300E9700AEEFAEFFB120B87E96006EEFAEF9C
:10521300FB80047AFE7BFF024A7A74EE12035D8AF6
:105223000A8B0B8C0C8D0D890E750800120FE9E9A2
:1052330079006003025383AA0AAB0B120DD9A90E9E
:10524300120DCD8A108B11AE10AF11EE4F60198E77
:10525300828F83A3A3A3A3A3E0640270529003B835
:10526300E064027003025381AA0AAB0B125ECB12F5
:1052730004D5120B8D8A108B11A810A911E849705F
:105283000302538188828983A3A3A3A3A3E0A2E09B
:105293004003025381750901A2E1504B7901AC0A25
:1052A300AD0BAA0CAB0D120D2BE970470253818E87
:1052B300828F83A3A3A3A3A3E0640360258E828FBD
:1052C30083A3A3A3A3A3E06401600302538179072B
:1052D3008E828F83A3A3125E5C120E03E960030226
:1052E3005381750902801088828983A3A3A3A3A392
:1052F300D2E1F0EE4F603A8E828F83A3A3A3A3A3E0
:10530300A3E05418602B7508018E828F83A3A31228
:1053130006947510FE7511FF78101208537900ACCE
:105323000AAD0BAA0CAB0D120DE5740412088180B3
:105333004D7900AA0CAB0D120DD98A108B11A81050
:10534300A91190036CE0687003A3E06970149025C1
:10535300ABE493FCA90EAA0AAB0B120CFB75080174
:10536300801CA909AC0AAD0BAA0CAB0D120D2BE9DD
:10537300700C750801A90EAA0AAB0B120D85A908BA
:1053830080031208817F0A0205C574EB12035D7462
:10539300F01208FF8A0C8B0D8C088D09751206908C
:1053A30003F912572460171256FF1210D98A108B73
:1053B30011EA451160088A828B83A3E06068E50CDB
:1053C300241DF50EE4350DF50F850E8212591BF5DC
:1053D3001488828983A3A3A3E0FA88828983A3A381
:1053E300A3A3E0F8E4C8F9EA28FEE439FFAA08AB6E
:1053F30009120D8B850E82850F83125706E029F55E
:105403000BE50AA2E5500375120E7487550A700F57
:105413007418550A641860071256E96512600C7A0D
:10542300D37B00121CF179000256D3530A78C3EEE2
:1054330094F8EF94FF50247900EEFAEFFB120DCDB0
:105443008A0E8B0FA80EA90FE849600F8882898303
:10545300A3A3A3A3A3A3E0541870CB780812085303
:105463007D00AC0BA914125730120D91740212086F
:1054730081E9F874036860AE7425120AE412738438
:10548300600302554A7418550A7003025605E50A6B
:10549300D2E0F50AA2E45004D2E1F50AA90A1257B0
:1054A30030120DCD8A128B13A812A913E849605C40
:1054B30088828983A3A3A3A3A3A3E05418604D8880
:1054C300828983A3A3A3A3A3E06401703FE51045EE
:1054D30011603912753D88828983A3A3125E5C1221
:1054E30010D98A128B13A812A913E849601E888267
:1054F3008983A3E06016851082851183A3E0FA886F
:10550300828983A3E0C39A5003025429E50AF51064
:10551300781012085712572A120D4F74011208817E
:10552300E970247C007D00850E82850F8374FFF073
:10553300125B0CA3A3A3E060061256DD127540A90B
:105543000B125730120CA7850E82850F83E0F4707F
:1055530003A3E0F4603C9003B8E0640270030254D8
:105563002912573090034F125ECE1204D5EA650814
:105573007003EB65096003025429EEFAEFFB900315
:105583004F125ECE1204D5850E82850F83EAF0A3F7
:10559300EBF078081208537D01AC0BA914125730B5
:1055A300120D917402120881A90AEEFAEFFB120D93
:1055B300D98A088B09A808A90990036CE0687003CD
:1055C300A3E06960030256C5EEFAEFFB120B8D8A66
:1055D300088B09A808A909E849606F88828983A311
:1055E300A3A3A3E06401600D88828983A3A3A3A37B
:1055F300E064027055AC18AD19EEFAEFFB120B2DF7
:105603008056900365E06014E50AF51078101208DF
:105613005712572A120D4F7401120881E50AF5102B
:10562300781012085779027CFE7DFFEEFAEFFB1229
:105633000D4F7401120881E9600302554A850E82F9
:10564300850F8374FFF0A3025594120F4DEAFCEB10
:10565300FDAA18AB19121B4D850C82850D83A3A3DC
:10566300A3A3A3A3A3A3E06401700E1256DD1275D6
:105673004074081208D7121B4D1259031256F6E054
:105683004430F508780812085774011208CF8808C7
:1056930089097808120853740B1208CF88088909FE
:1056A3007808120853E514F50878081208577900AA
:1056B300EEFCEFFD125730120D257406120881021D
:1056C3005429125903F583125706E50BF0120F659F
:1056D30074101208817F0D0205C5E50C2415F582AF
:1056E300E4350DF58322E50C2417F582E4350DF539
:1056F30083E022F583E0F8123E1DA3229003791282
:10570300593722127019A3A3A3A3A322E50D75F0A1
:1057130006A4F8AAF0EAF974BF28F582740E39F5E5
:1057230083124A61E849227901AC08AD0912656D1B
:10573300350D12573922F583E0FAA3E0FB2274EE0C
:1057430012035D74F01208FF8A0C8B0DECFAEDFB6B
:10575300750F089003F9125724603112753D12102A
:10576300D98A088B09AC08AD09EC4D601F8C828D7A
:1057730083A3E070171261765001097A027B00124D
:10578300020DE88C828D83F0A37407F01259031283
:10579300591BF50E8882898312590DE0FAE4CAFB7E
:1057A300EC2AFEE43BFF88828983A3A312590DA34D
:1057B300A3E0FBECF508E43BF50988828983A3A306
:1057C300A3A3A3A3A3E0F50BE50AA2E45003750F7B
:1057D30010A2E550067408250FF50F748F550A7053
:1057E300071256E9650F600A7AD37B00121CF10297
:1057F30058FE530A707800E50AA2E4501FE50C2412
:105803001D1256ED2408FCA3E03400FD74081208B1
:10581300D7121B4D7808E50AC2E4F50AE50AA2E5AA
:105823005022E50C241D1256ED28F8A3E03400F9AC
:10583300E82408FCE439FDAA18AB19121B4DE50A4C
:10584300C2E5F50AA90EEEFAEFFB120DC790259EED
:105853001269865029891075110074037810120992
:105863009274202510F582740F3511F583E0F8E565
:105873000BC3985007E50BF078008004807D780413
:1058830090036CE06E7003A3E06F605FE87019E54E
:105893000AF50F780F12085712592A120D4F740187
:1058A300120881E970558005740468704E780A12F5
:1058B300085774011208CF880C890D780C1208530D
:1058C300740B1208CF880C890D780C120853E50E5F
:1058D300F50A780A120857A90BAC08AD09EEFAEFDE
:1058E300FB120D2574061208818010780A120857DE
:1058F30012592A120D4F7401120881741002538534
:10590300E50C241DF582E4350D22A3A3A3E0FC8856
:10591300828983A3A3A3A32212504DA3E0F50A888F
:10592300828983A3A3E022790112656D350DF58386
:1059330012593722E0FCA3E0FDAA08AB092274EB5D
:1059430012035D74F51208FF8A088B098C0A8D0B0C
:1059530089147420120AE4E0F511F9120DC7E9F570
:105963000C90259E126986501B750D007403780CEC
:10597300120992741E250CF582740F350DF58312EE
:1059830051EF801E90034F1257246010AA08AB09F1
:10599300123E1E1204D58A0E8B0F8006750EFE75FD
:1059A3000FFF7401120AE47408F07425120AE4E08C
:1059B300F510A2E450087401120AE47410F0E51023
:1059C300A2E550097401120AE4E02408F0AA18AB16
:1059D30019120FD18A0C8B0DAE0CAF0DEE4F700365
:1059E300025AEC125AF1120F4D124D217421120A70
:1059F300E4E0F512A3E0F51374031208DFAA0EAB7B
:105A03000F120B2DE96013EE2416125AF4740312CD
:105A130008CFEE2418122F948027E510A2E4502219
:105A2300E50E65087004E50F65097016EE2416127D
:105A33005AF4EE2418F582E43FF583E512F0A3E56A
:105A430013F0125B14F50CA3E0F50D850C82F583BE
:105A53007402F0A3E510125AFEE511125AFEA3E5F3
:105A630008F0E509850C82850D83A3A3A3125B0CC3
:105A7300E50AF0E50B850C82850D83A3A3A3A3A3FD
:105A8300A3F0AA0EAB0F120D8BE92514850C8285AA
:105A93000D83A3A3A3A3A3A3A3F0750800E510A2FA
:105AA300E45013AC12AD13E50C2408FAE4350DFBF6
:105AB300121B4D750808E510A2E5501B7423120A4A
:105AC300E4127540E50C2508F8E4350DF9E82408DF
:105AD300FAE439FB121B4D8E828F83A3A3E50EF0EC
:105AE300A3E50F124C5E120C05740B0256D5EE247F
:105AF30017F582E43FF5837401F022125B0222F072
:105B0300850C82850D83A3A322A3125B02A3A3A307
:105B130022124C11E02274F412035D8A088B09EC03
:105B2300FEEDFF750B0190036CE065087004A3E0C4
