:020000040000FA
:06000000020A6B0201A9D7
:03002B0002076861
:0300330002055172
:030043000207436E
:030053000200EABE
:03006B0002052962
:100083000201380101010503010F10FEFF8823005F
:10009300000000BE2200000000FF000000FF00017E
:1000A3000A640020FD000206FFFF01010097100013
:1000B3000000FFFFF310E80364006400B8010202CC
:1000C3000000100005020701051E02051E020A0AB0
:1000D3000103B80B02803E0102FEFFE8030A05009C
:1000E30001AD0D0A1401E0C0E074F21203CAA2AF1D
:1000F300E433FED2AF85A708AFA1EF5508541060D3
:100103000612170F75A1EFEF550854086008121770
:100113001575A1F78013EFA2E092F0E508A2E08243
:10012300F050061217CF75A1FEEEF8EEA2E092AFE3
:100133007F01020429C0E074F21203CAA2AFE433C0
:10014300FED2AF9061A4E0F8759B00E59158540886
:1001530060087591F71217698026E591585410606D
:10016300087591EF12176F8017E591A2E092F0E8FE
:10017300A2E082F0500A9061A4E0C2E0F01218BF3E
:100183009061A3E0F8E5E9585404600E12189575E0
:10019300E9FB906193E0A2E640F2EEF8EEA2E09272
:1001A300AF7F01020429C0E074F21203CAA2AFE4D4
:1001B30033FED2AF9061A5E0F8E5BF585404600662
:1001C30075BFFB1218D7EEF8EEA2E092AF7F0102E3
:1001D3000429C3E498F8E499F91202168026C3E4CB
:1001E3009AFAE49BFBE920E7E9120216E498F8E4A3
:1001F30099F922C3E498F8E499F9120216E498F8FD
:10020300E499F9C3E49AFAE49BFB22EB20E7CFE9F4
:1002130020E7E0B90010BB0008E88AF084F8AAF0F0
:1002230022E4FBC8FA22EB70227B10C833C8C9331F
:10023300C9335007C39AC3DBF280069A50012ADB05
:10024300EAC833F4C8C933F4C9FA2275F008E4C81C
:1002530033C8C933C933C99AC99B5004C92AC93B96
:10026300D5F0ECFBC833F4C8E4C9FA22080808EA5D
:10027300C0E0EBC0E086F0E7A4FA180986F0E7A433
:100283002AFA180986F0E7A42AFA180986F0E7A4DF
:100293002AFA1986F0E7A4FBE5F02AFA190886F092
:1002A300E7A42BFBE5F03AFA190886F0E7A42BFB49
:1002B300E5F03AFA18180986F0E7A4C5F02BFBE439
:1002C3003AFA1908E7C5F0C6A426F6E5F03BFBE4C5
:1002D3003AFA1886F0E7A4F6E5F00826F6E43B08B8
:1002E300F6E43A08F6D0E0FBD0E0FA22E4CFC0E02F
:1002F300E4CEC0E0E4CDC0E0E4CCC0E075F020E69D
:1003030026F608E633F608E633F608E633F6181859
:1003130018EC33FCED33FDEE33FEEF33FFC3EC9704
:1003230009ED9709EE9709EF97191919400FFFEC9B
:1003330097FC09ED97FD09EE97FE191906D5F0BF55
:10034300ECF709EDF709EEF709EFF7191919D0E002
:10035300FCD0E0FDD0E0FED0E0FF222518C582C02E
:10036300E0E51934FFC583C0E0E518C3958224F89E
:1003730010AF0885831985821880088583198582C3
:1003830018D2AFCEF0A3E520F0A37808E608F0A3D7
:10039300DEFAEFF0A3E58124FAF8E608F0A3E60815
:1003A300F0A3E608F0A30808E608F0A3E608F0A324
:1003B30015811581D0E0FED0E0F8158115811581F6
:1003C300E8C0E0EEC0E022C0D02518C582C0E0E559
:1003D3001934FFC583C0E0E518C3958224F310AF39
:1003E300088583198582188008858319858218D228
:1003F300AFC8F0A3E9F0A3EAF0A3EBF0A37908E711
:1004030009F0A3D8FAECF0A3EDF0A3EEF0A3EFF01C
:10041300A3D0E0F0A3D0E0F0A3D0E0F0A3E520F078
:10042300A3E5F0F0A322851983851882E0C0E0A339
:10043300E0F9A3E0FAA3E0FBA37808E0F608A3DF62
:10044300FAE0FCA3E0FDA3E0FEA3E0FFA3E0C0E02D
:10045300A3E0C0E0A3E0F5D0A3E0F520A3E0A3F57B
:10046300F010AF0885831985821880088583198564
:100473008218D2AFD082D083D0E0F8D0E032120A13
:10048300D9B900030204C0E49003017873790F80A3
:1004930002F0A3D8FCD9FA7A737B119000867865B1
:1004A30079018015E493A3AD82AE838A828B83F0B6
:1004B300A3AA82AB838D828E83D8E9D9E77582D0D4
:1004C3007583CB740412082D7582517583207400D3
:1004D30012082DE47375F0108E1A8F1B85821F8509
:1004E300831E851882851983E0CEA3E0CF851F8202
:1004F300851E83EBC9EAC8EDCBECCAC3E833C8E970
:1005030033C9EA33CAEB33CBC3EA9EF51DEB9FF540
:100513001CB35004AB1CAA1DEC33CCED33CDD5F08A
:10052300DAAE1AAF1B22C0E074F21203CAA2AFE420
:1005330033FED2AFE589A2E1500312161375890089
:10054300C2C5EEF8EEA2E092AF7F01020429C0E03B
:1005530074F21203CAA2AFE433FED2AFE58BA2E07A
:100563005003121613758B00C2E8EEF8EEA2E09268
:10057300AF7F01020429D083D082ECC0E0EDC0E05C
:10058300E493A3FCE493A3FDED4C600D120651EC40
:1005930024FFFCED34FFFD80EFE493A3FCE493A37D
:1005A300FDED4C600D1206EEEC24FFFCED34FFFD77
:1005B30080EFD0E0FDD0E0FCE493A3C0E0E493C07F
:1005C300E022851983851882E0A3FEE0A3F5207855
:1005D30008E0A3F608DFFAE0A3FFE0A3C0E0E0A38E
:1005E300C0E0E0A3C0E0E0A3C0E0E0A3C0E010AF40
:1005F300088582188583198008858218858319D216
:10060300AFD083D082020833D083D082E9C0E0E444
:1006130093A3C386F0C5F095F0F908E493A386F09D
:10062300C5F095F0700BE493A3C3994005E90480EA
:1006330002A3E475F002A42582F582E5F03583F583
:1006430083D0E0F9E493A3C0E0E493C0E022C0E0E8
:10065300C3E49396087401939618400FE49366706D
:100663000808740193661870007019A3A3C3E49378
:1006730096087401939618A3A3400DD0E0D0E0D060
:10068300E00205B5A3A3A3A3A3A3D0E0227404802F
:100693000474028000CCC0E0EDC0E0E518C39CCC3C
:1006A300AD1950011D10AF068C188D1980068C18DA
:1006B3008D19D2AF1207AFD0E0FDD0E0FC22740257
:1006C3008000CCC0E0EDC0E0E518C39CCCAD195070
:1006D300011D10AF068C188D1980068C188D19D248
:1006E300AF12078DD0E0FDD0E0FC22C0E0C0F0885F
:1006F300F0E4936670080874019366187000A8F01C
:10070300A3A3700BD0F0D0E0D0E0D0E00205B5A3F6
:10071300A3D0F0D0E022D083D082CCC0E0E493A376
:1007230060061207EF1470FAE493A360061209152A
:100733001470FAD0E0FCE493A3C0E0E493C0E02299
:10074300C0E074F21203CAA2AFE433FED2AFC2C058
:10075300E5D1A2E45003121667EEF8EEA2E092AFE1
:100763007F01020429C0E0C0D0E8C0E0E9C0E0A2F4
:10077300AFE433F8D2AFC2C7E8F9E8A2E092AFD052
:10078300E0F9D0E0F8D0D0D0E032CAC0E0E493A3DF
:10079300C582CCC582C583CDC583F0A3C582CCC534
:1007A30082C583CDC583DAE5D0E0CA22CAC0E0E0C2
:1007B300A3C582CCC582C583CDC583F0A3C582CC36
:1007C300C582C583CDC583DAE6D0E0CA22700908A5
:1007D3000808226016181818C6C333C608C633C6DD
:1007E30008C633C608C633C6D5E0EA22C0E0E493A0
:1007F300A3D39C5010E493A3C39C400AD0E0D0E061
:10080300D0E0020736A3A3A3D0E022C008C3E0963A
:10081300F50808A3E096420808A3E096420808A357
:10082300E09645087001D3D00822C09FF59FE4737A
:10083300D09F22D083D082C09FE493C0E074019301
:10084300C0E0740293F59F227404800A7403800647
:10085300740280027401C0E0F404120866D0E0124E
:100863000AA8222518F58210AF08F518400C1519AF
:100873008008F51840021519D2AF8519832200C0EC
:10088300D0251810AF08F518500C05198008F51875
:1008930050020519D2AFD0D022BB0102E722C08299
:1008A300C08389828A83BB0003E08002E493D08300
:1008B300D082226016080808C6C313C618C613C61A
:1008C30018C613C618C613C6D5E0EA222518F8E4DD
:1008D3003519F9222518FAE43519FB222518FCE409
:1008E3003519FD22C3E0C696F608A3E0C696F608BE
:1008F300A3E0C696F608A3E0C696F622251810AF25
:1009030008F518400C15198008F51840021519D27E
:10091300AF22C0E0E493A36C7009D0E0D0E0D0E054
:10092300020736A3A3D0E022C3E09608A3E096080B
:10093300A3E09608A3E096A2D265D03322E76670BF
:10094300100809E766700A0809E76670040809E7F2
:100953006622E066701008A3E066700A08A3E066EA
:10096300700408A3E06622C3E697F60809E697F643
:100973000809E697F60809E697F622C3E096F00819
:10098300A3E096F008A3E096F008A3E096F02270A7
:100993000422600D18C6C333C608C633C6D5E0F4B7
:1009A3001822E647F60809E647F60809E647F60877
:1009B30009E647F622E026F008A3E036F008A3E0B4
:1009C30036F008A3E036F022E026F608A3E036F678
:1009D30008A3E036F608A3E036F622E627F6080970
:1009E300E637F60809E637F60809E637F622E6574A
:1009F300F60809E657F60809E657F60809E657F632
:100A030022E056F608A3E056F608A3E056F608A33C
:100A1300E056F622E056F008A3E056F008A3E056AD
:100A2300F008A3E056F022E4C396F608E496F6082D
:100A3300E496F608E496F622C6F4C608C6F4C60899
:100A4300C6F4C608C6F4C622C3E7960809E79608A3
:100A530009E7960809E79622C3E09608A3E09608FB
:100A6300A3E09608A3E0962275D00075813F751820
:100A73000175190300020481E6F008A3E6F008A358
:100A8300E6F008A3E6F022600C08C6C313C618C636
:100A930013C6D5E0F422E0F608A3E0F608A3E0F6D7
:100AA30008A3E0F622CAC0E0E6F0A308DAFAD0E031
:100AB300FA22E8F0A3E9F0A3EAF0A3EBF022E0F8CE
:100AC300A3E0F9A3E0FAA3E0FB22E0FAA3E0FBA38F
:100AD300E0FCA3E0FD22E5C754F84401F5C7790122
:100AE300222518F582E43519F58322C2AF75D69F06
:100AF300020000221208367E26001208360727005D
:100B0300120836C327001208360B2800120836468F
:100B130028001208369C28001208360429001208FF
:100B230036882900120836A12900120836C6290082
:100B3300120836042A00120836532A001208367C9B
:100B43002A00120836CB2A00120836772B00120827
:100B5300363F2C00120836A42C00120836712D00E3
:100B6300120836B72D00120836D32D0012083605A9
:100B73002E00120836AD2F001208368430001208FA
:100B830036B03000120836E630001208360731005E
:100B9300120836163100120836213100120836D5F4
:100BA3003100120836483200120836BA32001208F1
:100BB30036C232001208363D33001208369633002F
:100BC300120836D933001208366B3600120836B1D4
:100BD3003700120836413A00120836293B00120842
:100BE300365C3B001208361E3C00120836CD3C0032
:100BF300120836153D00120836773D001208369C60
:100C03003D00120836AD3D00120836253E0012089D
:100C130036AD3E00120836113F00120836F63F008B
:100C23001208361B40001208363C41001208364FAA
:100C33004100120836C24100120836104200120861
:100C4300361942001208361944001208366345006B
:100C5300120836734500120836EC45001208363385
:100C630046001208360748001208366C4A0012087C
:100C730036804A001208368A4A00120836944A001F
:100C83001208369E4A00120836A84A00120836C1D6
:100C93004A00120836CB4A00120836D54A00120819
:100CA30036DF4A00120836074B00120836124B0093
:100CB3001208365C4B00120836664B001208367178
:100CC3004B00120836954B00120836B94B00120838
:100CD300361A4C00120836654C00120836814C0057
:100CE300120836EB4C00120836374D001208367FD7
:100CF3004D00120836FA4D00120836944E001208C1
:100D030036585000120836C65000120836F8510003
:100D13001208361E52001208368E5300120836424D
:100D230057001208364259001208361A5B0012089F
:100D330036B35B00120836C55D00120836875E00C5
:100D4300120836D35E00120836395F001208364B9C
:100D53005F001208369B6100120836C86200120851
:100D6300361A6300120836BF63001208367A65002C
:100D7300120836AB6600120836C966001208361E22
:100D830067001208361C680012083644680012080F
:100D930036A76800120836A869001208361B6A00D5
:100DA300120836496B00120836B46B00120836A4D9
:100DB3006C001208360A6F00120836386F001208EA
:100DC30036337000120836D17100120836217200D2
:100DD300120836D972001208368E7300120836F2E2
:100DE3007300120836AB74001208364B75001208F4
:100DF30036AF7500120836F97500120836367600DC
:100E03001208369E7700120836908001120836C801
:100E13008001120836A18301120836E78301120804
:100E230036048501120836698501120836BA86012F
:100E3300120836AB8901120836CA8A011208369F96
:100E430095011208364096011208363399011208AB
:100E530036339A01120836A99A01120836E69B0125
:100E6300120836369D011208361D9E011208368679
:100E7300A00112083694A20112083621A301120818
:100E830036F5A30112083681A4011208368BA4019A
:100E9300120836B4A40112083661A5011208364CB3
:100EA300A60112083624A70112083688A7011208E2
:100EB30036B1A701120836DEA7011208362FAA01A0
:100EC3001208360AAB011208364EAB01120836BFC0
:100ED300AB0112083678AC01120836AAAC0112082D
:100EE30036F1AC0112083624AD0112083689AD0182
:100EF300120836D8AD01120836DDAD0112083631BD
:100F0300AE011208367BAE0112083677AF01120824
:100F130036DCAF0112083643B00112083668B3015C
:100F23001208363CB401120836A6B5011208368001
:100F3300B80112083628B9011208364FBB0112084E
:100F430036F4BB0112083632BC011208360BBE015F
:100F53001208361EBE0112083627BE0112083630AB
:100F6300BE0112083645BE0112083664BE011208DE
:100F73003643C00112083696C001120836A0C001DC
:100F8300120836AAC00112083605C1011208364FED
:100F9300C1011208365BC201120836B2C20112083F
:100FA3003601C4011208364AC4011208362AC501A3
:100FB30012083655C6011208360BC7011208360D42
:100FC300C8011208360FC901120836F5C901120803
:100FD300360CCA0112083649CA0112083653CA012F
:100FE3001208365ECA011208367CCA01120836BEE0
:100FF300CA011208361CCB0112083641CB01120874
:10100300365BCB01120836E8CB0112083621CC013E
:101013001208366FCD01120836C1CD01120836DB36
:10102300CE0112083602CF011208369ECF011208F4
:10103300361AD00112083666D10112083681D20160
:1010430012083647D301120836F1D3011208367657
:10105300D401120836DED40112083693D5011208E2
:1010630036E5D5011208364BD60112083614D701DE
:1010730012083637D701120836EFD7011208361394
:10108300D80112083635D80112083696D80112084D
:1010930036E1DA01120836BCDB0112083666DC01E0
:1010A300120836A7DE01120836F5DE0112083638BB
:1010B300DF0112083690DF01120836EEDF01120855
:1010C3003618E0011208363CE0011208366DE001E3
:1010D30012083697E001120836DEE00112083632B4
:1010E300E1011208368EE1011208368FE20112087F
:1010F30036F9E30112083637E40112083660E401D9
:10110300120836F1E4011208363BE5011208365F96
:10111300E501120836B2E501120836CDE5011208E1
:101123003688E601120836B2E60112083608E701EE
:1011330012083614EA0112083647EA011208360487
:10114300EB01120836DFEB011208366FEC011208CF
:1011530036B0EC0112083603DD0412083642DD0412
:101163001208364D8002120836F68002120836D570
:101173008102120836F08202120836108302120826
:1011830036328402120836CF85021208363C8602B4
:101193001208361287021208361888021208367DA2
:1011A3008802120836B98802120836128902120818
:1011B300364B8902120836948902120836268A02AF
:1011C300120836C38A02120836988B021208366553
:1011D3008C02120836F28C02120836188D0212089D
:1011E30036458D02120836768D021208364B8E0272
:1011F3001208365B8E02120836AE8E02120836BB18
:101203008E02120836C88E02120836D18E021208D8
:1012130036358F02120836938F02120836DE8F029C
:10122300120836F98F021208362090021208363D52
:101233009002120836499002120836ED9102120804
:1012430036069202120836829202120836959202EC
:10125300120836A592021208364B9302120836BBC7
:101263009402120836CE95021208366E96021208C0
:1012730036789602120836E69602120836F7960278
:10128300120836369702120836649702120836316E
:101293009802120836889802120836CD980212086E
:1012A300362399021208364199021208368F9902A1
:1012B3001208365D9A02120836AB9A02120836ED0E
:1012C3009A02120836709B021208369A9B02120881
:1012D30036D09B02120836DF9B021208363D9C0271
:1012E300120836B59C02120836F69C0212083645DF
:1012F3009D02120836709D021208368A9D0212085A
:1013030036A49D02120836799E02120836839E0285
:10131300120836BE9E02120836CE9E021208361FEF
:101323009F02120836339F0212083651A002120898
:101333003666A00212083600A1021208367FA10207
:1013430012083622A2021208362DA2021208367A99
:10135300A30212083696A302120836EEA30212085D
:10136300365CA402120836A8A402120836C2A402EC
:1013730012083622A502120836C0A5021208360B3F
:10138300A6021208366EA80212083606A90212082F
:10139300367DA902120836C3AB02120836DBAB0254
:1013A300120836DEAB02120836EAAB02120836FE2A
:1013B300AB0212083606AC021208363DAC02120824
:1013C3003631AD02120836BBAD021208363DAE020D
:1013D300120836B2AE021208368AAF02120836ACD1
:1013E300AF0212083643B0021208364FB002120899
:1013F30036ACB002120836AFB0021208361EB10284
:101403001208366AB2021208367DB3021208360891
:10141300B4021208361BB502120836E5B5021208EB
:101423003616B6021208363CB60212083645B60224
:1014330012083674B60212083624B702120836D4DC
:10144300B70212083647B802120836F9B802120872
:10145300366CB902120836ABB902120836F4B90277
:1014630012083671ED011208360FEE011208365ECE
:10147300EE01120836D3EE011208366FEF0112089F
:101483003650F201120836CBF401120836E1F801A6
:1014930012083615F90112083643F901120836C746
:1014A300F9011208360FFA0112083638FA01120848
:1014B300367EFA01120836A9FA01120836F4FA0147
:1014C3001208363FDC03120836C7DC031208363134
:1014D300DD03120836A5DD031208366DE00312089A
:1014E3003689E003120836E2E00312083696DB027F
:1014F3001208363BE203120836EAE30312083645C4
:10150300E503120836ADE50312083620E603120898
:1015130036F2E6031208364CE70312083696E70361
:1015230012083695E903120836B3EA03120836D9CE
:10153300EB03120836E6EC0312083654ED031208E7
:1015430036AEED03120836E8ED0312083614260012
:101553001208364DEF031208364FD904120836CE5F
:10156300D9041208369FB50412083628B6041208A7
:1015730036B4B604120836F7B604120836FAB604BF
:10158300120836FDB60412083600B70412083603F3
:10159300B70412083667B704120836CEB704120828
:1015A30036DCB70412083648B80412083645B904C5
:1015B300120836BCDD04120836CDDD041208361AD3
:1015C300FE0212083628FE0212083612DE04120842
:1015D3003629DB0412083639DB0412083656DB04DD
:1015E300120836EADB04120836F2C3041208368DF9
:1015F300C40412083683C604120836CFD604120870
:101603003602D70412083673D70412083687D70474
:10161300120836D4D704120836F8FB031208361121
:10162300FC03120836A3FC03120836A1FD031208BB
:101633003692FF03120836C67F0012083600800474
:1016430012083648800412083644830412083616FA
:1016530084041208360185041208368286041208AF
:1016630036C88804120836528904120836A289043F
:10167300120836B08904120836C48904120836DC0D
:101683008904120836F48904120836117800120806
:10169300364B7800120836DA7900120836397A00A8
:1016A300120836657A001208367E7A001208369CD4
:1016B3007A00120836787B00120836A47C001208E0
:1016C300366C7D00120836797E00120836AB7E0038
:1016D300120836D67E00120836017F001208362C17
:1016E3007F00120836AFD304120836D8D304120889
:1016F30036ECD30412083636D40412083675D404F3
:10170300120836B4D40412083617D5041208361A50
:10171300D50412083628D50412083639D504120820
:10172300368EC004120836C8C00412083625C10418
:1017330012083653C104120836A0C104120836DE5B
:10174300C10412083619C20412083643C20412082F
:101753003669C204120836CCC204120836FAC2042F
:101763001208368DC304120836A5C304120836BA0C
:10177300C3041208364CDD0412083669DD0412086E
:10178300368DDD041208364BA604120836DFA70493
:10179300120836EDA70412083609A8041208362EDB
:1017A300A8041208368BA804120836E7A804120806
:1017B300367CA90412083601AA0412083692AA0438
:1017C30012083684AB0412083698AB04120836AB01
:1017D300AB04120836CDAB04120836F8DB0412084A
:1017E3003629DC041208365ADC0412083687DC0476
:1017F30012083670B904120836DFB9041208360429
:10180300BA04120836A7BA0412083605BD04120832
:101813003628BD041208363ABD0412083648BD0402
:1018230012083671BD0412083689BD04120836A1A8
:10183300BD04120836B9BD0412083665BE04120889
:1018430036E2BE0412083616BF041208366BBF0414
:10185300120836C0BF04120836EEBF04120836FC65
:10186300BF0412083613C0041208367DC0041208E0
:1018730036577F00120836D1EF031208361AF003E9
:1018830012083646F0031208365FF0031208367F5B
:10189300F003120836E9F00312083623F1031208A5
:1018A300366AF60312083633F80312083679F8035A
:1018B300120836E6F80312083694FA03120836C4FF
:1018C300FA03120836DEFA03120836F2FA03120894
:1018D3003646FB03120836A9FB03120836BEFB0388
:1018E3001208364AD50412083661D5041208368A1E
:1018F300D504120836B0D504120836DDD504120813
:10190300360DD6041208362ED60412083665D604D0
:101913001208368DD604120836B8DC04120836597C
:10192300B10412083670B104120836DAB204120890
:10193300360FB30412083637B30412083664B304FF
:101943001208367DB304120836BEB3041208363CBF
:10195300B40412083688B404120836DCB40412083E
:101963003613B50412083645B5041208361FCE04E3
:101973001208365ECE04120836B7CF04120836BA00
:10198300CF0412083644DA041208366DDA0412085A
:10199300368DDA04120836ADDA0412083605DB0494
:1019A3001208361BDB04120836028A041208364872
:1019B3008A04120836C48A04120836E58A04120817
:1019C30036098C04120836178C04120836738C04FB
:1019D300120836A68C04120836B98C041208364451
:1019E3008D04120836DD8D041208362B8E0412087E
:1019F30036A88E04120836148F041208364D8F044D
:101A0300120836D58F041208365B9004120836B2DA
:101A130090041208360F910412083621910412081B
:101A23003633910412083659910412083662910430
:101A3300120836A5920412083613D204120836226D
:101A4300D3041208369EC604120836E3C6041208ED
:101A53003630C704120836CDC8041208360CE30228
:101A6300120836C2E40212083611E5021208368063
:101A7300E702120836E5E702120836E5EA02120821
:101A83003647EB021208367BED0212083667EE0288
:101A9300120836CAEE0212083662EF021208360541
:101AA300F00212083650F00212083698F0021208BB
:101AB30036E7F002120836B5F2021208366DF40268
:101AC3001208363BF7021208367DF702120836D9A0
:101AD300F702120836E8F70212083650F802120825
:101AE3003600F902120836DEFC02120836A5FD02A2
:101AF300120836E7DD0412083602DE041208360641
:101B0300AC0412083626AC0412083616AD041208CB
:101B1300365FAD041208367FAD04120836BDAD043E
:101B230012083618AE0412083656AE04120836A050
:101B3300AE0412083648B10412083612D80412084B
:101B43003699D804120836EAD8041208362DD90477
:101B5300120836A59904120836AB99041208360800
:101B63009A04120836959A04120836D89A04120871
:101B730036099B041208361A9B041208362F9B045D
:101B8300120836409B041208364E9B041208365F37
:101B93009B04120836829B04120836FC9D0412082B
:101BA30036149F04120836D39F04120836F3A60393
:101BB3001208365DA7031208366EA703120836D340
:101BC300A803120836C6A903120836E0A9031208AF
:101BD3003646AA03120836C3AA03120836DBAA0341
:101BE30012083631AB0312083652AB0312083640E3
:101BF300AE0312083698AF03120836FEAF0312087D
:101C03003669B203120836A5B203120836FAB203D4
:101C13001208363FB30312083676B303120836B3FD
:101C2300B303120836CBB303120836B7B403120852
:101C33003615B50312083671B503120836EAB60332
:101C430012083631B70312083693BA03120836DA8C
:101C5300BA0312083642BC0312083681BC031208C9
:101C63003612BD0312083622BD0312083676BD03B1
:101C730012083607BE0312083641BF031208368323
:101C8300BF0312083691BF03120836A6BF0312081A
:101C930036C6BF0312083655C00312083692C00376
:101CA300120836C9C00312083611C10312083634AC
:101CB300C1031208363EC10312083692C10312084B
:101CC30036D2C103120836F9C1031208365BC203C8
:101CD300120836D5C20312083613C5031208361E7E
:101CE300D0041208362FD00412083612D104120879
:101CF30036EEFF01120836008003120836238003F4
:101D0300120836378003120836C981031208364693
:101D13008203120836CF8203120836A883031208FF
:101D2300363A8403120836EA84031208369A850386
:101D33001208369986031208365E8703120836C3E3
:101D43008703120836568E0312083632910312089F
:101D5300366E91031208367191031208360094030C
:101D6300120836BF9803120836209A031208362148
:101D73009C031208368FA003120836A4A00312088E
:101D83003623A3031208362DA403120836B3A50382
:101D93001208367AA6031208364AC7031208361CFD
:101DA300C803120836A1C80312083660C903120813
:101DB3003602CA0312083698CA03120836D0CE0375
:101DC300120836F7D003120836E2D103120836722E
:101DD300D5031208366AD603120836FBD603120857
:101DE300367BD80312083629D9031208368DDA0355
:101DF3001208360D9304120836769304120836C47B
:101E030093041208365C9404120836A3940412084F
:101E130036119504120836CA9504120836FA950449
:101E23001208360896041208361696041208361B52
:101E33009604120836A59604120836C197041208B0
:101E430036FA98041208363EC904120836B6C90495
:101E5300120836EAC904120836CDCA041208363B02
:101E6300CB041208366BFB011208368DFB011208F6
:101E730036EAFB011208360BFC0112083637FC0167
:101E830012083656FC0112083673FC01120836920A
:101E9300FC011208369EFD01120836EAFD01120804
:101EA30036FAFD0112083627FF0112083637FF0103
:101EB30012083645FF0112083653FF011208366631
:101EC300FF0112083623A004120836A5A504120840
:101ED30036C5A504120836CAA50412083650CC0428
:101EE30012083668CC041208361CCE041208369049
:101EF300DD0412083665DB0212083649DB021208DC
:101F030036E1DA021208369ADA02120836E4D90206
:101F130012083634D60212083604D602120836D115
:101F2300D502120836BDD502120836CBD4021208E8
:101F33003649D402120836EAD3021208365BD202BB
:101F4300120836E9D102120836E6D102120836E346
:101F5300D002120836BDD002120836F9CF02120899
:101F63003643CE02120836E3CD02120836B4CD0250
:101F7300120836B1CD021208369CCD02120836BAC9
:101F83002500120836DBE202120836BDE20212080F
:101F930036FAE10212083667E10212083612E0024D
:101FA3001208365CCD021208364CCD0212083656A2
:101FB300CC0212083685DD0212083615CC0212084F
:101FC30036DBCB0212083680CB021208364FCB0227
:101FD300120836D6DC0212083618C80212083686F2
:101FE300EE031208362AC702120836E4C5021208A5
:101FF3003692C50212083686C502120836EDC402AF
:10200300120836BBC30212083616C102120836B9CB
:10201300BE021208366DBE0212083652BD02120805
:1020230036E7BC0212083611BC02120836CDBB02D9
:1020330012083694BA02120836D5DB021208365B50
:10204300BA0212083629BA02120836D1E103000097
:102053000080FB8F000100691187000100681124D3
:10206300000200A61125000200A81126000200AA02
:102073001127000200AC1128000100AE1129000154
:1020830000AF1184000400B01186000100B4112ACE
:10209300000100B5112B000100B6112C000100B99D
:1020A300112D00080050112E000100BA112F00015C
:1020B30000BB1130000100BC1131000100BD113221
:1020C300000100581133000100591134000100BE12
:1020D30011360001005A1138000100BF1139000107
:1020E30000B81183000200D111630001006511647F
:1020F300000100471165000100B7116D0001006682
:102103001171000800481166000100D0114300015D
:1021130000C11144000200C21145000100C4114670
:10212300000200C511470008005D1148000100C707
:10213300114B000100C81104000100D311A10001DB
:1021430000D61137000100D51188000100D4113CDD
:102153000001005B113D000100C01149000200C9EC
:10216300116700010067114D000200CB114E000101
:1021730000CD114F000200CE113E0001005C1100A2
:1021830000000000000001363601010001020100D9
:102193000103010001040106060502000007010016
:1021A300340801000F090401010D0100FF0E0800AE
:1021B3000017020000190100FF1A0100011B0100B2
:1021C300FE1C0100081D0200001F01000120010088
:1021D30001210200002301000F2402000026010058
:1021E3000127010008280200FF2A0100072B010232
:1021F300402C0100002D0100012E0100012F0100E0
:10220300FF30010B1C310800003A0100083B0100BC
:102213000F3C0100013D0100FF3E040000420400A9
:1022230000460400004A0400004E0400005204006B
:1022330000560400005A0400005E20FFFF36000130
:1022430000060000000F0000000000000000000076
:1022530000000003FFFF00000403FFFF0000FFFF77
:102263000FF4010005C4040320000100000B00006B
:1022730000000000000003010F0000000000000048
:10228300000000000000000000000000000000004B
:10229300000000000000000000000000000000003B
:1022A300000000000000000000000000000000002B
:1022B30000000000000000000000000103710301A2
:1022C30003010301030103010322030203010310BA
:1022D30003000300030003000300030003000342A1
:1022E300030003240306030003000304031203256E
:1022F3000323032503230304030403000300030050
:102303000344030003000323030003650321003593
:1023130003810300030503000300030003000325F7
:102323000323030304710402046004110470040210
:10233300040204010402041004610400041404638D
:1023430004730472046204430400041304060400C7
:1023530004000404041204000400040004000451F3
:1023630004640000040004000444040004000400A6
:1023730004000465040004350481046400050400BA
:102383000483040004030071003001600011007035
:10239300003102200350048000100061000000148B
:1023A3000063007300720062004300000013000624
:1023B3000000000000040012000000000000000004
:1023C3000004000400370037003C02440000000012
:1023D30000000000006500000035008100000005DA
:1023E30000000083000000010171010101010111DE
:1023F3000101013101010101018001100161013B72
:1024030000140063017301720162014301000113AF
:102413000106013D01350004011201000100010024
:1024230001000104010401330133013C0144013281
:102433000136000001000165010001350081010042
:102443000105018201830100010302710230016071
:1024530002110270020102020202028002100261F2
:10246300023A0041006302730272026202430200F5
:1024730002130238000002000204021202000200EA
:10248300020002000204020402370037003C024447
:1024930002000239000002000265020002350281D7
:1024A300020002050282028302000201450E067B3E
:1024B3000E08750E0B930E10BB0D024B0E05690E25
:1024C30007510E0C2D0E0D390E64F30BFF000000A7
:1024D30000B71D1300571D0100B71D0200211D0386
:1024E30000271D04002D1D0500331D06003F1DFFA1
:1024F300FF000007ECFDFDFDECDCDCCCBCACAC9CD0
:102503009C8C7C7C6C6C5C5C5C4C4C3C3C2C2C1C38
:102513001C03EAF5E5D5D5C5B5A5959585857575EE
:102523006565555545453535252515150500160FA2
:1025330000000B150B020002220F3300000E0C0EDD
:10254300020B040B0A0708000F00011916181616D0
:102553001823030000034A49434E181A2505023085
:102563003017181921301B1D1F3000393D3F373CF0
:102573003C362C442D303016181920231A1C1E30DB
:1025830002040201010101090200BE040A7F003CAA
:10259300000E0000000000E8033C001508100C0AC0
:1025A3000328090900040003FF1E1E01050C05048E
:1025B3000408100008030CC082C0837900EA1227C4
:1025C300BF3BF583C082C083900338127541D0832B
:1025D300D082C3E09CA3E09D500CEA240B12260C8E
:1025E3001225EC600109024627EA75F00BA4FAA84C
:1025F300F075F00BEBA428FB90033AE02AF8A3E074
:102603003B8882F583E0540F22F582E43B12573A6C
:102613002274F712035E8908124DD3A3E0F9E8751B
:10262300F00BA4F8ACF075F00BE9A42C122970E8B8
:10263300FEE9FF7401650860067402650870228A6A
:10264300828B83122C9C740265087021EA2403FA9E
:1026530050010B120B27E970148E828F83E4F080F4
:102663000CEA2403FCE43B122C93120B218E828F81
:1026730083E0D2E7F0121C8B024A7B74F412035EF0
:10268300122D5679008E828F83E06075890A890B3B
:102693008064E50A75F00BA4FAA8F075F00BE50B5E
:1026A3001225F87049E50A75F00BA4F8AAF075F045
:1026B3000BE50B1228F48E828F83E085088285094F
:1026C300831245DB122C13EE2403FCE43F1227B2E2
:1026D300120B21124C0E12616B123EA4D2E7F012C0
:1026E3001C8B7901900338E0F50AA3E0F50B050A8A
:1026F300E50A7002050B122B6FE50A9AE50B9B4066
:10270300910250C174F512035EEAFEEBFF750A01F4
:10271300740B120AE4123663EC4D6015EC1227BFFA
:102723003D122D64790112154DE508450960758048
:1027330023E508450960441227BD3509122D6412AB
:1027430027B3120B27E96401701BEEFAEFFB120AA1
:10275300F7E9F50A850882850983122C0B7902AA09
:1027630008AB098011122C94120B27E96401703411
:102773007903EEFAEFFB12154D80298E828F83A326
:10278300E064FE7003A3E0F4700B122C94120B2789
:10279300E96401700CEEFAEFFB120AF7E9F50A801F
:1027A30003750A000231CEE50A2403FCE4350BFD70
:1027B300E5082403FAE43509FB22E50812657022D3
:1027C30074F712035E900338124D2BEA4B602FEA25
:1027D30075F00BA4FAA8F075F00BEBA428FBEAFE46
:1027E300EBFF121A5190033A124D2B90033A1257F2
:1027F300256012EEFCEFFD79001219B580079003F6
:102803003AE4F0A3F0024A7B74F612035EE4F5089F
:10281300F509780812085390033812365E75F00BE9
:10282300A4FCA8F075F00BEDA428FD7A237B00121D
:102833001AD57402120881E9FE6003120B0FEEF938
:102843000230E174F612035E74FF1208FF7E007F0C
:1028530000803C851882851983E41233CD12085316
:102863007508017509007808120853EEFCEFFDECBA
:1028730075F00BA4FCA8F075F00BEDA428FD7A23EA
:102883007B00121AE174041208810EEE70010F121C
:10289300297C40BF74010230DE74F612035E7E00B1
:1028A3007F008039EEF8EFF91228E8780812085310
:1028B30075080B7509007808120853EEFCEFFDEC60
:1028C30075F00BA4FC75F00BEDA42AFD7A237B00B5
:1028D300121AE774041208810EEE70010F12297C9C
:1028E30040C20230E1E875F00BA4F8AAF075F00BD2
:1028F300E9A42AF990033AE028F508A3E039F50999
:102903002274F612035E7E007F00804AEEF8EF1217
:10291300296188828983E0A2E75036C2E7F0858285
:1029230008858309780812085375080B7509007820
:1029330008120853EEFCEFFDEC75F00BA4FC75F0E8
:102943000BEDA42AFD7A237B00121AE1740412080A
:10295300810EEE70010F12297C40B10230E1F9E8DB
:1029630075F00BA4F8AAF075F00BE9A42AF990030B
:102973003AE028F8A3E039F922900338124A62C3F7
:10298300EE98EF9922C082C083EC4D6005121B4D77
:1029930080097C087D0079001219B502462774F678
:1029A30012035E7900EA4B60177800EA28F582E4A7
:1029B300125E8260047901780808E8C3940840EB4A
:1029C3000230E174F712035E74F31208FFECFEEDBC
:1029D300FF851882851983E4F004120AE4EAF0A360
:1029E300EB124A54120B457403120AE4AC82AD8312
:1029F300EEFAEFFB120B21EEFAEFFB120B27024A62
:102A03007674F712035E74F31208FFECFEEDFF8594
:102A13001882851983E4F0EAFCEBFD7403120AE4DF
:102A2300AA82AB83120B21AA18AB19120B4B7401A8
:102A3300120AE41245E88E828F83124A4574FE68B7
:102A4300700374FF696004790180027900024A7699
:102A530074F712035EEAFEEBFF121F7FE9F50874B9
:102A63000165087011122ABCF4FA88828983E05A3E
:102A73004480F0121C8B023E1974F712035EEAFEC7
:102A8300EBFF7508008E828F83E0602A121F7FE9B7
:102A9300F50874016508701E122ABCFA88828983BE
:102AA300E05A70128E828F83E04480FA8882898391
:102AB300E04AF0121C8B023E19124C12123FF11223
:102AC30029618E828F83E02274F412035E8A088B5D
:102AD300097C007D00EA1227B5120B21E508122CB0
:102AE3002D7900850882850983A3E064FE7003A322
:102AF300E0F460757E007F008066EEFAEFFB12253E
:102B0300EC6058EEFAEFFBEA75F00BA4FAA8F07547
:102B1300F00BEBA428FB90033AE02AF50AA3E03B71
:102B2300F50B850882850983A3125E5D850A82857C
:102B33000B83A3E06A7003A3E06B701FE50A240311
:102B4300FAE4350BFB120B27E9640170061227AA7E
:102B5300120B21122C2279011273750EEE70010FE4
:102B6300122B6FEE9AEF9B40910250C190033812E3
:102B7300573CC32274F312035E8A088B098A828B43
:102B830083122C0BEA122C2D750C00EA1227B512B6
:102B93000B27E96401706A7E007F00805FEEF8EF27
:102BA300F9E875F00BA4F8AAF075F00BE9A42AF97B
:102BB30090033A1273E7E0540F603CEEF8EFF9E844
:102BC30075F00BA4F8AAF075F00BE9A42AF99003A9
:102BD3003AE028F50AA3E039F50B1227AA121B479E
:102BE300E964017012850A82850B83122C13122C5F
:102BF30022750C011273750EEE70010F12297C40C1
:102C03009CA90C7F050205C5A374FEF0A304F02262
:102C1300A3124A62850882850983A312441322E51D
:102C230008122C37EEF0A3EFF022122C3774FEF0CB
:102C3300A304F0221265743509F5832274F5120397
:102C43005EEAFEEBFF8E828F83122C0B7C007D00ED
:102C5300122C94120B21EEFAEFFB121F7FE9F50AF7
:102C63007401650A7027124A5B1228E8850882F509
:102C730083122C9C1227B3120B27E96401700EE513
:102C8300082403FCE43509122C93120B210231CEE4
:102C9300FDEE2403FAE43FFB22A3125E6712441302
:102CA3002274F212035E74E61208FF122D56750C9D
:102CB30001750800750900750A00750B00851882F7
:102CC300851983E4F0EE2403FCE43FFD7403120A48
:102CD300E4AA82AB83120B21AA18AB19120B4BE99E
:102CE3006401701F740B120AE4122D667401120A38
:102CF300E4125E617003A3E069604AA818A9198809
:102D0300088909740D120AE41245DAA31245E8741E
:102D13000E120AE4124A45740D1208D7120B45E944
:102D230064017009740D1208CF880A890B780A129E
:102D33000853AC08AD09EEFAEFFB120AFD74021258
:102D43000881E9F50CEEFAEFFB120B3FA90C741A9C
:102D5300025DBDEAFEEBFF124C1274FEF0A304F019
:102D630022F583123FF1F9124C1212441322C0824E
:102D7300C08378007900800508E8700109122B6F81
:102D8300E89AE99B5029E8FAE9FBEA75F00BA4FA03
:102D9300ACF075F00BEBA42CFB90033AE02AFCA3F8
:102DA300E03B8C82F583E0540F70CD79008002798B
:102DB30001024627C082C08390259EE49375F016D6
:102DC300A4FCADF079FF7A667B0A1219B502462797
:102DD30074F612035EEAF87508007D008012ED12A6
:102DE3005E74C3994009E0FAE8C39A400205080DEE
:102DF30090259EE493FAEDC39A40E3AA087B000270
:102E030030E174F012035E74F31208FF8A0C8B0D29
:102E13008C088D09890AEC45096016AA08AB0912CA
:102E23000B938A0E8B0FAE0EAF0FEE4F6003022E85
:102E3300F87B0080010B126161500F122FA070F517
:102E4300746628FE740A39FF80047E007F00EE4F0B
:102E53007003022F4C902598122F73602174036521
:102E63000A60067404650A70157A047903120B6903
:102E730090259EE493FC902598122F795029902554
:102E830096122F7360287401650A60067402650A3E
:102E9300701C7A027901120B6990259EE493FC90D1
:102EA3002596122F7940077A007B00022F70851830
:102EB300828519837401F0120AE4E50CF0A3E50D91
:102EC300F0AC08AD097403120AE4AA82AB83120BB7
:102ED30021AA18AB19120B57740B120AE412440CF3
:102EE3008E828F83A3A3A3A3A3A3E412753DAA0C8D
:102EF300AB0D1210C17800E50A6007C394055002B8
:102F030078048E828F83E50CF0A3E50D126B21E527
:102F13000AF0E88E828F83A3A3A3A3A31261725046
:102F230001097A027B0012020E1239E4A3125D9D9D
:102F3300A3123A28E50A600DC3940350081239B36B
:102F4300122F9180031239CAF07A047900120B69A7
:102F53008A0890259EE493FAC3E5089AEB9400400F
:102F630005901175E4F0120F9BEEFAEFFB02332C80
:102F7300122F89E84922122F89ECC398F8E499F9B2
:102F8300C3EA98EB9922E493F8740193F922F9EEDA
:102F93002414F582E43FF583E8F0A3E922EB75F00E
:102FA30016A4F8A9F0123A1DF42274F212035E7407
:102FB300F31208FF8A088B09ECFEEDFF750A00EE99
:102FC300FAEFFB120B938A0C8B0DA80CA90DE849A1
:102FD300700302307188828983E065087004A3E07E
:102FE3006509700302307188828983A3A3A3A3E0D8
:102FF300C394055079888289831269A1124E8FE0A8
:10300300603488828983A3A3A3A3E0C394035026D7
:10301300902592E493FA740193FB123D0690259C4C
:10302300E493FA740193FBE82414F582E439F583FD
:10303300EAF0A3EB800DE82412123078F0E82414B0
:10304300123078F08518828519837401F0120AE42E
:103053001269A1F0EEFCEFFD7403120AE4AA82AB3D
:1030630083120B21AA18AB19120B57750A01A90A6F
:10307300740D025DBDF582E439F58374FEF0A3049B
:103083002274F612035E120B8D8A088B09A808A915
:1030930009E849601488828983A3A3A3A3E0600994
:1030A300C394055004790180027900803174F612CB
:1030B300035E120B8D8A088B09A808A909E84960E9
:1030C3001488828983A3A3A3A3E06009C394035054
:1030D30004790180027900800574021208817F025D
:1030E3000205C574F612035E120B8D8A828B83E58B
:1030F300824583600BA3A3A3A3E07004790180023C
:10310300790080DAC082C083EAFCEBFD7A007B00A1
:10311300024624C082C0837C007D0002462474F5ED
:1031230012035E74F31208FFEAFEEBFF8C088D09AD
:10313300C3EC94F8ED94FF4004EE4F606A750A0007
:10314300801974FF6508700474FF6509600B126CC5
:103153009E7004A3E06509603B050A90259EE493F5
:10316300F8E50AC3985040E50A122FA160EBEE4F31
:1031730060D01231B5120AE4124A50120B51E960C1
:10318300D87403120AE4AC82AD83EEFAEFFB121B90
:1031930047E960C5E50A75F016A4F8A9F074662836
:1031A300FA740A39FB80047A007B00740D120881DB
:1031B300801B8518828519837401F0746828F58251
:1031C300740A39F583124A62740B22A90A7F030237
:1031D30005C574F412035E74F31208FF7508001238
:1031E3000B938A0A8B0BAE0AAF0BEE4F601F1232A2
:1031F300381231C8120AE4124A50120B397C167D78
:103203000079FFEEFAEFFB1219B57508017A04791C
:1032130000120B698A0A90259EE493FAC3E50A9A81
:10322300EB940050099011757401F0120F9BA908DB
:10323300740D0250BE8518828519837401F08E8245
:103243008F83A3A32274F712035EE9FC74FE6A70F2
:103253000374FF6B7D007003802C0D1232AA50267D
:10326300ED122FA160F41277826A7003A3E06B70F2
:10327300E98012ED75F016A4F8A9F01277756018BD
:10328300E0640360130D1232AA5015EC60E5123AA4
:103293001160F2C3940550ED126EE2125E5A80047F
:1032A3007AFE7BFF024A7B90259EE493F8EDC39858
:1032B30022120BA5024627C082C083790180F274D3
:1032C300F012035E8A0A8B0B7A047901120B698A66
:1032D3000C8B0DEA450D6040EA2AFAEB33FB121A18
:1032E300518A088B09AE08AF09EE4F60267AFE7B40
:1032F300FF120BAB74FE6A700374FF6B601E8508CC
:1033030082850983124D2BE5082402F50850E20556
:103313000980DE750C0080047E007F00850A8285AB
:103323000B83E50C124C5F8005740D1208817F0836
:103333000205C5E493F8ECC3982274F612035EE425
:10334300F508F509780812085390259EE493F508CB
:1033530074037808120992123650121AD5740212A5
:103363000881E9FE740A6E6024E4F508F50978081B
:1033730012085390259EE49325E0FCE433FD7A3F45
:103383007B00121AD57402120881EE6003120BBD82
:1033930002284174F612035E74FE1208FF85188238
:1033A300851983E4F0A31233CD120853750802750F
:1033B300090078081208537C007D007A227B0012F2
:1033C3001AE174041208810230DCF0A818A91988E4
:1033D30008890978082274EE12035E74E41208FF68
:1033E3008A0E8B0F8C088D09750C007A227B0012D4
:1033F3001ADB8A0A8B0B7A3F7B00121ADB8A108B4B
:1034030011AE10AF11E50A450B6017E508650A70A8
:1034130004E509650B600BAC0AAD0B7A227B001245
:103423001AED7430120AE4E0F50AA3E0F50BEE4F4F
:103433006015E50A6E7003E50B6F600BEEFCEFFDA4
:103443007A3F7B00121AEDE4F510F511781012089B
:1034530053AC08AD097A227B00121AD57402120804
:1034630081E9640A7003023646E4F508F509780831
:10347300120853AC0AAD0B7A3F7B00121AD57402C3
:10348300120881E9640A700302364674041208CFF5
:1034930088088909780812085375080275090078A5
:1034A300081208537C007D007A017B03121AE7742B
:1034B30004120881E9600302364685188285198360
:1034C300E4F0A3F0FE0235BD74061208CF88088924
:1034D3000978081208537508087509007808120856
:1034E300538E0874037808120992E5082402FCE459
:1034F3003509FD7A017B03121AE77404120881E986
:1035030060030236467408120AE4E0F47003A3E091
:10351300F470030235BC74061208CF880889097851
:1035230008120853750808750900780812085374BF
:1035330004120AE4123663740378081209921236ED
:1035430050121AE17404120881E9600302364674CA
:10355300021208CF880889097808120853750802EF
:103563007509007808120853EE25E0FCE433FD7A70
:10357300027B03121AE77404120881E9703874029B
:103583001208CF880889097808120853750802754C
:10359300090078081208537404120AE412365E2CE8
:1035A300FCED33FD7A3F7B00121AE17404120881AB
:1035B300E96003023646123B190E8518828519838A
:1035C300C082C08390259EE493F8D083D082C3E069
:1035D30098A3E094005021851882851983C082C086
:1035E300837404120AE41245E8D083D082C3E098BE
:1035F300A3E09950030234CBA818A91988088909B4
:1036030078081208537508027509007808120853E0
:103613007C007D007A227B00121AE1740412088177
:10362300E97020AC0EAD0F7A017B03121AEDE9703D
:1036330012742E120AE41275417A027B03121AEDF8
:10364300E96003750C01A90C741C025386E5082478
:1036530002FCE43509FD7A227B0022127545EC2237
:10366300E0F508A3E0F5092274EC12035E74FE1280
:1036730008FF750A00851882851983E4F0A3F0908A
:10368300259E93F510F5087509007403780812094F
:1036930092E5082402F50850020509E51025E0F536
:1036A30010E433F5117A227B00121ADB8A0C8B0D9E
:1036B300AE0CAF0D7A3F7B00121ADB8A0E8B0FA87C
:1036C30018A919880C890D780C120853750C02750A
:1036D3000D00780C1208537C007D007A227B0012C7
:1036E3001AE774041208817A017B03121ADB8A0C2D
:1036F3008B0D7A027B03121ADB8A128B13A812A991
:1037030013E50C450D700AE5086E7003E5096F704B
:1037130025E849700CE510650E7004E511650F701E
:1037230015E50C450D607BEE4F604E8518828519BB
:1037330083124D3160437C017D037A227B00121199
:1037430051E9F8880A705B7C027D037A3F7B0012A3
:103753001151E9F8880A704AEEFCEFFD7A227B00EA
:10376300121AEDE9700EAC0EAD0F7A3F7B00121A00
:10377300EDE96011750A018029AE0CAF0DE84960CF
:1037830004880E890F7810120853780E120853AC70
:1037930008AD09EEFAEFFB120BC37404120881E9BA
:1037A300F50AA90A74021208817F0C0205C574F197
:1037B30012035E74D91208FF7402120AE4E4F0A340
:1037C300F0120BC9E960030239A274021208CF8810
:1037D30008890978081208537508027509007808E2
:1037E3001208537C007D007A227B00121AE77404CE
:1037F300120881E960030239A290259EE493FA74CA
:1038030002120AE41245E8C3EA98E4995003023924
:10381300A2750A00750B00750800803E8518828525
:103823001983125F46126ED5124A4585188285198F
:1038330083123FF1122F91F07A047900120B698AF7
:103843000C90259EE493FAC3E50C9AEB9400400593
:10385300901175E4F0120F9B050890259E125D7C74
:1038630040030239A27402120AE41245E8C3E50ACE
:1038730098E50B9940030239A274111208CF880C02
:10388300890D780C120853750C08750D00780C120D
:10389300085385080C7403780C120992E50C240272
:1038A300FCE4350DFD7A227B00121AE7740412083A
:1038B30081E970A47413120AE4E0F47003A3E0F442
:1038C3006096050AE50A7002050B7404120AE47493
:1038D30001F07413120AE41245E8740F120AE41299
:1038E3004A4574041208D7120B51E9700302385B7E
:1038F30012753E7411120AE4125E5D1210C1E508DE
:1039030075F016A4F8A9F0746628FE740A39FF74DA
:10391300111208CF880C890D750E00780C12084F10
:103923007C087D00EEFAEFFB1219A97403120881DB
:103933001261775001097A027B0012020E1239E4F8
:10394300123A28A818A919880C890D780C12085363
:10395300750C02750D00780C120853AC08EC2CFCA6
:10396300E433FD7A3F7B00121AE77404120881E9FD
:10397300600302383B851882851983E0F47003A342
:10398300E0F4600302381FE508123A12600BC39497
:103993000350061239B30238371239CA02383A745F
:1039A30002120AE4E0F974271208817F070205C5B1
:1039B300902592122F89EE126ED912441390259CF2
:1039C300E493F874019322EE24121239D8F0EE2412
:1039D300141239D822F582E43FF58374FEF0A30470
:1039E30022E88E828F83A3A3A3A3A3A3A3A3123A44
:1039F300097401123A09A374AAF0EE2410F582E4C3
:103A03003FF583E4F022126B44A3A3A3A322ED7535
:103A1300F016A4F8A9F0123A1D22746A28F58274EC
:103A23000A12763122A3F0124C12E4F0EE240CF5C4
:103A330082E43FF583E4F0A3F0A3F0A3F02274F350
:103A430012035E74FE1208FF851882851983E4F061
:103A5300A3F0F50C023ADAE50C75F016A4F8A9F018
:103A6300746628F50A740A39F50B850C82AE8278E0
:103A73000A12085375080875090078081208538E4E
:103A83000874037808120992123650121AE174046A
:103A9300120881E50A2414F508E4350BF5097808C2
:103AA3001208537508027509007808120853EE2EA0
:103AB300FEE433FFEEFCEFFD7A3F7B00121AE17464
:103AC30004120881850A82850B83A3A3A3A3E0F4D0
:103AD3006003123B19050C90259EE493F8E50CC393
:103AE300985003023A5AA818A9198808890978082E
:103AF30012085375080275090078081208537C00F0
:103B03007D007A227B00121AE17404120881740288
:103B1300120881022C06851882851983E02401F09E
:103B2300A3E03400F022C082C0837D008009EA2430
:103B3300FF1AEB34FFFB0D1232AA5016123A11C3CF
:103B4300940550F2EA4B70E6746628FA740A39FB5E
:103B530080047A007B0002462774F712035E74F335
:103B63001208FF7E00023BF4EF75F017A4F8A9F0EA
:103B7300127758125F4375F016A4FAABF074662AF5
:103B8300F582740A1261957003A3E0696040EF75D2
:103B9300F017A4F8AAF0EAF912775839F583124519
:103BA300E87401120AE4E0687003A3E069601FEFA0
:103BB30075F017A4F8EAF9743628FC740C39FD740F
:103BC30003120AE4AA82AB83121B47E96013EF7561
:103BD300F017A4F8A9F0743428FA740C39FB121006
:103BE300CD0F9025A0E493F8EFC3985003023B6BED
:103BF3000E90259E1272C7501FEE12777BF470034E
:103C0300A3E0F460EB1231B5120AE4124A50120B2E
:103C130051E960DC7F0080CA024A7674F712035EC2
:103C230074F31208FF90040B1257257003023CCA69
:103C3300750800802BE50875F016A4F8EAF9747A84
:103C430028F582740A12762D64FE7003A3E0F460F3
:103C53000D747828F582740A39F583125DB305086B
:103C630090259E125D7C505FE50875F016A4F8AAB6
:103C7300F0EAF9123A1960E6C3940350E174782824
:103C8300F582740A12572270ACE50875F016A4F891
:103C9300EAF9746628F8740A39F9E8FEE9FF123D77
:103CA30068123D5E1204D61232381231C8120AE489
:103CB300124A50120B51E960A57403120AE4AA8256
:103CC300AB83120B9F8097024A7674F612035E123F
:103CD3000B8D8A088B09A808A909E8496020888206
:103CE3008983A3A3A3A3E06011C39403500CE82426
:103CF30014F582E4125E5A123D06790180027900BE
:103D03000230E1E82412F582E439F583EAF0A3EB0B
:103D1300F02274F712035EEAFEEBFF9004051257DC
:103D230025603090040B125725602890040F12571A
:103D33002560201270231204D6E97017123D591220
:103D430004D6E96401700C8E828F83A3A3127010D2
:103D53001204D6024A7B123D68A3A312573C900477
:103D63000B12701A2290259CE493FC740193FD8E30
:103D7300828F8322C082C0839003417463F0A37453
:103D83000EF0900343745DF0A3740EF09003477438
:103D930071F0A3740CF0024627C082C083900345E0
:103DA3007457F0A3740EF002462774F712035EEA09
:103DB300FEEBFF90037BE06408601CE06404601783
:103DC3008E828F83E0540364017041125B15F812F5
:103DD3003E1EE0640670358E828F83A3A3E064FEEB
:103DE3007003A3E0F460258E828F83A3A31265562C
:103DF3007003A3E0697008EE241512654B60051289
:103E03000F178003120F1DE9F50880037508C2EE32
:103E1300FAEFFB121A57A908024A7BA3E0F583883D
:103E2300822274F412035E8A088B09123FEDFAE8CA
:103E33002AFAE43400FB121A518A0A8B0BAE0AAF3A
:103E43000BEE4F6055850882850983E0FC7D007980
:103E5300001219B58E828F83A3122C0B120F538E6F
:103E6300828F83A3A3A3A3EAF0A3EB123EA4F8EEED
:103E730028F8E43F122D69850882850983A3E0C0F1
:103E8300E0126157D0E0F0120F6512614DE9124361
:103E9300EFE0C0E01243E5D0E0F0EEFAEFFB0250B2
:103EA300C1F0850882850983E02274F412035E74ED
:103EB300E81208FF8A088B098C0A8D0BE9FE900330
:103EC3007BE064046005E06408700479C2803CA36D
:103ED3007808120A7BEE9003821241301219B585DD
:103EE30018828519837808120A7B7405120AE4EE96
:103EF300F07404120AE47401F07407120AE4E4F0A3
:103F030090037B7402124A54121E8F0250BC74F445
:103F130012035E74E81208FFEAFEEBFF90033C1203
:103F230057256003023FE87A077B00121A5190037A
:103F33003C124D2B90033C1257257003023FE48E35
:103F4300828F83120AC190033CE0FCA3E0F5838CCB
:103F530082120AB5EE2404F50AE43FF50B850A82C2
:103F6300F583E0C0E090033C1256F9A3A3A3D0E08D
:103F7300F0EE2405F508E43FF509850882F583E0B2
:103F8300C0E090033C125707D0E0124A4AC0E090C9
:103F9300033C123FF1C82406F582E438F583D0E0F0
:103FA3001241301219B58E828F83120AC18518828D
:103FB300851983120AB5850A82850B83E0C0E074F4
:103FC30005120AE4D0E0123EA4C0E07404120AE42D
:103FD300D0E0F07407120AE4E4124A54121E8F80F0
:103FE300067910800279010250BC8A828B83E0F843
:103FF300A3E022C082C08390033C12572560109037
:10400300033C125E5D121A5790033CE4F0A3F012D6
:104013000E8D12106D02462774F412035E74E812BB
:1040230008FF8A0A8B0BECFEEDFF89087428120A3D
:10403300E4E0FC7429120AE4E0FD740F6C7005746B
:104043000F6D60129011BDE064026005ECC39D50DA
:104053000579C102412D7424120AE4120AC19003A6
:104063007C120AB5E508900382F0EC900380F0ED32
:10407300A3F0742A120AE4E0900383F074FF650A44
:10408300700474FF650B70249011D1E0F47003A3E6
:10409300E0F4700C1219C1900379EAF0A3EB8012DB
:1040A3009011D1126EFFE8F0A3E980069003791214
:1040B300616BF0EE4F6017EEFAEFFB121121E9642A
:1040C30001700BEEFCEFFD7A8D7B03121B4D900309
:1040D3006CE4F0A3F090036FF0A3F090038CF090E6
:1040E30011BDE064027008900380740FF0A3F09098
:1040F300037B74051241301219B57404120AE4E407
:10410300F090037C120AC1851882851983120AB5BF
:10411300900382E0C0E07405120AE4D0E0F0740773
:10412300120AE4E4124A54121E8F0250BCF07C18A7
:104133007D007900AA18AB1922C082C08390034086
:10414300E07003121D51120C2F02462774F0120364
:104153005E900340E0901174700FE06005790012E7
:104163001C55901174E4F0804AE0640160089003E8
:1041730040E0F9121C559011747401F0900340E073
:10418300F46030E0F50CE4F50DF50EF50FF09080DA
:10419300757808120A99780C790812026F780C1254
:1041A300084B7A807B009003C6E0F9121B17740456
:1041B3001208817A747B117941121E7702333174AC
:1041C300F412035E74E81208FF8A088B098C0A8DC7
:1041D3000BE9FE90037B74011241301219B5851867
:1041E300828519837808120A7B7405120AE4EEF0BB
:1041F3007404120AE47403F07407120AE4E4124A22
:1042030054121E8F0250BC120C41024A7B74F712E7
:10421300035E7C0080F174F012035E74FC1208FFED
:10422300E9851882851983F0EAFEEBFF8C0A127583
:104233003E120E818A088B09EA4509700579CA0284
:1042430043E08A828B83A3A3A3A3A3A3A3E064FE77
:104253007003A3E0F4700579C30243E0120F538A9D
:104263000C8B0DA80CA90D850882850983A3A3A334
:10427300A3A3A3A3E0687003A3E069700579C20256
:1042830043E09003791245E8850882850983E06855
:104293007003A3E069601285088285098312455C77
:1042A300AA08AB097950121E77900379125E5D124A
:1042B30010D3850882850983A3A3A3A3A3A3A3A3E0
:1042C300A3A3E00490038C124548121B4D74021201
:1042D3000AE47402F0141208D7120FD18A0C8B0D62
:1042E300AE0CAF0DEE4F70030243D6125045740669
:1042F300F0A3A882A983900366126283125AF21272
:104303000F4D124D22EE2413125AF51261437440DD
:10431300F0A3E41243EFA3A3A3A3A312440C1243F9
:10432300E5E50A124C5F120C05E9F50B6003024345
:10433300D990037B7409F0E5082407FEE43509FFEF
:10434300EEFAEFFB794B121E778E828F8312455262
:1043530090036EE0F8851882851983E068600CE0AD
:1043630090036E124A5479E1121E779011AA1245F6
:10437300E89011ACE0687003A3E069602890033E05
:10438300124A459011AC125E5D120F7D1243F9780B
:104393000C12084B7A017B009003C6E0F9121B173D
:1043A30074041208817A007B049003C6E0F9121B9F
:1043B300231243F97402780C1207D0780C12084BBD
:1043C3007A007B049003C6E0F9121B1774041208E9
:1043D300818003750B1090107AE4F0A90B7404022A
:1043E300332EEE2411F582E43FF58322F085088213
:1043F300850983A3A3229011ACE0F508A3E0850807
:104403000CF50DE4F50EF50F2212618D1244132203
:10441300E8F0A3E9F02274F612035E74E21208FFD7
:10442300851882851983ECF0A3EDF0EAFEEBFF8992
:104433000890037BE064046005E06408700579C2BA
:104443000245437429120AE4E064FE7003A3E0F416
:10445300700579C30245437C197D00790074051208
:1044630008D71219B590037B7403124A547950127A
:104473001E7774291208D7794B121E778518828507
:10448300198312455CE50890036EF07429120AE45F
:104493001245527428120AE4E0F5099003661245A6
:1044A30048121B4D74CE55094480C0E0741D120A96
:1044B300E4D0E0F0742B120AE4E00490038CF0746F
:1044C3001A120AE47402F07429120AE41245E87419
:1044D30012120AE4E8F0A3E91245E1741B120AE49C
:1044E300124A457410120AE4E508F0740D120AE446
:1044F300E4F0900381740FF07A817B037954121EE8
:1045030077900380740FF07A807B037947121E77CC
:10451300900380E0C3940F501F7410120AE4E0C0AC
:10452300E07402120AE4D0E0F07404120AE47401A5
:10453300F0041208D7121E9B74051208D7121E7DB1
:10454300741E0230DEF0EEFCEFFD7A8D7B03221247
:104553004A6290036F12441322126F031244132210
:1045630074F712035EEB900383F0120E6F024A7B23
:1045730074F712035E74F81208FFEAFEEBFF79008A
:1045830090037BE064086005E0640470458518824D
:1045930085198374FDF0A374FFF0120F4D7402129A
:1045A3000AE4124D2B7405120AE41245DAA3E0C0A3
:1045B300E07404120AE4D0E01245DBE0C0E07406C4
:1045C300120AE4D0E0F07407120AE4E4124A541227
:1045D3000FB97408024A78E4F08E828F8322F08543
:1045E3001882851983124A6222C082C08390034DC8
:1045F300740DF0A3740DF09003F37413F0A374100F
:10460300F09003517443F0A3740DF0900353740DB1
:10461300F0A3740DF09003557449F0A3740DF0806A
:1046230003120B99D083D08202083374070250BE61
:1046330074F512035E8A088B098A828B831273785E
:10464300EE4F70030247EB90031412572560158A4F
:10465300828B83A3A3E0F9EEFAEFFB900315123EDE
:104663001F1204D68E828F83A3A3A3A3A3A3A3A302
:10467300A3E0640260030247548E828F83A3A3A343
:10468300A3A3A3E054027003024778850882850937
:1046930083A3A3E064E97003024778850882850950
:1046A30083A3A3E064CD700302477885088285095C
:1046B30083A3A3E064F070030247788E828F83A301
:1046C300A3A3A3A3A3A3A3A3A3E070169011C1E084
:1046D300048E828F83A3A3A3A3A3A3A3A3A3A3F063
:1046E30080101247FC120FE9E970077A307B011240
:1046F3001CF1850882850983A3A3E0701F750A0056
:1047030080097A367B01121CF1050A850882850926
:1047130083A3A3A3E0F8E50AC39840E68E828F83C0
:10472300A3A3A3A3A3A3A3A3126B38A3A3A3A374B9
:1047330004F09011C2126187E81247EE121B29EAB6
:104743004B4C4D700C7A207B009003C6E0F9121A93
:10475300098E828F83A3A3A3A3A3A3A3A3A3E0642C
:104763000260128E828F83A3A3A3A3A3A3A3A3A3F5
:10477300E0640670738E828F83A3A3A3A3A3A3E035
:10478300A2E05064850882850983A3A3E0F9EEFAC9
:10479300EFFB121F1F8E828F83A3A3A3A3A3A3E008
:1047A30054FEF01247FC120FE9E98508828509835C
:1047B300A3A3702AE070237A2F7B01121CF17E00E1
:1047C300850882850983A3A3A3E0F8EEC398501854
:1047D3007A367B01121CF10E80E67A318005E07097
:1047E300077A2D7B01121CF10231D0F0A3E9F07A94
:1047F300207B009003C6E0F9228E828F8312701A09
:1048030012573C2274EC12035E74DB1208FFEAFEBB
:10481300EBFF8C108D11750E0074051208DF121F4B
:10482300B57412120AE4E070087415120AE4E06029
:10483300207405120AE4E0A2E6501B8E828F83A344
:10484300A3A3A3A3A3A3A3A3125E5D120FE9E9602D
:10485300057A350249507405120AE4E0540C6404E5
:104863007005750D018003750D00E0A2E5503075EC
:104873000E01E50DA2E04027120F538A088B09A809
:1048830008A909125B15687003A3E0696011740538
:104893001208DF126565121F31E9600302494E7485
:1048A30005120AE4E0A2E650227406120AE4E05478
:1048B3000370187405120AE4E0540C640C600CE0F5
:1048C300540C64086005750C018003750C007405B5
:1048D300120AE4E05403F8740268700E74051208B7
:1048E300DF126565121F91024A3A7401687041E54F
:1048F3000CA2E0500B74051208DF126565121F9DB0
:1049030074051208CF7403120AE4E8F0A3E9124A0B
:104913005A851882851983E8F0A3E9124A4AC0E050
:104923007402120AE4D0E0124A54122027024A3ACF
:10493300E86003024A3A900363E0640170178E82D1
:104943008F83A3A3A3A3A3A3E0700A7A347B0112EA
:104953001CF1024A3A7424120AE47402124A5A7489
:104963001C120AE4124A45E50CA2E0500B7405122E
:1049730008DF126565121F9D7439120AE478081264
:104983000A99E50DA2E0EE5072240F12654BC0E0C8
:104993007417120AE4D0E0F090031612572570033F
:1049A300024A3A120F538A128B13A812A913741CCA
:1049B300120AE4E0687003A3E069707B78081208C8
:1049C3004BE50EF50878081208578E828F83A3A350
:1049D300A3A3E0F50878081208577810120853A922
:1049E3000C740D1208DF74241208D7900316125E9C
:1049F300CF1204D67408120881803C126549F50C65
:104A0300780C120857780812084BE50EF508780859
:104A13001208577810120853900379120694EE2463
:104A23001212654BF974261208DF740F1208D7129D
:104A33001F13740A12088174250237A9A3A3A3A321
:104A4300A3A3E812441422126B40A3E022E8F0A3CC
:104A5300E9F0AA18AB1922F0124C12124A62221280
:104A63004A6622E0F8A3E0F92274F712035E121CEF
:104A7300318005740D1208817F010205C574F71298
:104A8300035E121C3D80F174F712035E121C498011
:104A9300E7C082C083121C4302462774F712035EE9
:104AA300121C4F80D374F712035E7409120AE4E0F8
:104AB300F5087808120857121C61740180B7C08288
:104AC300C083121C6D024627C082C083121C73026E
:104AD300462774F712035E121C79809C74F7120345
:104AE3005EEAFEEBFF890874016508701479001211
:104AF3000D859025ACE493FC7900EEFAEFFB120CE4
:104B0300FB024A7B74F712035E121C67024A7B7432
:104B1300F412035E74F91208FFE9FE8A088B098C0C
:104B23000A8D0B9010B1125725602BEE85188285E4
:104B33001983F07401120AE47808120A7B741312C1
:104B43000AE41245E87405120AE4124A509010B1BF
:104B5300125ECF1204D602462EC082C083121CAF4F
:104B630002462774F712035E121C85024A7B74F710
:104B730012035E901177E0F97E00800B124DE15431
:104B83000D64017001190E124D785003E970ED02A6
:104B93004A7B74F712035E901178E0F97E00800B74
:104BA300124DE1548D64817001190E124D7850033A
:104BB300E970ED024A7B74F212035E890BE975F02A
:104BC30006A4A9F0240CF508E439F509E5082AFA46
:104BD300E43509FB121A518A0C8B0DAE0CAF0DEEA6
:104BE3004F6021AC08AD0979001219B5124C0EE5DE
:104BF3000BF0EE2508F8EF3509F98E828F83A3A316
:104C0300A3124A3FEEFAEFFB025DC0124C1222EEF2
:104C13001265743FF5832274F612035EEAFEEBFF1E
:104C2300120CD7901176E0F8E9C398400990034934
:104C3300125E5D120CDDEE2402F8E43FF988088968
:104C43000990034B12628390034BE004124C5F12F2
:104C53000CE3850882850983E0022842F0EEFAEF2F
:104C6300FB22C082C0837900900349800109125E50
:104C73005D8A828B83E582458370F202462774F74F
:104C830012035EEAFEEBFFEE4F605A9003491257A0
:104C9300256052888289837A007B00EE65827003E7
:104CA300EF65836013AA82AB831245E88882898308
:104CB300E5824583602F80E3900349125F46687065
:104CC30002EF698E828F8370081245E89003498052
:104CD30003127008124A45EEFAEFFB121FF7EEFAC1
:104CE300EFFB121A57024A7BC082C08390034980AC
:104CF3000488828983125725600A88828983123641
:104D03005E4D70ED8A828B83E4F0A3F0E849600680
:104D1300888289838003900349124D2B024627EE34
:104D2300241AF582E43FF583EAF0A3EBF02212574D
:104D33003CEA4B2274F712035E90034980048A8293
:104D43008B83124D3160277E0080010E124D785007
:104D5300EDEE75F006A4FCADF0EA2CFCEB3DFDECAA
:104D63002410F582E43DF583E06970DF80047A0066
:104D73007B00024A7B124DD7EEC3982274F71203CD
:104D83005E7D0080010D124DD3EDC398503BED7550
:104D9300F006A4FEA8F0E8FFEA2EFEEB3FFFEE24A8
:104DA3001012654B6970DEED75F006A4FEE8FFEAAC
:104DB3002EFAEB3FFBEA2411F582E4125E824CF0FB
:104DC300EA240CFA50070B80047A007B00024A7B2A
:104DD300124DD722EA1265743BF583E0F822EE7593
:104DE300F006A4FCADF0EA2CFCEB3DFDEC2411F540
:104DF30082E43DF583E02274F612035E120DF17B2B
:104E0300008016EB75F006A4F8A9F01262B1E41263
:104E13004E8FF0A3126279F00B9025B912616440B2
:104E2300E27A0080168A087509007403780812096B
:104E330092125D84126182A3E4F00A90259FE493A9
:104E4300F8EAC39840DF7900801A8908750900746D
:104E5300037808120992745C127380740F1271B98B
:104E6300122C0C099025A612698740DE9025AEE42A
:104E730093900357F09080751206907A107B009000
:104E830003C6E0F9121B1D74040230DE126995A3F8
:104E93002274F012035E74F51208FF8A088B0989E5
:104EA3000A8C0BE9A2E050147508FC7509FFA2E116
:104EB3005005D2E4024F5DD2E3024F5D120DD98A51
:104EC3000C8B0DA80CA90D90036CE0687003A3E094
:104ED30069600EAC0A7902AA08AB09120DD3E97016
:104EE30005790002502EE50AF50C780C1208577963
:104EF300027CFE7DFFAA08AB09120D4F7401120854
:104F030081E9600302502CE50AC2E5F50A9003B972
:104F1300E07049E50AA2E6404374031208DFAA08D9
:104F2300AB09120B2DE9702E1257001210AF8A0C29
:104F33008B0DAE0CAF0DEE4F6022EE2402FAE43F70
:104F4300FB120B27E96015EE2402FCE43FFD74031A
:104F53001208D7121B4DE50AD2E5F50A90034CE07F
:104F6300F50C90036C1251F0780E1208537D017CFE
:104F73000090034CE0F9AA0EAB0F120D91740212CC
:104F83000881E9F890034CE004F0E8600302502C38
:104F9300E50AA2E55004740E80027406C0E07401B1
:104FA300120AE4D0E0124A54120FD18A0E8B0FAECC
:104FB3000EAF0FEE4F606E125AF2120F4D124D22CA
:104FC3001250457401F07478550AA31275AAE50CC2
:104FD3001275AAA3E508F0E509125033E4F0E50AD7
:104FE300A2E5500F74031208DFE82406FAE439FB44
:104FF300121B4D8E828F83A3A374FDF0A374FFF065
:10500300E50B60189025ADE493F8E50BC398500CBD
:10501300EE2413F582E43FF583E50BF0EEFAEFFBA4
:10502300120C0580067910800279C7740B02332EA7
:1050330088828983A3A3A3A312503F22126999A351
:10504300A322EE1265703F12504E22F583124A6678
:10505300888289832274F412035E7A007B109003A2
:10506300C6E0F9121B29EA4B4C4D60089003D87433
:1050730001F0804390115AE064019011BE7006E084
:10508300FC79018004E0FC79037A007B00120CFBBD
:1050930090259AE493F508740193F509E4F50AF56C
:1050A3000B780812084B7A007B109003C6E0F912C4
:1050B3001B177404120881800574181208817F0479
:1050C3000205C574F012035E8A088B098C0A8D0BE6
:1050D300890C120FE9E960057AFF0251B49011BD02
:1050E300E0640260030251E09025B8E493F9AA0852
:1050F300AB09120E03E960030251DA7900AA08AB87
:1051030009120DD9A90C120DCD8A0E8B0FAE0EAF5D
:105113000FEE4F70030251C68E828F83A3A3A3A306
:10512300A312689D7073125E5D8E828F83A3A3A307
:10513300A3A3A3E05418604D9025ABE4938E828F14
:1051430083A3A3A3A3F07410120AE412754174128B
:10515300120AE41251F0EA650A7003EB650B601260
:10516300EA6C7002EB6D600AEA650E7003EB650F83
:10517300701B780E120853AA0AAB0B1210EB7402C1
:10518300120881800890036B126B2FA3F074FE6AE0
:10519300700374FF6B601E8051A3A3A3E0640360DC
:1051A3002A8E828F83A3A3A3A3A3E0640470067A49
:1051B300FE7BFF80358E828F83A3A3A3A3A3E0642A
:1051C3000270089003B8E0640270127907AA08AB72
:1051D30009120E03E96006AA08AB09800DAA08AB01
:1051E3000990034D125ECF1204D6023331E0F50E5F
:1051F300A3E0F50F2274F712035EEAFEEBFF120B36
:105203007BE9700AEEFAEFFB120B87E96006EEFA10
:10521300EFFB80047AFE7BFF024A7B74EE12035E8F
:105223008A0A8B0B8C0C8D0D890E750800120FE901
:10523300E979006003025384AA0AAB0B120DD9A9C2
:105243000E120DCD8A108B11AE10AF11EE4F6019F7
:105253008E828F83A3A3A3A3A3E06402705290035F
:10526300B8E064027003025382AA0AAB0B125ECC4D
:105273001204D6120B8D8A108B11A810A911E849BC
:10528300700302538288828983A3A3A3A3A3E0A20A
:10529300E04003025382750901A2E1504B7901AC4E
:1052A3000AAD0BAA0CAB0D120D2BE970470253820A
:1052B3008E828F83A3A3A3A3A3E0640360258E82BE
:1052C3008F83A3A3A3A3A3E06401600302538279A2
:1052D300078E828F83A3A3125E5D120E03E9600320
:1052E300025382750902801088828983A3A3A3A332
:1052F300A3D2E1F0EE4F603A8E828F83A3A3A3A3E0
:10530300A3A3E05418602B7508018E828F83A3A397
:105313001206947510FE7511FF7810120853790068
:10532300AC0AAD0BAA0CAB0D120DE5740412088187
:10533300804D7900AA0CAB0D120DD98A108B11A8E0
:1053430010A91190036CE0687003A3E069701490D6
:1053530025ACE493FCA90EAA0AAB0B120CFB75084F
:1053630001801CA909AC0AAD0BAA0CAB0D120D2BC5
:10537300E9700C750801A90EAA0AAB0B120D85A9D9
:105383000880031208817F0A0205C574EB12035ECD
:1053930074F01208FF8A0C8B0D8C088D09751206A8
:1053A3009003F912572560171257001210D98A106B
:1053B3008B11EA451160088A828B83A3E06068E55C
:1053C3000C241DF50EE4350DF50F850E8212591CC4
:1053D300F51488828983A3A3A3E0FA88828983A32F
:1053E300A3A3A3E0F8E4C8F9EA28FEE439FFAA0876
:1053F300AB09120D8B850E82850F83125707E029A7
:10540300F50BE50AA2E5500375120E7487550A7071
:105413000F7418550A641860071256EA6512600C77
:105423007AD37B00121CF179000256D4530A78C355
:10543300EE94F8EF94FF50247900EEFAEFFB120D8F
:10544300CD8A0E8B0FA80EA90FE849600F888289B9
:1054530083A3A3A3A3A3A3E0541870CB78081208D3
:10546300537D00AC0BA914125731120D9174021223
:105473000881E9F874036860AE7425120AE41273B4
:1054830085600302554B7418550A7003025606E5EE
:105493000AD2E0F50AA2E45004D2E1F50AA90A12FD
:1054A3005731120DCD8A128B13A812A913E8496044
:1054B3005C88828983A3A3A3A3A3A3E05418604DAC
:1054C30088828983A3A3A3A3A3E06401703FE510AB
:1054D3004511603912753E88828983A3A3125E5DEC
:1054E3001210D98A128B13A812A913E849601E88D7
:1054F300828983A3E06016851082851183A3E0FA75
:1055030088828983A3E0C39A500302542AE50AF5EB
:1055130010781012085712572B120D4F74011208EE
:1055230081E970247C007D00850E82850F8374FFE2
:10553300F0125B0DA3A3A3E060061256DE127541C1
:10554300A90B125731120CA7850E82850F83E0F445
:105553007003A3E0F4603C9003B8E06402700302BC
:10556300542A12573190034F125ECF1204D6EA65C4
:10557300087003EB6509600302542AEEFAEFFB900F
:10558300034F125ECF1204D6850E82850F83EAF095
:10559300A3EBF078081208537D01AC0BA914125742
:1055A30031120D917402120881A90AEEFAEFFB126F
:1055B3000DD98A088B09A808A90990036CE06870C3
:1055C30003A3E06960030256C6EEFAEFFB120B8DEC
:1055D3008A088B09A808A909E849606F888289832A
:1055E300A3A3A3A3E06401600D88828983A3A3A37B
:1055F300A3E064027055AC18AD19EEFAEFFB120B81
:105603002D8056900365E06014E50AF510781012BA
:10561300085712572B120D4F7401120881E50AF532
:1056230010781012085779027CFE7DFFEEFAEFFB2B
:10563300120D4F7401120881E9600302554B850E68
:1056430082850F8374FFF0A3025595120F4DEAFC78
:10565300EBFDAA18AB19121B4D850C82850D83A394
:10566300A3A3A3A3A3A3A3E06401700E1256DE12A7
:10567300754174081208D7121B4D1259041256F7BC
:10568300E04430F508780812085774011208CF88EF
:105693000889097808120853740B1208CF880889FF
:1056A300097808120853E514F508780812085779A1
:1056B30000EEFCEFFD125731120D2574061208811E
:1056C30002542A125904F583125707E50BF0120FFF
:1056D3006574101208817F0D0205C5E50C2415F5CC
:1056E30082E4350DF58322E50C2417F582E4350DAC
:1056F300F583E022F583E0F8123E1EA3229003799E
:105703001259382212701AA3A3A3A3A322E50D757D
:10571300F006A4F8AAF0EAF974C028F582740E39E9
:10572300F583124A62E849227901AC08AD09126592
:105733006E350D12573A22F583E0FAA3E0FB22748B
:10574300EE12035E74F01208FF8A0C8B0DECFAED77
:10575300FB750F089003F9125725603112753E123D
:1057630010D98A088B09AC08AD09EC4D601F8C82F7
:105773008D83A3E070171261775001097A027B00D1
:1057830012020EE88C828D83F0A37407F012590481
:1057930012591CF50E8882898312590EE0FAE4CA65
:1057A300FBEC2AFEE43BFF88828983A3A312590EF4
:1057B300A3A3E0FBECF508E43BF50988828983A306
:1057C300A3A3A3A3A3A3E0F50BE50AA2E4500375E7
:1057D3000F10A2E550067408250FF50F748F550AB4
:1057E30070071256EA650F600A7AD37B00121CF128
:1057F3000258FF530A707800E50AA2E4501FE50C33
:10580300241D1256EE2408FCA3E03400FD74081294
:1058130008D7121B4D7808E50AC2E4F50AE50AA287
:10582300E55022E50C241D1256EE28F8A3E03400BF
:10583300F9E82408FCE439FDAA18AB19121B4DE55D
:105843000AC2E5F50AA90EEEFAEFFB120DC7902581
:105853009F126987502989107511007403781012FB
:10586300099274212510F582740F3511F583E0F840
:10587300E50BC3985007E50BF078008004807D7832
:105883000490036CE06E7003A3E06F605FE870192F
:10589300E50AF50F780F12085712592B120D4F74A2
:1058A30001120881E970558005740468704E780A06
:1058B30012085774011208CF880C890D780C12084E
:1058C30053740B1208CF880C890D780C120853E51A
:1058D3000EF50A780A120857A90BAC08AD09EEFABF
:1058E300EFFB120D2574061208818010780A120846
:1058F3005712592B120D4F74011208817410025361
:1059030086E50C241DF582E4350D22A3A3A3E0FC58
:1059130088828983A3A3A3A32212504EA3E0F50A8E
:1059230088828983A3A3E022790112656E350DF580
:105933008312593822E0FCA3E0FDAA08AB092274C4
:10594300EB12035E74F51208FF8A088B098C0A8D2B
:105953000B89147420120AE4E0F511F9120DC7E95A
:10596300F50C90259F126987501B750D0074037801
:105973000C120992741F250CF582740F350DF583F3
:105983001251F0801E90034F1257256010AA08ABE6
:1059930009123E1F1204D68A0E8B0F8006750EFE67
:1059A300750FFF7401120AE47408F07425120AE4F7
:1059B300E0F510A2E450087401120AE47410F0E553
:1059C30010A2E550097401120AE4E02408F0AA18B1
:1059D300AB19120FD18A0C8B0DAE0CAF0DEE4F70BD
:1059E30003025AED125AF2120F4D124D2274211274
:1059F3000AE4E0F512A3E0F51374031208DFAA0E1C
:105A0300AB0F120B2DE96013EE2416125AF5740333
:105A13001208CFEE2418122F958027E510A2E45028
:105A230022E50E65087004E50F65097016EE24166D
:105A3300125AF5EE2418F582E43FF583E512F0A33C
:105A4300E513F0125B15F50CA3E0F50D850C82F55B
:105A5300837402F0A3E510125AFFE511125AFFA353
:105A6300E508F0E509850C82850D83A3A3A3125BEA
:105A73000DE50AF0E50B850C82850D83A3A3A3A393
:105A8300A3A3F0AA0EAB0F120D8BE92514850C828C
:105A9300850D83A3A3A3A3A3A3A3F0750800E51017
:105AA300A2E45013AC12AD13E50C2408FAE4350D4F
:105AB300FB121B4D750808E510A2E5501B74231259
:105AC3000AE4127541E50C2508F8E4350DF9E824DC
:105AD30008FAE439FB121B4D8E828F83A3A3E50ED4
:105AE300F0A3E50F124C5F120C05740B0256D6EEB1
:105AF3002417F582E43FF5837401F022125B03223D
:105B0300F0850C82850D83A3A322A3125B03A3A3B9
:105B1300A322124C12E02274F412035E8A088B094A
:105B2300ECFEEDFF750B0190036CE065087004A3B8
