:020000040000FA
:06000000020D01020330B5
:03002B000209D3F4
:0300330002078A37
:0300530002026B3B
:03006B0002075F2A
:100083000202BC01010503012822000000005E21D9
:1000930000000000FF000000FF00018813D0070AE2
:1000A300010020FD00020612FFFF010100990A0072
:1000B3000000FFFFEC0AE80364006400B8010202D9
:1000C3000000100005020701051E02051E020A0AB0
:1000D3000103B80B02803E0102FEFFE8030A05009C
:1000E30001AD0D020A1401E000120D11604F120D53
:1000F300206012E7548066F6120BEC7011120DA209
:10010300703B090909F4F618F618F618F622120CD2
:10011300007015120DAB08080860EAE6447FF61874
:10012300768018E4F618F622120DAB6016120DA2B3
:100133007012E4F608F608F608E65480F609090991
:1001430018181822EAC0E0EBC0E0ECC0E0EDC0E014
:10015300E687F0A4FBACF008E687F0A42CFCE435BA
:10016300F0FA1809E687F0A42C4B60027401CA3533
:10017300F0FCE433FB09E687F0D2F7A42CCB35F08F
:10018300FC1908E687F0A42BCC35F0FBE433FD081B
:1001930019E687F0D2E7A42C4ACB35F0CD3400FC26
:1001A30009E687F0D2E7A42DCC35F0FDE433FA0954
:1001B30018E687F0D2F7A42CCD35F0CA3400FC083A
:1001C300E687F0D2E7D2F7A42ACC35F07A7E20E78F
:1001D3000B0ACB33CBCD33CDCC33CC33CB33501411
:1001E3007004ED30E00ED2F1E4CD3DCDCC3CCC3B00
:1001F3005005DA05C2F1EB547FC63308E63392F0BB
:10020300FBE73309E733C39A502D2B70190C0D4CC0
:100213004D70151806E608C333700D20F10AA2F0DD
:1002230013F6E418800B4024E4F630F002768018CD
:10023300F618F618F68024D33B14501074FFA2F07E
:1002430013F6187680E418F618F6800FA2F013F66A
:1002530018E63303F618ECF618EDF6D0E0FDD0E01F
:10026300FCD0E0FBD0E0FA22C0E074F212064BA20D
:10027300AFE433FED2AF85A708AFA1EF5508541002
:1002830060061215F175A1EFEF55085408600812C6
:100293001E8575A1F78013EFA2E092F0E508A2E0B6
:1002A30082F050061216BD75A1FE751A00EEF8EE27
:1002B300A2E092AF7F01020707C0E074F212064B7F
:1002C300A2AFE433FED2AF9061A4E0F8759B00E5E2
:1002D3009158540860087591F712164B8026E591E2
:1002E30058541060087591EF1216518017E591A2CA
:1002F300E092F0E8A2E082F0500A9061A4E0C2E04C
:10030300F01217B39061A3E0F8E5E9585404600EC6
:1003130012178975E9FB906193E0A2E640F2751A22
:1003230000EEF8EEA2E092AF7F01020707C0E0748F
:10033300F212064BA2AFE433FED2AF9061A5E0F810
:10034300E5BF585404600675BFFB1217CB751A003E
:10035300EEF8EEA2E092AF7F01020707C3E498F83C
:10036300E499F91203A08026C3E49AFAE49BFBE91B
:1003730020E7E91203A0E498F8E499F922C3E4988A
:10038300F8E499F91203A0E498F8E499F9C3E49A1C
:10039300FAE49BFB22EB20E7CFE920E7E0B900106A
:1003A300BB0008E88AF084F8AAF022E4FBC8FA222A
:1003B300EB70227B10C833C8C933C9335007C39AC3
:1003C300C3DBF280069A50012ADBEAC833F4C8C9BA
:1003D30033F4C9FA2275F008E4C833C8C933C93302
:1003E300C99AC99B5004C92AC93BD5F0ECFBC83351
:1003F300F4C8E4C9FA2212043920F01430E72B744C
:10040300FFFCFBFA747F8022E4FCFBFA7480801A01
:10041300B48008BC00F2BB00EF800F50EBF9E4C3DB
:100423009AFAE49BFBE49CFCE499C6CC18C6CB186F
:10043300C6CA18C6F922E4C9C608CAC608CBC6D3B9
:10044300330308CCC63392F0C3947F402E941840F4
:1004530019C9B90704CACBCC225025C309CA33CA68
:10046300CB33CBCC33CC33D9F422F4600DC9CCC31A
:1004730013CB13CBCA13CAD9F6CC22E4FCFBFA2262
:1004830014FCFBFA22080808EAC0E0EBC0E086F09F
:10049300E7A4FA180986F0E7A42AFA180986F0E710
:1004A300A42AFA180986F0E7A42AFA1986F0E7A421
:1004B300FBE5F02AFA190886F0E7A42BFBE5F03AEE
:1004C300FA190886F0E7A42BFBE5F03AFA181809A5
:1004D30086F0E7A4C5F02BFBE43AFA1908E7C5F068
:1004E300C6A426F6E5F03BFBE43AFA1886F0E7A447
:1004F300F6E5F00826F6E43B08F6E43A08F6D0E021
:10050300FBD0E0FA22E4CFC0E0E4CEC0E0E4CDC00B
:10051300E0E4CCC0E075F020E626F608E633F60802
:10052300E633F608E633F6181818EC33FCED33FD22
:10053300EE33FEEF33FFC3EC9709ED9709EE97090E
:10054300EF97191919400FFFEC97FC09ED97FD0977
:10055300EE97FE191906D5F0BFECF709EDF709EE92
:10056300F709EFF7191919D0E0FCD0E0FDD0E0FE50
:10057300D0E0FF222518C582C0E0E51934FFC5830A
:10058300C0E0E518C3958224F810AF088583198568
:1005930082188008858319858218D2AFCEF0A3E52F
:1005A30020F0A37808E608F0A3DEFAEFF0A3E581D4
:1005B30024FAF8E608F0A3E608F0A3E608F0A30897
:1005C30008E608F0A3E608F0A315811581D0E0FE44
:1005D300D0E0F8158115811581E8C0E0EEC0E02276
:1005E300120D8DB90003020635E4900301786B798F
:1005F300098002F0A3D8FCD9FA781A9000867A0110
:10060300BA00028007E493A3F608DAF97A6B7B0B4E
:10061300900087786579018015E493A3AD82AE835A
:100623008A828B83F0A3AA82AB838D828E83D8E9DF
:10063300D9E775822E7583AF7403120A9B7582F115
:1006430075831E7400120A9BC0D02518C582C0E0B2
:10065300E51934FFC583C0E0E518C3958224F31080
:10066300AF088583198582188008858319858218C8
:10067300D2AFC8F0A3E9F0A3EAF0A3EBF0A37908A3
:10068300E709F0A3D8FAECF0A3EDF0A3EEF0A3EFA3
:10069300F0A3D0E0F0A3D0E0F0A3D0E0F0A3E520F6
:1006A300F0A3E5F0F0A322E9799EC608CAC608CBF9
:1006B300C608CCC6C370207996CACBCC7019798E84
:1006C300CBCC70137986CC700EF9802ACA33CACB8F
:1006D30033CBCC33CC331930E7F2CCCBCA33501401
:1006E3007004EA30E00DE4CA3ACACB3BCBCC3CCC35
:1006F300500209C3E913C6CC182313C6CB18C6CAC4
:1007030018C6F922851983851882E0C0E0A3E0F9B1
:10071300A3E0FAA3E0FBA37808E0F608A3DFFAE07E
:10072300FCA3E0FDA3E0FEA3E0FFA3E0C0E0A3E0A1
:10073300C0E0A3E0F5D0A3E0F520A3E0A3F5F0101B
:10074300AF088583198582188008858319858218E7
:10075300D2AFD082D083D0E0F8D0E032C0E074F2E0
:1007630012064BA2AFE433FED2AFE589A2E15003F8
:1007730012150D758900C2C5751A00EEF8EEA2E0D8
:1007830092AF7F01020707C0E074F212064BA2AFDB
:10079300E433FED2AFE58BA2E0500312150D758B47
:1007A30000C2E8751A00EEF8EEA2E092AF7F0102F4
:1007B3000707E4730C75F0108E218F22858226853E
:1007C3008325851882851983E0CEA3E0CF85268211
:1007D300852583EBC9EAC8EDCBECCAC3E833C8E986
:1007E30033C9EA33CAEB33CBC3EA9EF524EB9FF557
:1007F30023B35004AB23AA24EC33CCED33CDD5F093
:10080300DAAE21AF2222D083D082ECC0E0EDC0E08B
:10081300E493A3FCE493A3FDED4C600D1208E1EC1B
:1008230024FFFCED34FFFD80EFE493A3FCE493A3EA
:10083300FDED4C600D12097EEC24FFFCED34FFFD51
:1008430080EFD0E0FDD0E0FCE493A3C0E0E493C0EC
:10085300E022D083D082E9C0E0E493A3C386F0C54D
:10086300F095F0F908E493A386F0C5F095F0700BCA
:10087300E493A3C3994005E9048002A3E475F0025D
:10088300A42582F582E5F03583F583D0E0F9E4937E
:10089300A3C0E0E493C0E022851983851882E0A316
:1008A300FEE0A3F5207808E0A3F608DFFAE0A3FF53
:1008B300E0A3C0E0E0A3C0E0E0A3C0E0E0A3C0E0A9
:1008C300E0A3C0E010AF08858218858319800885EE
:1008D3008218858319D2AFD083D082020AA1C0E0E7
:1008E300C3E49396087401939618400FE4936670DB
:1008F3000808740193661870007019A3A3C3E493E6
:1009030096087401939618A3A3400DD0E0D0E0D0CD
:10091300E0020845A3A3A3A3A3A3D0E02274048009
:100923000474028000CCC0E0EDC0E0E518C39CCCA9
:10093300AD1950011D10AF068C188D1980068C1847
:100943008D19D2AF120A1DD0E0FDD0E0FC22740253
:100953008000CCC0E0EDC0E0E518C39CCCAD1950DD
:10096300011D10AF068C188D1980068C188D19D2B5
:10097300AF1209FBD0E0FDD0E0FC22C0E0C0F0885C
:10098300F0E4936670080874019366187000A8F089
:10099300A3A3700BD0F0D0E0D0E0D0E0020845A3D1
:1009A300A3D0F0D0E022D083D082CCC0E0E493A3E4
:1009B3006006120A7C1470FAE493A36006120B8398
:1009C3001470FAD0E0FCE493A3C0E0E493C0E02207
:1009D300C0E0C0D0E8C0E0E9C0E0A2AFE433F8D2A1
:1009E300AFC2C7751A00E8F9E8A2E092AFD0E0F908
:1009F300D0E0F8D0D0D0E032CAC0E0E493A3C582FF
:100A0300CCC582C583CDC583F0A3C582CCC582C5C1
:100A130083CDC583DAE5D0E0CA22CAC0E0E0A3C52E
:100A230082CCC582C583CDC583F0A3C582CCC582E4
:100A3300C583CDC583DAE6D0E0CA22700908080869
:100A4300226016181818C6C333C608C633C608C6AC
:100A530033C608C633C6D5E0EA22C008C3E096F51C
:100A63000808A3E096420808A3E096420808A3E01A
:100A73009645087001D3D00822C0E0E493A3D39C29
:100A83005010E493A3C39C400AD0E0D0E0D0E0022E
:100A930009C6A3A3A3D0E022C09FF59FE473D09F10
:100AA30022D083D082C09FE493C0E0740193C0E05E
:100AB300740293F59F227404800A740380067402FF
:100AC30080027401C0E0F404120AD4D0E0120D5C79
:100AD300222518F58210AF08F518400C1519800867
:100AE300F51840021519D2AF8519832200C0D0250D
:100AF3001810AF08F518500C05198008F5185002A6
:100B03000519D2AFD0D022BB0102E722C082C08335
:100B130089828A83BB0003E08002E493D083D0827E
:100B2300226016080808C6C313C618C613C618C61B
:100B330013C618C613C6D5E0EA222518F8E43519FA
:100B4300F9222518FAE43519FB222518FCE4351996
:100B5300FD22C3E0C696F608A3E0C696F608A3E016
:100B6300C696F608A3E0C696F622251810AF08F538
:100B730018400C15198008F51840021519D2AF2238
:100B8300C0E0E493A36C7009D0E0D0E0D0E00209A8
:100B9300C6A3A3D0E022E066701008A3E066700A43
:100BA30008A3E066700408A3E06622E766701008F5
:100BB30009E766700A0809E76670040809E7662210
:100BC300C3E09608A3E09608A3E09608A3E096A2E4
:100BD300D265D03322C3E697F60809E697F60809EB
:100BE300E697F60809E697F622181818E608460865
:100BF3007009E626087005E633F42208221919194C
:100C0300E70947097009E727097005E733F4220963
:100C130022C3E096F008A3E096F008A3E096F0085C
:100C2300A3E096F022E026F008A3E036F008A3E064
:100C330036F008A3E036F022E026F608A3E036F605
:100C430008A3E036F608A3E036F622E627F60809FD
:100C5300E637F60809E637F60809E637F6227004A0
:100C630022600D18C6C333C608C633C6D5E0F418D0
:100C730022E647F60809E647F60809E647F60809B3
:100C8300E647F622E657F60809E657F60809E65757
:100C9300F60809E657F622E056F608A3E056F608EA
:100CA300A3E056F608A3E056F622E056F008A3E0C8
:100CB30056F008A3E056F008A3E056F022E4C396EA
:100CC300F608E496F608E496F608E496F622C3E0FE
:100CD3009608A3E09608A3E09608A3E09622C6F43C
:100CE300C608C6F4C608C6F4C608C6F4C622C3E7D7
:100CF300960809E7960809E7960809E7962275D04A
:100D03000075813F751801751903000205E3E608B4
:100D13004608C3134608336002E633F422E7094763
:100D230009C3134709336002E733F422600C08C692
:100D3300C313C618C613C6D5E0F422E6F008A3E62B
:100D4300F008A3E6F008A3E6F022E0F608A3E0F635
:100D530008A3E0F608A3E0F622CAC0E0E6F0A30881
:100D6300DAFAD0E0FA22E0FAA3E0FBA3E0FCA3E086
:100D7300FD22E8F0A3E9F0A3EAF0A3EBF022E0F808
:100D8300A3E0F9A3E0FAA3E0FB22E5C754F844018A
:100D9300F5C77901222518F582E43519F58322E791
:100DA3002719471947194722E626184618461846B1
:100DB30022C2AF75D69F02000022120AA45C64000F
:100DC300120AA43B6500120AA44A6500120AA4553C
:100DD3006500120AA4476600120AA4586600120AA4
:100DE300A4D06600120AA4586700120AA4BC6700C4
:100DF300120AA4A16800120AA4D26800120AA4204D
:100E03006900120AA4296900120AA4296B00120AB4
:100E1300A4766C00120AA4F56C00120AA4C96E0031
:100E2300120AA4267100120AA43A7100120AA444F9
:100E33007100120AA44E7100120AA4587100120A1A
:100E4300A4627100120AA46C7100120AA49B7100BF
:100E5300120AA4D17100120AA4DC7100120AA400C0
:100E63007200120AA4247200120AA4857200120AE4
:100E7300A4D07200120AA4EC7200120AA4567300E2
:100E8300120AA4A27300120AA4EA7300120AA46A43
:100E93007400120AA42E7600120AA4EA7600120A3B
:100EA300A4B37700120AA43F7A00120AA4947A002A
:100EB300120AA4BC7A00120AA4E37B00120AA42734
:100EC3007C00120AA4777C00120AA42C7D00120A6B
:100ED300A4D67D00120AA44A7E00120AA4EA7E0068
:100EE300120AA47C7F00120AA4D02300120AA402CF
:100EF3002400120AA40F2600120AA4622600120A72
:100F0300A4A82600120AA43B2700120AA4A02700C3
:100F1300120AA4E02700120AA4452900120AA441D8
:100F23002A00120AA40B2E00120AA4A62E00120AEB
:100F3300A4A62F00120AA4093000120AA435310016
:100F4300120AA4C73300120AA4533400120AA45D80
:100F53003400120AA48A3400120AA45D3500120A6E
:100F6300A41B3600120AA4443600120AA4713600E8
:100F7300120AA4AE3800120AA4823900120AA4C1CC
:100F83003900120AA4423A00120AA4043B00120ACE
:100F9300A4363B00120AA47D3B00120AA4B93B000D
:100FA300120AA4083C00120AA45C3C00120AA4D64C
:100FB3003C00120AA43B3D00120AA4A23D00120AFF
:100FC300A42C3F00120AA4F93F00120AA40B41000B
:100FD300120AA4014400120AA4484600120AA4EB10
:100FE3004600120AA4294700120AA4024900120A61
:100FF300A4154900120AA41E4900120AA427490095
:10100300120AA43C4900120AA45B4900120AA40C68
:101013004A00120AA45F4A00120AA4694A00120A8B
:10102300A4EB4A00120AA4984B00120AA4A74C008E
:10103300120AA4BF4D00120AA4B74E00120AA4CE8E
:101043004E00120AA40B4F00120AA4294F00120AE1
:10105300A47C4F00120AA4AE4F00120AA44E500003
:10106300120AA4595100120AA4E25100120AA45C04
:101073005200120AA4F85200120AA4355400120AAC
:10108300A40F5500120AA47A5500120AA44356006D
:10109300120AA4665600120AA44B5700120AA48F20
:1010A3005700120AA4E75700120AA4455800120A6F
:1010B300A4695800120AA4945800120AA4DB580029
:1010C300120AA4FF5800120AA4785900120AA4E2D3
:1010D3005A00120AA4205B00120AA4495B00120AF8
:1010E300A41C5C00120AA40E5D00120AA4ABFF014B
:1010F300120AA4EAFF01120AA4B68101120AA41A71
:101103008201120AA4788201120AA4C38201120A7C
:10111300A4DE8201120AA4058301120AA422830118
:10112300120AA42E8301120AA4D28401120AA4EB88
:101133008401120AA4678501120AA47A8501120A9E
:10114300A48A8501120AA4308601120AA4A0870189
:10115300120AA4B38801120AA4538901120AA45DD6
:101163008901120AA4CB8901120AA4DC8901120A9B
:10117300A41B8A01120AA4498A01120AA4168B012C
:10118300120AA46D8B01120AA4B28B01120AA408DD
:101193008C01120AA4268C01120AA4748C01120A6F
:1011A300A4428D01120AA4908D01120AA4D28D01CA
:1011B300120AA4558E01120AA47F8E01120AA4B545
:1011C3008E01120AA4C48E01120AA4228F01120AEC
:1011D300A49A8F01120AA4DB8F01120AA42A900198
:1011E300120AA4559001120AA46F9001120AA4894D
:1011F3009001120AA45E9101120AA4689101120AD5
:10120300A4A39101120AA4B39101120AA4BC9101EF
:10121300120AA40D9201120AA4219201120AA43FF8
:101223009301120AA4569301120AA46B9301120AA2
:10123300A4059401120AA4849401120AA427950117
:10124300120AA4329501120AA47C9601120AA498E8
:101253009601120AA4EC9601120AA45A9701120AE3
:10126300A4A69701120AA4C09701120AA402980126
:10127300120AA4659A01120AA4FD9A01120AA4741F
:101283009B01120AA4BA9D01120AA4D29D01120A5B
:10129300A4D59D01120AA4E19D01120AA4F59D01A2
:1012A300120AA4FD9D01120AA4349E01120AA42865
:1012B3009F01120AA4B29F01120AA434A001120AC8
:1012C300A4A9A001120AA481A101120AA4A3A10145
:1012D300120AA43AA201120AA446A201120AA4A362
:1012E300A201120AA4A6A201120AA4D3A201120AFD
:1012F300A4E8A201120AA457A301120AA4A3A401F9
:10130300120AA4B6A501120AA441A601120AA45402
:10131300A701120AA41EA801120AA44FA801120AC7
:10132300A475A801120AA47EA801120AA4ADA801FB
:10133300120AA45DA901120AA40DAA01120AA4802B
:10134300AA01120AA430AB01120AA4A3AB01120A28
:10135300A4E2AB01120AA42BAC01120AA460AC01F3
:10136300120AA41CEE01120AA4BAEE01120AA4097D
:10137300EF01120AA47EEF01120AA41AF001120A65
:10138300A4FBF201120AA476F501120AA48CF90156
:10139300120AA4C0F901120AA4EEF901120AA472F6
:1013A300FA01120AA4BAFA01120AA4E3FA01120A10
:1013B300A429FB01120AA454FB01120AA49FFB01F6
:1013C300120AA457AD02120AA4DFAD02120AA449FD
:1013D300AE02120AA4BDAE02120AA485B102120A19
:1013E300A4A1B102120AA4FAB102120AA4E9B20238
:1013F300120AA453B302120AA402B502120AA45D8C
:10140300B602120AA4C5B602120AA438B702120A17
:10141300A40AB802120AA464B802120AA4AEB8025B
:10142300120AA4ADBA02120AA4CBBB02120AA4F197
:10143300BC02120AA4FEBD02120AA46CBE02120A66
:10144300A4C6BE02120AA400BF02120AA49EBF02CF
:10145300120AA465C002120AA40CC503120AA461ED
:101463009603120AA4CE9603120AA4239703120A20
:10147300A4839703120AA4169803120AA489980353
:10148300120AA48C9803120AA48F9803120AA49236
:101493009803120AA4A99903120AA41A9A03120A16
:1014A300A402C403120AA413C403120AA454C40357
:1014B300120AA471C403120AA4C3B303120AA4D167
:1014C300B303120AA4FBC503120AA48DBE03120AB6
:1014D300A49DBE03120AA4B7BE03120AA4B3BF039A
:1014E300120AA4EEA403120AA489A503120AA47F74
:1014F300A703120AA4FCBB03120AA42FBC03120AFB
:10150300A4A0BC03120AA4B4BC03120AA401BD0321
:10151300120AA43FBD03120AA442BD03120AA47E09
:10152300FB02120AA497FB02120AA429FC02120A64
:10153300A427FD02120AA418FF02120AA478FF02CC
:10154300120AA4E1FF02120AA4F87F00120AA47F80
:10155300B103120AA4B7B103120AA42AB303120AED
:10156300A4C0B303120AA438F402120AA472F40248
:10157300120AA401F602120AA460F602120AA48C4B
:10158300F602120AA4A5F602120AA4CF5D00120AFB
:10159300A49FF702120AA4CBF802120AA493F90239
:1015A300120AA4A0FA02120AA4D2FA02120AA4FD91
:1015B300FA02120AA428FB02120AA453FB02120A1B
:1015C300A496B503120AA4BFB503120AA4D3B503A4
:1015D300120AA41DB603120AA45CB603120AA49B42
:1015E300B603120AA4ACB603120AA40FB703120A75
:1015F300A412B703120AA4836300120AA431B70327
:10160300120AA48AA103120AA4C4A103120AA421E0
:10161300A203120AA44FA203120AA49CA203120A51
:10162300A4DAA203120AA415A303120AA43FA30374
:10163300120AA465A303120AA4C8A303120AA4F6F8
:10164300A303120AA489A403120AA4A1A403120ADD
:10165300A4B6A403120AA48BC503120AA4A8C50343
:10166300120AA4CCC503120AA4008003120AA4948C
:101673008103120AA4A28103120AA4BE8103120ADF
:10168300A4E38103120AA4408203120AA49C8203E6
:10169300120AA4318303120AA4B68303120AA447CD
:1016A3008403120AA4A38403120AA4DE8403120A85
:1016B300A4D08503120AA4E48503120AA4F78503C0
:1016C300120AA4198603120AA485C203120AA4B635
:1016D300C203120AA4E7C203120AA414C303120A20
:1016E300A416FC01120AA485FC01120AA4AAFC0197
:1016F300120AA44DFD01120AA4019E03120AA42496
:101703009E03120AA4369E03120AA4449E03120ADD
:10171300A46D9E03120AA4859E03120AA49D9E0330
:10172300120AA4B59E03120AA4619F03120AA4DE3F
:101733009F03120AA412A003120AA467A003120AA9
:10174300A4BCA003120AA4EAA003120AA4F8A003EB
:10175300120AA40FA103120AA479A103120AA48BEB
:10176300C403120AA4FAC403120AA41FD402120A5D
:10177300A468D402120AA494D402120AA4ADD40217
:10178300120AA4CDD402120AA437D502120AA471F4
:10179300D502120AA4B8DA02120AA481DC02120AE0
:1017A300A4C7DC02120AA434DD02120AA4E2DE0298
:1017B300120AA412DF02120AA42CDF02120AA440A6
:1017C300DF02120AA494DF02120AA4F7DF02120A4C
:1017D300A40CE002120AA477BA03120AA48EBA0375
:1017E300120AA4B7BA03120AA4DDBA03120AA40A9E
:1017F300BB03120AA43ABB03120AA45BBB03120A7B
:10180300A492BB03120AA4BABB03120AA445C303DE
:10181300120AA490C303120AA41B9203120AA4324D
:101823009203120AA49C9303120AA4D19303120AEB
:10183300A4F99303120AA4269403120AA43F94035F
:10184300120AA4809403120AA4FE9403120AA44A5F
:101853009503120AA49E9503120AA4D59503120AAE
:10186300A4079603120AA4DEB803120AA4F0B8036D
:10187300120AA410BA03120AA413BA03120AA4DEAA
:10188300C003120AA407C103120AA427C103120A40
:10189300A447C103120AA49FC103120AA4B5C1033A
:1018A300120AA428EB02120AA46EEB02120AA4EA9B
:1018B300EB02120AA40BEC02120AA42FED02120A85
:1018C300A43DED02120AA499ED02120AA4CCED0282
:1018D300120AA4DFED02120AA46AEE02120AA4039A
:1018E300EF02120AA451EF02120AA4CEEF02120A67
:1018F300A43AF002120AA473F002120AA4FBF00243
:10190300120AA481F102120AA4D8F102120AA43520
:10191300F202120AA447F202120AA459F202120AAC
:10192300A47FF202120AA488F202120AA4D0F302DC
:10193300120AA442B703120AA451B803120AA49AC2
:10194300A703120AA4DFA703120AA42CA803120AEE
:10195300A4C9A903120AA40ED301120AA4C4D40170
:10196300120AA413D501120AA482D701120AA4E70A
:10197300D701120AA4E7DA01120AA449DB01120A09
:10198300A47DDD01120AA469DE01120AA4CCDE01E2
:10199300120AA464DF01120AA407E001120AA45286
:1019A300E001120AA49AE001120AA4E9E001120A72
:1019B300A4B7E201120AA46FE401120AA43DE701ED
:1019C300120AA47FE701120AA4DBE701120AA4EAC0
:1019D300E701120AA452E801120AA402E901120A59
:1019E300A4E0EC01120AA4A7ED01120AA4C3C103E7
:1019F300120AA4DEC103120AA4EEC103120AA4450B
:101A0300C203120AA45F8C03120AA47F8C03120A76
:101A1300A46F8D03120AA4B88D03120AA4D88D03F0
:101A2300120AA4168E03120AA4718E03120AA4AF1B
:101A33008E03120AA4F98E03120AA4A19103120AB7
:101A4300A40A9203120AA450BD03120AA4D7BD0329
:101A5300120AA428BE03120AA46BBE03120AA446E8
:101A6300E002120AA44CE002120AA4BDE002120A28
:101A7300A42CE302120AA4B9E302120AA486E40224
:101A8300120AA4C9E402120AA4FAE402120AA40E76
:101A9300E602120AA41FE602120AA434E602120A9C
:101AA300A445E602120AA453E602120AA464E6025B
:101AB300120AA487E602120AA401E902120AA4196F
:101AC300EA02120AA4D8EA02120AA4008002120A45
:101AD300A46A8002120AA47B8002120AA4898102EA
:101AE300120AA4518202120AA4B78202120AA4BAE9
:101AF3008202120AA4DB8202120AA4A68502120A37
:101B0300A45C8602120AA49B8602120AA4A088027D
:101B1300120AA4DC8802120AA4318902120AA476EA
:101B23008902120AA4AD8902120AA4EA8902120ADE
:101B3300A4028A02120AA48D8A02120AA4EB8A0260
:101B4300120AA4478B02120AA4878C02120AA4C3A6
:101B53008F02120AA4079102120AA4659102120AC3
:101B6300A46A9202120AA48E9202120AA491920209
:101B7300120AA4A69202120AA4A99202120AA43873
:101B83009302120AA4759302120AA4AC9302120AD6
:101B9300A4F49302120AA4F79302120AA43794023C
:101BA300120AA45E9402120AA4C09402120AA43A6E
:101BB3009502120AA4789702120AA4B9BF03120A63
:101BC300A4CABF03120AA44DC003120AA4EF7F00E4
:101BD300120AA4E9C002120AA40CC102120AA41D2B
:101BE300C102120AA417C202120AA494C202120A60
:101BF300A41DC302120AA4AFC302120AA45FC40243
:101C0300120AA40FC502120AA4F3C502120AA4B849
:101C1300C602120AA41DC702120AA4B0CD02120AF8
:101C2300A48CD002120AA4C8D002120AA4D2D102F0
:101C3300120AA458D302120AA4AF9902120AA48169
:101C43009A02120AA4069B02120AA4C59B02120A54
:101C5300A4679C02120AA4E39E02120AA4799F02BB
:101C6300120AA468A102120AA48FA302120AA47A78
:101C7300A402120AA40AA802120AA402A902120ABE
:101C8300A493A902120AA441AA02120AA4A5AB02B0
:101C9300120AA4BDAC03120AA426AD03120AA4744B
:101CA300AD03120AA40CAE03120AA453AE03120A24
:101CB300A4DDAE03120AA40DAF03120AA41BAF03E3
:101CC300120AA429AF03120AA43AAA03120AA4B25D
:101CD300AA03120AA4E6AA03120AA4BAAB03120ABD
:101CE300A428AC03120AA4759A03120AA4949A03B3
:101CF300120AA4F19A03120AA4129B03120AA43E25
:101D03009B03120AA45D9B03120AA4699C03120A93
:101D1300A4799C03120AA4959C03120AA4C29D03EE
:101D2300120AA4D29D03120AA4E09D03120AA4EE90
:101D33009D03120AA4528603120AA4D48B03120A27
:101D4300A4D98B03120AA4DE8B03120AA4AEAF0339
:101D5300120AA4C6AF03120AA47CB103120AA4CFC9
:101D6300C503120AA4DDD201120AA4B8D201120AD1
:101D7300A4F1D101120AA45ED101120AA40AD0016E
:101D8300120AA489CD01120AA40ECD01120AA4C716
:101D9300CC01120AA41AC901120AA41E6300120A72
:101DA300A4566200120AA4EAC801120AA4B7C80121
:101DB300120AA4AA6100120AA45B6100120AA49386
:101DC300C801120AA412C801120AA4B3C701120A55
:101DD300A42CC601120AA4B9C501120AA4B6C501EE
:101DE300120AA4DAC401120AA4B4C401120AA4F0A8
:101DF300C301120AA42FC201120AA4C2C101120A0A
:101E0300A493C101120AA490C101120AA47BC101C7
:101E1300120AA43FC101120AA425C101120AA44057
:101E2300C001120AA4326100120AA4E36000120A7C
:101E3300A4A56000120AA4806000120AA4676000CF
:101E4300120AA4D85F00120AA4FFBF01120AA4CC8D
:101E5300BF01120AA471BF01120AA41C5F00120A77
:101E6300A440BF01120AA409BC01120AA417BB01B2
:101E7300120AA4DBB901120AA4935E00120AA4B6E3
:101E8300B801120AA420B703120AA433B801120A34
:101E9300A4F8B701120AA4A9B701120AA49DB701B5
:101EA300120AA406B701120AA4D4B501120AA47B2C
:101EB300B301120AA408B101120AA4BCB001120AA8
:101EC300A49EAF01120AA433AF01120AA45DAE01AE
:101ED300120AA42EAD01120AA4FAAC01120AA42913
:101EE3005E00120AA4C8AC01120AA4C3F6020000E1
:101EF3000080FB8F000100610B87000100CA0B24E7
:101F03000002009D0B250002009F0B26000200A18A
:101F13000B27000200A30B28000100A50B290001D9
:101F230000A60B84000400A70B86000100AB0B2A5C
:101F3300000100AC0B2B000100AD0B2C000100B025
:101F43000B2D000800490B2E000100B10B2F0001DF
:101F530000B20B30000100B30B31000100B40B32AF
:101F6300000100510B33000100520B34000100B596
:101F73000B36000100530B38000100B60B3900018A
:101F830000AF0B83000200C80B630001005E0B640B
:101F9300000100400B65000100AE0B6D0001005F06
:101FA3000B71000800410B66000100C70B430001E1
:101FB30000B80B44000200B90B45000100BB0B46FF
:101FC300000200BC0B47000800560B48000100BE8E
:101FD3000B4B000100BF0B04000100CB0BA1000160
:101FE30000CE0B37000100CD0B88000100CC0B3C69
:101FF300000100540B3D000100B70B49000200C073
:102003000B67000100600B4D000200C20B4E000184
:1020130000C40B4F000200C50B3E000100550B002E
:10202300000000000000013636010100010201003A
:102033000103010001040106060502000007010077
:10204300340801000F090401010D0100FF0E08000F
:102053000017020000190100FF1A0100011B010013
:10206300FE1C0100081D0200001F010001200100E9
:1020730001210200002301000F24020000260100B9
:102083000127010008280200FF2A0100072B010293
:10209300402C0100002D0100012E0100012F010041
:1020A300FF30010B1C310800003A0100083B01001E
:1020B3000F3C0100013D0100FF3E0400004204000B
:1020C30000460400004A0400004E040000520400CD
:1020D30000560400005A0400005E20FFFF36000192
:1020E30000060000000F00000000000000000000D8
:1020F30000000003FFFF00000403FFFF0000FFFFD9
:102103000FF4010005C4040320000100000B0000CC
:1021130000000000000003010F00000000000000A9
:1021230000000000000000000000000000000000AC
:10213300000000000000000000000000000000009C
:10214300000000000000000000000000000000008C
:102153000000000000000000000000010371030103
:10216300030103010301030103220302030103101B
:102173000300030003000300030003000300034202
:1021830003000324030603000300030403120325CF
:1021930003230325032303040304030003000300B1
:1021A30003440300030003230300036503210035F5
:1021B3000381030003050300030003000300032559
:1021C3000323030302710230016002110270020152
:1021D30002020202028002100261023A004100631D
:1021E3000273027202620243020002130238000009
:1021F30002000204021202000200020002000204B2
:10220300020402370037003C024402000239000096
:102213000200026502000235028102000205028209
:10222300028302000203007100300160001100709C
:1022330000310220035004800010006100000014EC
:102243000063007300720062004300000013000685
:102253000000000000040012000000000000000065
:102263000004000400370037003C02440000000073
:10227300000000000065000000350081000000053B
:10228300000000830000000101710101010101113F
:102293000101013101010101018001100161013BD3
:1022A3000014006301730172016201430100011311
:1022B3000106013D01350004011201000100010086
:1022C30001000104010401330133013C01440132E3
:1022D30001360000010001650100013500810100A4
:1022E30001050182018301000107ECFDFDFDECDC2A
:1022F300DCCCBCACAC9C9C8C7C7C6C6C5C5C5C4C2B
:102303004C3C3C2C2C1C1C03EAF5E5D5D5C5B5A5E6
:1023130095958585757565655555454535352525EA
:1023230015150501005D1C0200F71B0300FD1B04CE
:1023330000031C0500091C0600151CFFFF00000A12
:102343005B0F022B0F053D0F07310F0C130F0D1FF2
:102353000FFF000000160F00000B150B02000222F6
:102363000F3300000E0C0E020B040B0A0708000FBC
:10237300000119161816161823030000034A4943CF
:102383004E181A250502303017181921301B1D1F4E
:102393003000393D3F373C3C362C442D3030161845
:1023A3001920231A1C1E3002040201010101090233
:1023B30000BE040A3C00E8033C000E000A040904C2
:1023C30008FF1E1E150C0404050008032874F712E9
:1023D3000577E99003B4F0900369E4F0121867906D
:1023E30003B9E4F0A3F09003B5F0A3F0121099122F
:1023F300186D900338E4F0A3F0121D1D023C96748F
:10240300F2120577EAFEEBFF548060689003B4E0B4
:10241300F91218D98A088B09EA4509604F7C0080B4
:10242300010CEC75F003A4F8A9F0744228F582744A
:102433002339F583E493F4602CE493F88508828BC5
:1024430083E06870DCAA08EC75F003A4F8744328F1
:10245300F582742339F583E493C0E0740193F58323
:10246300D0821207B5AA08AB091218C7EEFAEF64B7
:10247300800225FAEF5420601E120FB58A088B09DB
:10248300EA4509600A120F1FAA08AB091218C7EE22
:10249300FAEF64200225FAEEA2E0501F90036EE0EB
:1024A300640F70117900120EF5E96009900B9D120B
:1024B3004F78120F0DEE64010225CC5420700302F5
:1024C30025D0750C007A207B009003B4E0F9121A32
:1024D3002FEA4B4C4D701790805D1209207A207BB8
:1024E300009003B4E0F9121A237404120AEF7C007B
:1024F30079047A007B00120F918A088B0980188572
:102503000882850983A3A3A3A3A3A3A3A3A37401FD
:10251300F0850A08850B09E508450970030225A41F
:102523007C007904AA08AB09120F918A0A8B0B75F8
:102533000C01E5082404F8E43509F988828983123B
:102543005CEA122940F8A3E0F9E84970C4850882DF
:10255300850983A3A3A3A3A3A3A3A3A3A3E06401C4
:10256300709D850882850983A3A3A3A3A3A3E05435
:1025730004708C850882850983A3A3A3A3A3A3A3C3
:10258300A3A37406F01253EB124AAD700374B7F0B1
:10259300E0FA850882850983122735120F07022581
:1025A30014120F617C0079017A007B00120F918B6A
:1025B30009EA45097010E50C700C7A207B00900342
:1025C300B4E0F9121A29EE6420FAEF802AEF5402DC
:1025D300600A121093EEFAEF6402801BEF5404605A
:1025E30019124B81124AD17901900367124F781265
:1025F3000E2FEEFAEF6404FB80047A007B00800761
:10260300A90A7403120AEF7F0602089BC082C083E3
:1026130074EA120B6D7C167D007900AA18AB1912AF
:1026230018AF7408120D987402F090035D124EA750
:1026330012264E7409120D98124AD17413120D9872
:10264300E4124A86121D117416800EE8F0A3E9F015
:102653009003671253FE227408120AEF024935747D
:10266300F712057774DF120B6DEAFEEBFFEE4F6096
:102673002DAC18AD19120FD37406120D98E0601E1D
:102683007417120D98E0FD7401120D98E0FCEEFA38
:10269300EFFB7900121D6BE9600479A480027900D5
:1026A3007421023C9374F7120577EAFEEBFF8E82E6
:1026B3008F83A3A3A3A3A3A3E05440601C8E828FA4
:1026C30083123977FAA3E0FB12104BE960067AFF15
:1026D3007BFF80151254CA800390035D124F7874F8
:1026E300FE6A700374FF6B60351254CA125574127C
:1026F300104BE98E828F8360051235EA8003123511
:10270300FD123606121D17E9F5087015EE4F600924
:102713007901EEFAEFFB120F6DA908023C967508DA
:10272300CDAA088E828F83122735120F07E960DC4A
:1027330080E7125C8FE0F92274F6120577E9FEEA6E
:10274300FF7A0F7B001218C1EA4B601F8A828B83CA
:10275300740CF0EEA3A3F0EF8A828B83123A3790C6
:1027630003B4E0F91218CD7900802FEEF9120F9718
:102773008A088B09A808A909E849601C888289830B
:10278300A3A3A3A3A3A3A3A3A3740612595BE0F972
:10279300120EB9EEF9120F737910024A7774F4121C
:1027A300057790036EE0640F7030EA4B602C900362
:1027B30069E064086005E06404701F8A088B09E41B
:1027C300F50AF50B7808120AB97A017B009003B475
:1027D300E0F9121A1D7404120AEF022EA174F41206
:1027E300057774FC120B6DEAFEEBFF8E828F83A3D9
:1027F300A3E0F9120F978A088B09EA4509700302CF
:10280300292F8E828F83A3A882A983E0C0E0EA24C4
:102813000B12485BD0E012294064F160288E828F4E
:1028230083A3E064CD601E8E828F83A3E0641A606D
:10283300148E828F83A3E064E9600A8E828F83A360
:10284300E064E170407900120F6DE96038E5082417
:1028530004F50AE43509F50B850882850983A3A3EA
:10286300A3A3A3A3124E8A8E828F83A3E0F9850AC2
:1028730082850B83124F78121879850A82850B8320
:1028830012557480768E828F83A3E0C0E0740212A7
:102893000D98D0E01233BB125BF112338EC0E0749B
:1028A30003120D98D0E0F0E508240CF582E4124AF7
:1028B300ADAA18AB197005120E17800312103374EA
:1028C30002120D98E064E97032850882850983124B
:1028D300312D750A01780A120AC5750AE9780A12B8
:1028E3000AC51238851233A2FCA3E0FD8A828B83CA
:1028F300124F781210097402120AEF8508828509B3
:1029030083A3A3A3A3A3A3A3A3A3E0640270128539
:102913000882850983A3A3A3A3A3A3A3A3A37406E4
:10292300F08E828F83A3A3E0F9120F73120F6190CD
:102933000BA1124F78120F0D7404022E9E12596BC5
:10294300E02274F4120577EAFEEBFF7508008E822D
:102953008F83A3A3A3A3A3E0603B750808124F6B67
:1029630079FF121D8F8B0BEA450B601075082C8EB7
:10297300828F83A3A3A3A3A3E0D2E0F08E828F83ED
:10298300A3A3A3A3A3E0540364016003022A3C436B
:102993000811022A3CEE2418123F246036EE241A52
:1029A300123F246003F4701212562D7003A3E069E2
:1029B3006003022A3C750822807FEE241B124E849A
:1029C300EE241A123F24FAEE2419123F24F9120EB0
:1029D300A78066124F6B12104BE9640270037508EF
:1029E3000112562D7003A3E0697006E508D2E1F5E4
:1029F30008E50860158E828F83A3A3E07006E508BF
:102A0300D2E58004E508D2E6F508124F6B12104BAD
:102A1300E964017006E508D2E0F5088E828F83A38E
:102A2300A3E06015EE241D123971F9121039E9641F
:102A3300016006E508C2E0F508A908022EA174F0BA
:102A430012057774DC120B6DEAFEEBFF8E828F8327
:102A5300A3A3A3A3E06011900B9F124FA86009905A
:102A63000B9F124F78120F0D7403120B4D8E828F32
:102A730083A3A3A3124C81124F76120FD3E97003E1
:102A8300022BC879017405120D98E0C3940240012A
:102A9300197407120D98E0C3940240027900740C74
:102AA300120D98E064F87003A3E0F47003022BC8DE
:102AB300740C120D98E064F97003A3E0F470030240
:102AC3002BC8740C120D98E064FA7003A3E0F47041
:102AD30003022BC8740C120D98E064FB7003A3E08F
:102AE300F47003022BC87406120D98E0F890035794
:102AF300E0686003022BC8E9A2E04003022BC8EEA2
:102B030024131253F47422120D98124AE4241C1253
:102B130053F47410120D98124AD17409120D98E0EF
:102B2300601D741A120D98E0FD7404120D98E0FCF8
:102B33008E828F83124F767901121D6BE9703D747B
:102B430003120B45120F19E9F5087409120D98E0E9
:102B5300702E900351E0602874225508642260208F
:102B630074425508644270147420120D98122DF2A9
:102B7300600E7420120D98122DEB60047ACF8047FB
:102B8300E9A2E6504A7420120D9812397724FD60A9
:102B93000B14600824FD600424FD70297420120DB9
:102BA30098122DE4700F7420120D98A3124A73A388
:102BB300E0640D601A7403120B45121063E964019B
:102BC300700D022DD87AD37B00121BCD022DD8EEC7
:102BD300242DF582E43FF5831231277003A3E069C6
:102BE300701F7509007809120AC57809120AC5EE23
:102BF300242F123F24F9122DF81210097402120A1D
:102C0300EF7409120D98E07003022CAA122DF8122A
:102C130010BD8A0A8B0BEA450B7003022D4874041E
:102C2300120D98E0F88E828F83A3A3E028F8A3E027
:102C33003400F9E8240D122DDDF88A828B83A3A3D7
:102C4300A3E0686013E88A828B83A3A3A3123A25C7
:102C5300E4F0A3F0A3F0A3F07904E9120D98123382
:102C630093E02AF8A3E034008882F583A3AA82AB19
:102C7300831218B58A0C8B0D8C0E8D0F850A8285F5
:102C83000B83A3A3A3A3780C120A5D4003022DD8E0
:102C9300908041780C120C3B850A82850B83A3A399
:102CA300A3A3780C120D3E900369E064046008E06E
:102CB30064096003022DD8E508A2E54003022D82D2
:102CC300EE242F123F24851882851983F0EE2430D9
:102CD300123F24C0E07401120D98D0E0F0EE2431CD
:102CE300123F24C0E07402120D98D0E0F074141265
:102CF3000D98E06401702D740E120D981253FAEEC4
:102D03002413123F24687003A3E0697017740C1234
:102D13000D98124F7812104BE96402700774141265
:102D23000D98E4F0EE2425F582E43FF583120920A3
:102D33007404120B4D7407120B45120E1D7404120A
:102D43000AEF022DD89003AEE064016003022CAABF
:102D53007420120D98122DF27009E508A2E65003B3
:102D6300022CAA7410120D98E0F47003A3E0F4602F
:102D730064EEFCEFFD7403120B45120F258056A27F
:102D8300E650527420120D98124E7E7016741A1269
:102D93000D98E06402703E7403120B457900121023
:102DA3002D80327420120D98122DEB7014741A12A8
:102DB3000D98E06404701E7403120B4512102180F9
:102DC300147420120D98122DE4700A790074031202
:102DD3000B4512106F74240248FAF582E4125ABBB1
:102DE300221254D4E06403221254D4E06407221262
:102DF3003CAD640622EE242BF582E43FF583124EAC
:102E03008EEE2413122E932274F4120577EAFEEB4E
:102E1300FF8C088D09900B51E0600F12562D700343
:102E2300A3E0697005120E95804D7900124F6B1265
:102E33000EC58A828B83E58245836033A3A3A3A354
:102E4300A3A3E054186028E508241C12485B120968
:102E530024E508241312485B120924EE2418123FB8
:102E630024F9122E7C120ED77404120AEF8008790B
:102E730000122E7C120E9B80258E828F83A3A3A328
:102E8300A3A3A3A3A3A3124E8EEE240B122E93226D
:102E9300F582E43FF583125C17FB22120AEF7F04ED
:102EA30002089B74F712057774F7120B6DEAFEEBB9
:102EB300FF900369E06403600DE064016008E0646F
:102EC300096003022FA18E828F83A3E06003022F88
:102ED300777C007D007A027B0012187312572B8ACD
:102EE300828B831253FA90035A124AD17953121CDC
:102EF300F97900900367124F78120E2F900369E05F
:102F030064096009900367124F781210B78518821D
:102F13008519837401124A867942121CF990036958
:102F23007404F07401120B45794A121CF3740112F4
:102F33000B4D7A5F7B03121A5990035A124E8A7A09
:102F4300037B0012187390035D124E8A7A047B0090
:102F5300121873900354E0A2E35004D2F08002C22B
:102F6300F0124A7C7952121CF9900B9D124F781281
:102F73000F0D80278E828F83A3AE82AF83FC7D00EB
:102F83007A037B101218738E828F83E0F9900367A4
:102F9300124F78120E2F900369E4F0120F4F740949
:102FA300023C93C082C083900338124FA8701F90D5
:102FB3000369E014600924FC600A14600C800F901C
:102FC3000340803490033C802F90033E802AE849DD
:102FD300600890033912339C700C8A828B83A3E0C0
:102FE300F9120E23801D900338124E94640270056B
:102FF300121087800E9003D6124FA86006124A73F0
:103003001207B502493574F412057774FB120B6D80
:103013008A088B097A0F7B001218C18A0A8B0BAEC0
:103023000AAF0BEE4F70030231228E828F8374023C
:10303300124A867950121CF3850882850983A3E01E
:103043006003023105900367E0F47003A3E0F460CA
:1030530040900367E064FE7003A3E0F460338518D7
:10306300828519831231277003A3E06960238508E1
:1030730082850983A374EA1233B3121CF97A5D7B48
:1030830003794B121CF97A677B037950121CF98080
:10309300718518828519831256FEE8F0A3E912336D
:1030A300B3121CF390035A12389D124AD17A5D7BF6
:1030B30003794B121CF37A5C7B0379E1121CF390C6
:1030C300036EE0C3940F501D90035CE0C0E07402F4
:1030D300120D98D0E0F07404120D987401F00412EC
:1030E3000B45121D0B750A00780A120AC5780A12DD
:1030F3000AC5900B8DE0F91235DD12100974021226
:103103000AEF850882850983125420A3F09003698E
:103113007403F0EEFAEFFB9003B4E0F91218CD74E8
:1031230005022E9E125702E068221253FEE8FAE9C6
:10313300FB2274F512057774D1120B6D8A088B0983
:103143008A828B83123D99741C120B4D8A828B8366
:10315300A3A3A3A3A3A3A3A31233A2FAA3E0FB12E3
:103163000F55741C120D98E0702B85088285098316
:10317300A3A3A3A3A3A3A3A3E0C3940B40178E828B
:103183008F83A3A3A3A3A3A3A3A3E0640270061244
:10319300338EF46003023389900369E064027003A1
:1031A30002326DE06406700302326D900338124FF1
:1031B300A8600812339C70030232A2900369E06492
:1031C300086008E064046003023389741E120D98DA
:1031D300123393A3A3A3A3123D99900338E0F849B4
:1031E3006007124E9A64026077900367E06E700383
:1031F300A3E06F600302338974016A6016742312BB
:103203000D98AC82AD837A7B7B03121A53E960037A
:103213000233897A007B029003B4E0F9121A2FEA91
:103223004B4C4D600302338990036A120D8185185C
:1032330082851983120D75900370E0C0E074041247
:103243000D98D0E0F07405120D987401F074061215
:103253000D987402124A86120DEDE960030233865B
:10326300EEFAEFFB121081023389900338124FA854
:10327300702D7508007808120AC57808120AC5EE81
:103283002410F582E43FF583124C82A3A3A3A3A3E6
:10329300A3A3A3A312397B1210097402120AEF8E9F
:1032A300828F831253FA7407120D98E8F0A3E91280
:1032B30038A71253FA7409120D98124AE41243A460
:1032C300C0E0740B120D98D0E0F0124DB11238919A
:1032D300740F7808120D2F740C120D98E508F07412
:1032E30020120D98E0C0E0740D120D98D0E0F07438
:1032F30022120D98E0C0E0740E120D98D0E0F07425
:103303001D120D98E0C0E07410120D98D0E0F07417
:103313001E120D98E0C0E0740F120D98D0E0F0EE8D
:103323002410123F24C0E07411120D98D0E0F07401
:1033330021120D98E0C0E07412120D98D0E0F074E1
:103343002E120D98E0C0E07413120D98D0E0F074C3
:1033530023120D98A982AA8389088A09750A00781D
:1033630008120ABD7C087D007417120D98AA82AB5F
:10337300831218A37403120AEF7407120B45120E7B
:10338300298003120DF3742F025CF9124DB5E0226C
:10339300E0FA8E828F83A3A322124E9B640122E064
:1033A300F98A828B83A3A3A3A3A3A3A3A3A3E0224A
:1033B300F07A5A7B037953221233BF22F0851882A5
:1033C3008519832274F212057774F8120B6DEAFEE5
:1033D300EBFF8C0A8D0B890C908028AC18AD197407
:1033E30008120A1DF50DEEFCEFFDAA18AB19121A0F
:1033F30053E97003750D019003B5801AEEFCEFFDE0
:10340300E508240BFAE43509FB121A53E97023E5A6
:1034130008241412485B12344B6024E50DA2E040EB
:10342300DB850882850983E0650A7004A3E0650BE8
:1034330070DD850882850983A3A3E0650C70D0AA9B
:1034430008AB097408022607123895E508450922D6
:10345300C082C0839003B502493274F71205779096
:1034630003B5125C17800C125252123D9C12195173
:10347300EEFAEFFBEA4B70EF9003B5E4F0A3F00232
:103483003C967F0702089B74F1120577EAFEEBFF77
:10349300890A8C088D098E828F83E08C828D83123A
:1034A30045E5AE82AF83E01246CF1248BDC4124653
:1034B300CF123554E054038C828D831248BBA2E2B1
:1034C300E4338C828D831248BA131313541F1246AC
:1034D300CF1248B9A2E7E4338C828D83A3A3A3A3BD
:1034E3001235548E0C8F0D750E00780C120ABD7CAC
:1034F300087D00E5082407FAE43509FB1218A374D4
:1035030003120AEFEE2408FE50010F8E0C8F0D7884
:103513000C120ABD7C037D00E508240FFAE435098B
:10352300FB1218A37403120AEFE50AC3940F4015A4
:103533008E828F83A3A3A3E0C0E0E5082412124880
:103543005BD0E08008E508241212485BE4F0023403
:1035530085A3A31245E50EAF832274F51205778A7E
:10356300088B098A828B83A3AE82AF83E0F9120EA4
:10357300478E828F83E064EB60248508828509830C
:10358300A3E064E16018850882850983A3E064F100
:10359300600C850882850983A3E0641A7009850895
:1035A30082850983A3E4F0900B9D124F78120F0DCF
:1035B300750A01780A120AC5850882850983A3E082
:1035C300F5087808120AC579001235DD121009745E
:1035D30002120AEF120F61025CFC900367124E8E17
:1035E30090035D122E99221235F1E4F0A322E0F844
:1035F300A3E0C8123FF338F583221235F17401F0CA
:10360300A3E422F07CFB7D0E8E828F83122E9922FF
:10361300EAF0A3EBF002493574F61205779003B88C
:10362300E0701B7C0079017A007B00120F91EA4B5A
:10363300600C8A828B83124FA86003120F01024A27
:1036430077C082C0837904120F8BE9F89023CBE40F
:1036530093C398401079FF120F8BE9F89023C8E4C5
:1036630093C398500479018002790002493574F0BC
:103673001205778A088B09890B750C008A828B8364
:10368300A3A3A3A3A3A3A3A3E0F9120F978A0E8B6B
:103693000FAE0EAF0F750A01EE4F600302374E8572
:1036A3000882850983A3A3A3A3A3A3124E8A850833
:1036B30082850983A3A3A3A3A3A3A31243EE124F5B
:1036C30078120F7F8A0C8B0DAE0CAF0DEE4F70038B
:1036D30002387D8E828F83A3A3A3A3E4F0A3F0E536
:1036E30008240CFAE43509FB8A828B83E0C0E012DC
:1036F3003885D0E0F0121051EE240D12556EE50816
:1037030012571E35091253F8EE240F124ACB750CCB
:1037130001EE2406124398547FF0A3E054FC1229CF
:1037230040540460030237C5900BA5E0F508750902
:103733000074077808120C618E828F83A3A3A3A35E
:10374300A3A3E04508F0A3E04509F08E828F83A38D
:10375300A3A3A312388F74077808120D2FE508541A
:1037630007F508E50B606B8E828F83A3A3A3A3A346
:10377300A3A3A3A374021248BE123B76600B90036B
:103783005512389DA3A3124AD1E508700302384CA1
:10379300EE2406125C68547FFCA3E054FCFDE508AC
:1037A30024FFF508E434FFF50974077808120C6167
:1037B300EC4508F8ED4509F98A828B83124AD10258
:1037C300384C8E828F83A3A3A3A3A3A3E0448002D8
:1037D300374DE5087005750A00806E8E828F83A3CE
:1037E300A3A3A3A3A3E05420600C1218BBEA547F45
:1037F3007900245F80198E828F83A3A3A3A3A3A33D
:10380300E05410601A1218BBEA540F7900240A50CE
:1038130001098E828F83A3A3A3A3F0A3E9800D8E56
:10382300828F83A3A3A3A37401F0A3E41238A77424
:1038330004123AF9121A2FEA4B4C4D700C7A207B82
:10384300009003B4E0F9121903E50CA2E0502E8EA8
:10385300828F83A3A3A3A31251CAF9EEFAEFFB123B
:103863000F85E96018124FA16009123CBC124F7812
:10387300121951EEFAEFFB121951750A00A90A0247
:1038830048FDEE240CF582E43FF58322A3A312380E
:103893009522E0F508A3E0F509221253FE8E828FEC
:1038A30083A3A322124A91A3A3A32274F41205773C
:1038B30074F7120B6D7E00120F97EA4B70030239F7
:1038C3006A8A828B83A3A3A3A3A3A3A3A3A3E06472
:1038D30006600302396A8A828B83A3A3A3A3A3A3EB
:1038E300A3E0FF8A828B83125C9CE0C0E074081221
:1038F3000D98D0E0123CA6124EAC124AD1120FA979
:10390300EF54086060851882851983124E8A7A0005
:103913007B00120F798B0BEA450B7049125CF31293
:103923001D297C007D007A007B0080258E828F8399
:10393300123977F47003A3E0F4602A900367123915
:103943007B121D23E9641A601C7C007D00EEFAEFF4
:10395300FB120F798A0A8B0BAE0AAF0BEE4F70CCBA
:103963007900121D2F7E01EEF97409022E9EF58255
:10397300E43FF583123CAD221251D8122E9922C096
:1039830082C083EA4B70059003B980068A828B83D9
:10399300A3A3123BAA60208A828B83A3A3A3A3A31E
:1039A300A3A3E0540860E5EC4D6010123BB0700334
:1039B300A3E06D70D780047A007B0002493574F26E
:1039C300120577EAFEEBFF890A8C088D097A117BD1
:1039D3000012194BEA4B60408A828B83A3A3A3A3F3
:1039E300A3A3A3A3A3E4123C9BA3E50A123A25A332
:1039F300A3125BF18A828B83A3A3A3A3E4F0A31294
:103A03003CB6123A378A828B83EEF0A3EF123FEA79
:103A1300E4F0123A1EF0A3F002260AA3125CBAA342
:103A2300A322123A2922123A2D22F08A828B83A3EF
:103A3300A3A3A322A3F0125CDC3BF583E4F022747E
:103A4300F4120577EAFEEBFF89088C0A8D0BEE4F23
:103A53007003023AF47401650870127901120F8B36
:103A6300E9F89023CDE493C398502280167404653B
:103A73000870147904120F8BE9F89023CBE493C3F5
:103A830098500A7911806C7402650870648E828F75
:103A930083A3A3A3A3A3A3A3A3A3E508124633125B
:103AA30054058E828F83A3A3E4F0A3F09003B9128D
:103AB3004FA8601A8003E0F8A3E0F988828983A302
:103AC300A3123BAA88828983A3A370EA800390038D
:103AD300B9EEF0A3EF123AF9121A2FEA4B4C4D70DC
:103AE3000C7A207B009003B4E0F91219037900806B
:103AF3000279C1022EA1F07A207B009003B4E0F991
:103B030022C082C083E9F879009003B9801D8A82BC
:103B13008B83A3A3A3A3A3A3A3A3A3E068600574B8
:103B2300FF687001098A828B83A3A3123BAA70DE0C
:103B330002493574F7120577EA4B70059003B98093
:103B4300068A828B83A3A3123BAA60208A828B837B
:103B5300A3A3A3A3A3A3A3A3A3E06970E4EC6010AE
:103B63008A828B83E0123B7670D780047A007B00D5
:103B7300023C961235F2E0540422C082C0839003C3
:103B8300B980068A828B83A3A3123BAA60128A821E
:103B93008B83A3A3A3A3A3A3A3A3E06970E58004DA
:103BA3007A007B00024935122E99EA4B228A828BD6
:103BB30083123CAD6C2274F21205778A0A8B0B8C4C
:103BC3000C8D0D750800750900EA450B60309003F4
:103BD300B980068E828F83A3A3123D9CEE4F601E95
:103BE300AC0CAD0DEEFAEFFB850A82850B83120751
:103BF300B5E9640170DDEEF8EFF988088909AA08D0
:103C0300AB0902260A74F71205779003B91253FA27
:103C13007C007D00800DE8FCE9FD88828983A3A3F5
:103C23001253FAE8496030EA687002EB6970E79072
:103C330003B9124F78E86A7002E96B88828983A31B
:103C4300A370081253FA9003B980091253FA8C82B5
:103C53008D83A3A3124AD1803A74F7120577EAFE43
:103C6300EBFFEE4F6028120FA3123CC81219518EBE
:103C7300828F83124F78121951124FA16009123C9F
:103C8300BC124F78121951EEFAEFFB12195180034F
:103C9300120AEF7F0102089B123C9F22123A2DA3C6
:103CA300A3A322125CBA123CAD22124B93F5838874
:103CB30082E022123C9FA3A322123CC022EE123FB9
:103CC300F33FF583228E828F83125C461254F612E1
:103CD3002E9722C082C083EAFCEBFDEC4D6017EC0B
:103CE30024FBF582ED34FF124FA67007123D30E03E
:103CF300F460071218C7790580309003B4E0C0E080
:103D0300123D30D0E0F09023BFE493F97ABB7B03FC
:103D13001218FDE9640170107A007B209003B4E06F
:103D2300F9121903790080027904024935EC24FF62
:103D3300F582ED34FFF5832274F4120577A2AFE424
:103D430033F508C2AF9003BB123D9CEE4F603AEED1
:103D530024FBF582EF34FF124FA67A007B209003F9
:103D6300B46007E0F91219038005E0F9121909E4B8
:103D7300F50AF50B780A120AC1EEFCEFFD7ABB7B5C
:103D8300031218F77402120AEFE508A2E092AFEEED
:103D9300FAEFFB022EA1A3A3A3E0FEA3E0FF22748C
:103DA300F212057774FC120B6DEAFEEBFF750AFE47
:103DB300750BFF120F67E960057911023F17EE24B7
:103DC30015123F246035900BBFE0C43354E0F8E094
:103DD300333354FC48C0E01245F6D0E0125CACFA31
:103DE300A3E0FB79FF121D8F8B09EA4509600C756F
:103DF3000AFF124C71124A9ED2E0F08E828F831218
:103E03004F7612104BE96006EE2412125C79EE2411
:103E130013123F24700D9023C6E493C0E01251C0E7
:103E2300D0E0F08E828F83E0A2E750045403801920
:103E3300EE2414123F247012900346E0C0E0125C9B
:103E430054D0E0F0900346E004F0123F2164017087
:103E530016900B40E0600D900351E0700A8E828F44
:103E630083E07003125C768E828F83E064017013AB
:103E7300EE240B12397164027009EE240F123F24F1
:103E83004440F0AC18AD19EEFAEFFB120FCD8A08DF
:103E93008B0974FE650A700374FFF4700D8E828FB4
:103EA30083A3A3E0F50AA3E0F50BEA450960618E5D
:103EB300828F83E0C0E07401120D98D0E0F07402A9
:103EC300120D981257187401120B3D880C890D7846
:103ED3000C120AC1123F1C120924EE240E123F24B5
:103EE300F50C780C120AC590035A120924740712B0
:103EF3000D98E0F9AC0AAD0B120FC77407120AEF65
:103F0300E9FE74106E700BAA08AB091219518002F6
:103F13007E10EEF97404022607EE124C7922EE2489
:103F230011F582E43FF583E022C082C08374DC1282
:103F33000B6D8A828B83A3A3A3A31253FA740E126D
:103F43000D98125CB2A3A31253FA740C120D98E8E5
:103F5300F0A3E9123FEAE0C0E0741A120D98D0E032
:103F6300F0EA1253ED3B1253F87420120D98124AE3
:103F7300D1EA2415124A04C0E07408120D98D0E067
:103F8300F0EA241CF582E43B1253F87412120D98E4
:103F9300124AD1EA2411124A04C0E07409120D989E
:103FA300D0E0F0EA2412124A04C0E07407120D981C
:103FB300D0E01233BB74FFF07401120D9874FFF05C
:103FC3007402120D9874FFF090807112092074042A
:103FD300120B4D7407120B45120E1D7404120AEFD7
:103FE3007900742402265CF0EA123FF33BF5832246
:103FF300240DF582E42274F412057774EF120B6D2D
:10400300EAFEEBFF8C088D09890B750A107A217B78
:104013000012194B851882851983125574851882ED
:10402300851983124FA870030240FC7C217D00791F
:1040330000851882851983E0FA1218AF900367127E
:104043004F78851882851983125C462409F582E42A
:1040530038125572741D120D981253FA740F120D03
:1040630098E8F0A3E9124103125C82124103125C47
:10407300A374021243F8F8A3124A73E508F0A3E508
:1040830009124103125C4BE50BF0741F120D98E00B
:10409300FA851882851983125C8BEA124103125444
:1040A300F6F5831257187420120D981253FA7406FA
:1040B300120D98124AD17408120D98EAF074221264
:1040C3000D981254CEC082C083740C120D98AC822A
:1040D300AD83D083D0827403120A1DF9AA18AB19D9
:1040E300120F6DE964017005750A00800C85188252
:1040F300851983124F78121951A90A7411022E9E41
:104103001243FCF8A3E0C82274EE120577EAFEEB33
:10411300FF8C088D098E828F83A37408124AD7E01F
:1041230060088E828F83A37410F0EE2417123F244D
:1041330060098E828F83A3E02408F0EE2415123FDA
:104143002460088E828F83A3E004F08E828F83A382
:10415300A3A3A3A3A3E060198E828F83A3A3A3A326
:10416300A3A3A3E0C3332402F88E828F83A3E028A2
:10417300F0123F216005750B0E8003750B008E82D4
:104183008F83A3E01243A228250B8C828D83F01228
:104193003F216011900352E0F9121D658508828565
:1041A3000983E029F0850882850983E0C39475407B
:1041B30009750800750900024391E0FA7B001219A2
:1041C3004B8A088B09EA450970030243918E828F5B
:1041D30083E0FA9003571243B67402780C120C6111
:1041E300EA450CFAAB0DEE2412123F245403F50CEE
:1041F300750D007406780C120C61EA450CFCEBFD9E
:10420300EE2415123F246004780180027800EE2426
:1042130016FAE43FFBE8F9ED49FD123F21F50C7472
:1042230009780C120C61ED450DFD8A828B831243D4
:10423300B6740B780C120C61ED450DFD1245EC12B2
:1042430043B6740C780C120C61ED450DFD8E828F14
:1042530083A3A3A3A3A3A31243B6740A780C120CDB
:1042630061ECF8ED450DF9E8850882850983F0E9ED
:10427300A3F0EE2402124398850882850983124332
:10428300DAF0EE2404F8E43FF98882898312486F58
:10429300A31243DAA3A3F0EE24131243BDF0EE24DA
:1042A300141243BDA3F0750A088A828B83E060155C
:1042B300EE2418124E84E5082408FAE43509FB12AB
:1042C3001A59750A10EE2417123F24601BEE241AA4
:1042D300124E84850A0CE508250CFAE43509FB1215
:1042E3001A597408250AF50A8E828F83A3A3A3A300
:1042F300A3A3E06059EE2407F510E43FF511851000
:1043030082F583E0C0E0124854D0E01243CAE0C013
:10431300E0124854D0E01243CAA31243A9120ABDC3
:10432300851082851183E025E0FCE433FD850A0CCA
:10433300E508250CFAE43509FB1218A37403120AE5
:10434300EF851082851183E0C333250AF50AEE2435
:1043530015123F246008C0E0124854D0E0F0124D1B
:10436300B11243A9120ABD1243A3FC7D00850B0AB7
:104373008E828F83A3E0F8E50828F8E43509F9E88D
:10438300250AFAE439FB1218A37403120AEFAA08E8
:10439300AB09024643F8E43FF988828983E022F8B7
:1043A300EE123CC1E022E0F50CA3E0F50D750E0022
:1043B300780C22E0F50C750D0022F582E43FF583BD
:1043C3001243E3A3A3A322F0050A8E828F83A3A340
:1043D300A3A3A3A3A3A322A3A31259661243E32275
:1043E300124873A3A3227403022E9EA3E0F9850847
:1043F30082850983221243FC221233BFE02274EE2A
:104403001205778A0A8B0BECFEEDFF750F01E9C3EA
:104413009408500302457E8E828F83E9F012462171
:10442300120FD9E96003750F0012487C8E828F83C7
:104433001248C5EE1253ED3F1248AFC0E0EE24110F
:10444300F582E43FF583D0E01248A7C0E0EE2412E2
:10445300F582E43FF583D0E01245E5740812463354
:10446300A3A3A3E06018E50A2408F8E4350BF9EEEA
:104473002413124ACB8E828F83A3E02408F08E820A
:104483008F83A3A3A3A3A3A3A3A3E0601B8E828F05
:1044930083A385820885830912488F1245F6E8F0C5
:1044A300A3E9124C902408F08E828F83A3A3A3A3C5
:1044B300A3E0600F1246048E828F83A3A3A3A3A35A
:1044C30012463AEE2419125C79EE241B125C79A38E
:1044D300F0EE2418123F24700302456E124604FACC
:1044E300EE2419F582E43FF583EA12463A124614A4
:1044F300F8124C94E812463AE8C39AEE506824192D
:10450300123F24F89007B7E493C398500575110C34
:104513008008EE2419123F24F5118E828F83A3E0C5
:10452300F8E50A28F50CE4350BF50D750E00780C4B
:10453300120ABDAC11EC2CFCE433FD7A2C7B09127E
:1045430018A37403120AEFEE241BF582E43FF583EC
:10455300742CF0A37409F0E511C333F88508828540
:104563000983E0288004124AA4E4F08E828F83A397
:10457300E0F88E828F83E0C398500479008061A3B2
:10458300E0FAE50A28F8E4350BF9124DA5E8F0A3A3
:10459300E91248BEC39AC0E01245ECD0E0124A8C3F
:1045A300603CEE2417F8E43FF9880889098882F50E
:1045B30083E024F2F0EE241D124398240EFAA3E0C4
:1045C3003400FB88828983125574900352E0F912F8
:1045D3001D65E9F8850882850983E0C398F0A90F72
:1045E300805EF08E828F83A322EE2417F582E43F50
:1045F300F583221245FA22EE2415F582E43FF58372
:10460300228E828F83A3858208858309E012461454
:1046130022F8E50A28F582E4350BF583E0228A8245
:104623008B83E0FAA3E0F8E4C8F9EA28E439FB2233
:104633001245E5A3A3A322124C9E04F022120AEF13
:104643007F0A02089B74F41205778A088B09EA1221
:1046530046D6F0EA1313543F1246CFA3A3A3F0EABE
:10466300C413131246D6A3A3F0EB1246C81246E0B6
:104673007409780A120D2F1246C61246DF740A789F
:104683000A120D2FE50A5401C0E0EC2418F582E468
:104693003DF583D0E01246E5740B780A120D2F1214
:1046A30046C6A31246DF740C780A120D2F1246C6B3
:1046B300A3A3A3A3A3A3A3A3F0740D7808120D2FA0
:1046C300022A3CE50A54018C828D8322540F8C828A
:1046D3008D832254038C828D83A3A322A3A3A3A33C
:1046E300A3A3F08A0A8B0B22C082C08379008A823B
:1046F3008B83A3A3A3A3A3A3E0900351600EE07055
:10470300228A828B83A3A3E070198016E060148A47
:10471300828B83124F6F90035AE06A7003A3E06B9E
:1047230060010902493574F01205778A0A8B0B89F7
:104733000C8C088D09124621120FD912487C85086A
:10474300828509831248C51253EB35091248AFC05D
:10475300E0E508241112485BD0E01248A7C0E0E569
:1047630008241212485BD0E012489A740812489A3F
:10477300A3A3A3A3A3A3E06017E50A2408F8E435E1
:104783000BF9E508241312486312489AE02408F051
:10479300850882850983A3A3A3A3A3A3A3A3E0609E
:1047A30017850882850983A312488BE5082415120F
:1047B30048631248BE2408F0850882850983A3A3B1
:1047C300A3A3A3E06019850882850983A3AE82AF02
:1047D3008312460F8508828509831248B904F0AA1B
:1047E30008AB09120FDFE9F50D70598508828509B9
:1047F30083A3A3A3A3A3A312486F7016E0FAE50A49
:104803002AF8E4350BF912484C124ACFE50CC39A47
:10481300802612488BE8240EF850010912484C12E6
:104823004ACF900352E0F9121D658E828F83E0F820
:10483300E50CC39824F2C399C0E0E5082417124895
:104843005BD0E0F0A90D0248FDE5081254F03509EC
:1048530022850A0CE508250CF582E43509F5832247
:10486300F582E43509F583E8F0A3E92212487322BF
:10487300E0850882850983A322850A82850B83A3A9
:10488300A31248DBE0F9EA22AE82AF83E0F8E50A3F
:1048930028F8E4350BF92212489E22F08508828518
:1048A3000983A3221248EEA3A3A3E022F583E8120F
:1048B30048E7A3A3E022A3A3A3A3A3F08E828F833D
:1048C300E022A3A3A3A3A3A3A3A3A31248E712488D
:1048D300DBA3A3E0F9EAF822E0FA850A82850B83D9
:1048E300A3A3A322F0A3E91248EE22F0850A82854E
:1048F3000B83A3A3A3A322120AEF7F0802089BC082
:1049030082C0837AC97B0379E2121CF37AC97B03E1
:104913008020C082C08390035A8014C082C08390D9
:10492300035D800BC082C083794A121CF38003129B
:104933004F78D083D082020AA174F61205779003D0
:10494300D1E0FE04F0EEF9120F978B09EA450970E6
:10495300EDEE60EAF9024A7774F2120577EAFEEBAC
:10496300FF8C088D09890A1210BD740E120D98E090
:10497300F8740F120D98E0F9EA4B7012E9701BA955
:104983000AAC08AD09EEFAEFFB1210DB8070E960A8
:1049930017E870068A828B83E4F0740169705FE81C
:1049A3009003D87026E48020E87053EA2402124A68
:1049B30004850A082508F8E4340013E813F0703E70
:1049C3008A828B83A3A37401F08033E004F0900BFD
:1049D300A6E0F89003D8E0C3984023E4F090035D89
:1049E300E06E7003A3E06F7015EEFAEFFB7901122E
:1049F3000E417A017B009003B4E0F9121A290226D2
:104A03000AF582E43BF583E02274F412057774011E
:104A13006A4B700E7A017B009003B4E0F91219031C
:104A23008037900B9D125574EA4B60218A088B09DD
:104A3300E4F50AF50B7808120AB97A017B009003B2
:104A4300B4E0F9121A1D7404120AEF800C7A017B88
:104A5300009003B4E0F9121A29022EA1C082C08388
:104A6300900B9F023613C082C083900BA1023613B2
:104A73001254D5227F0202089BA2F0E433851882E8
:104A8300851983F0AA18AB1922124A91E022F08EFD
:104A9300828F83A3A3A3A3A3A322A3F01245FAE0C7
:104AA300222418F582E43FF583223509F583E022B9
:104AB300125CDC3BF5831257422285088285098309
:104AC300A3A31253FEEE2418F582E43FF583E8F026
:104AD300A3E9F022F0EE2416F582E43FF58322A346
:104AE300A3E8F0A3E9F0EE2274F4120577EAFEEBF3
:104AF300FF7A007B049003B4E0F9121A29124B8168
:104B0300124AD19003697409F0120FEB8A088B09DA
:104B1300AC08AD091251C0124F78121A53E964015F
:104B230070597A0F7B001218C18A088B09EA45096C
:104B330060498A828B837402124B8BF98882898342
:104B4300A3E0FC88828983A3A3E0FBEC8A82850926
:104B530083A3A312557588828983A3A3A3E08A82C2
:104B6300850983124A9DFAA3E0FB794A121CF9AA2C
:104B730008AB099003B4E0F91218CD022EA19003FB
:104B83003A1253FE900BA122F0124DA9124B93221D
:104B9300E0F8A3E02274F412057774FD120B6D8A1A
:104BA300088B097401120D987402124A8612103F81
:104BB3008A0A8B0BAE0AAF0BEE4F7003024C6012E6
:104BC3005CC8700888828983A37420F08508828575
:104BD3000983A3A3A3A3A3E0640170098882898343
:104BE300A3E0D2E6F0850882850983A3A3A3A3A348
:104BF300A3E06401700A88828983A3E0D2E780037B
:104C0300124C65125CC07016850882850983A3A3C4
:104C1300124FA86006EE2416125736124ABD8508B5
:104C230082850983A3A3A3A3A3A3A3E064017003C1
:104C3300125C5E850882850983124F7812104BE956
:104C43006004124C71F0125733120FEB124C89129D
:104C53004C80124AE2FAEFFB120DDB80027910025C
:104C630043E9EE2413F582E43FF583740122124CE9
:104C730078E0440422EE12571E3FF58322F8A3E0A6
:104C8300F98E828F8322124C94EAF0A3EB124C9E8E
:104C930022EE241AF582E43FF58322F0850882850B
:104CA3000983E02274F512057774F3120B6D890AF8
:104CB300EAFEEBFF7508007509007C0D7D007900A5
:104CC300AA18AB191218AF124DA5124E77741F58BC
:104CD300600C7AD37B00121BCD7900024DA2E8A2AF
:104CE300E55008740C120D987401F0E8A2E750081F
:104CF300740B120D987401F0E8A2E6740A500812BE
:104D03000D987401F08008120D98E0640170138E01
:104D1300828F83A3A3A3A3A3A3A3E06032EE2413F0
:104D230080128E828F83A3A3A3A3A3A3A3A3E06074
:104D33001EEE2415F582E43FF58312344B6010AC6C
:104D430008AD097402120D98AA82AB83121A591284
:104D53004DB1124EA7124AD1740A120D98E06401A4
:104D63007034124F6B12104BE970321253F19003EF
:104D73005DE0687003A3E0697023E50845096016E8
:104D8300120FEBEAFCEBFD7402120D98AA82AB83BF
:104D9300121A53E96007AA18AB19120E3BA90A02AB
:104DA3005CF7124DA922EE1254F03FF58322124D07
:104DB300B522EE240BF582E43FF5832274F7120546
:104DC3007774D2120B6DEAFEEBFF8E828F83124E45
:104DD30094A2E04003024E728E828F83124AB9A3DB
:104DE300A3A3A3A3A3E054FE125971740D120B4D98
:104DF3001254FD120FE5E97076742A120D98124EC3
:104E03007E706C7C0D7D007900AA18AB191218AF67
:104E13007416120D98124EA7124AD1742A120D98C5
:104E2300124E77A2E55008740B120D987401F0E846
:104E3300A2E75008740A120D987401F0E8A2E65034
:104E430004742080027422120D98124E8A74021286
:104E53000D98AA82AB83121A598E828F83A3A3E083
:104E6300C0E0740C120D98D0E0124A86120E35740D
:104E73002E023C931254D2A3E0F822123CAD6404F8
:104E830022F582E43FF583124E8E22E0FCA3E0FD7F
:104E930022E0F8124E9A22A3E0C82406F582E438F1
:104EA300F583E022E0124EAC22F8A3E0F9851882E4
:104EB30085198322E9F87900740468600A740A6822
:104EC3006005740368700109020AA174F61205777C
:104ED3008A828B837420F0A3A37401F0120DE18AFC
:104EE300088B09AE08AF09EE4F60168E828F83746C
:104EF30001F09003A7E07009125733120FEB12551C
:104F03006BEEFAEFFB024A77C082C0839003BD7455
:104F130001F0E9A2E350037403F0E9A2E15004E0D5
:104F2300D2E2F002493574F612057779007C008AE3
:104F3300088B097808120855F8FF075A4F584F583D
:104F43004F584F584F504F544F5A4F554F7C048032
:104F5300060C0C80027C089003BDE05C60030980B2
:104F630003EC600109024A778E828F83A3A3A3A374
:104F7300A3A3A3A3A3122E992274F61205778A8200
:104F83008B83E07012A3124FA8600C8A828B83126A
:104F93004F77121E1F80047A007B00024A77EE12BD
:104FA3003FF33FF5831253FEE84922C082C0837C5E
:104FB30000EC12503B7003A3E06B70119023C2E42A
:104FC30093C0E0125030D0E0F079C580510CECC3AF
:104FD300940340DD7C00EC75F003A4F8A9F074C1E0
:104FE30028F5827403122DE064FE7003A3E0F460DD
:104FF3000F0CECC3940340DE7C00EC1250247015BC
:10500300EC12577A1255749023C2E49388828983F1
:10501300F0790080090CECC3940340DE79C70249A0
:105023003575F003A4F8A9F0125030E02274C028BB
:10503300F582740339F5832275F003A4F8A9F0749B
:10504300C128F5827403125ABB6A2274F5120577DC
:1050530074F3120B6D8A088B09ECFEEDFF750A12CF
:10506300EA45097005790002514C90035AE065083E
:105073007004A3E065097019120FEBEAFCEBFDEE77
:10508300FAEFFB121A53E97005750A018003750ADA
:1050930000851882851983E4F004120D98E508F061
:1050A300A3E509124A86121DB3E960297403120DA0
:1050B30098AA82AB83121E37E964017018750A013E
:1050C3007403120D98AC82AD83EEFAEFFB121A5300
:1050D300E9701E801F7412650A70199003A6E064BC
:1050E300027011EEFCEFFDAA08AB09120DBDE960D9
:1050F30003750A00EEFCEFFDAA08AB091210C3E921
:10510300F8740A687005750A01803C74A0687037EA
:10511300EEFCEFFDAA08AB091210CF7E008023EE50
:1051230075F017A4F8A9F0125AD17004A3E0650929
:10513300700F125C00121E37E970061258CA121063
:10514300B10E12514F40D8A90A025CF79023C0E474
:1051530093F8EEC3982274F7120577EAFEEBFF8EFD
:10516300828F83A3A3A3A3A3A3A3A3E060131245E6
:10517300F6122E8912105DE964017005124DB1809B
:105183002D8E828F83A3A3A3A3A3A3A3E0602912DD
:1051930051C01251CAFAA3E0FB12105DE964017019
:1051A300178E828F83A3A3A3A3A3A3A3A3A3124FA7
:1051B30078121057790180027900023C96EE24138D
:1051C300F582E43FF583221251D8A3A3A3A3A3A39B
:1051D300A3A3A3E022E0FCA3E0FD8E828F832274CD
:1051E300F212057774FD120B6D8A088B09ECFEED44
:1051F300FF890B750A017401120D987404124A8613
:1052030012103FEA4B60457411120D98E0601AEAE0
:105213002417F582E43BF583E41257118A828B83CA
:10522300E0D2E7F0125252E4F0124AB3740312547C
:1052330007EE88828983A3A3F0EF88828983A3A3DF
:10524300123A1E125BF1120DDBE9F50A022603EA9C
:105253002414F582E43BF5832274F4120577EAFE05
:10526300EBFF890A124DA51254CEA3E0F50BEE24F1
:1052730017123F24640460097AD37B00121BCD808C
:105283006FE50B1209A901000E9452009152750AA1
:1052930000124DA5A3E0F9EE2409F508E43FF50952
:1052A30088828983A3A3E0FA88828983A3A3A3E0E6
:1052B300F8E4C8F9EA28FCE439FDA90B85088285DE
:1052C3000983124F78120E53850882850983124F82
:1052D3007812104BE96019123F21C3940240111256
:1052E3004DB112563A7003A3E0696004A90A800223
:1052F3007900022EA174EE12057774F5120B6D8AF4
:105303000A8B0B890C8C0E8D0F7E01EE120D987497
:105313000AF0741D120D98E0F50DE9700FE50DC349
:1053230033240AC0E0EE120D98D0E0F0AA18AB19AE
:1053330012103F8A088B09EA450970030253E4EA15
:105343001253ED35091254DB74091254E7450D125B
:105353005427AC0EAD0FEEFAEFFB121A59EE2408E8
:10536300FE50010FE50C70247C00741E120D981280
:1053730053FA8012EC125626E82AFAE93BFB125440
:105383000DA30EAF830CECC3950D40E8E50824177D
:1053930012485B7401F0120FEBE508241AF582E45E
:1053A30035091255727403120B4DAA0AAB0B121E68
:1053B30031E9601BE508241612485B7401F074039D
:1053C300120B3DE5082418F582E43509124ACF850E
:1053D3000882850983125403AA08AB09120DDBE97D
:1053E300FEEEF9740B024640E508125CDD22EE2462
:1053F3000BF582E43FF5831253FE22124B93F922FD
:10540300A3A3E50AF0A3E50BF0228A828B8312544F
:10541300211254278A828B83125420F022A3E08E18
:10542300828F8322F0A3AE82AF832225E0F8E43398
:10543300F92274F01205778A0A8B0B890C8C088D7C
:1054430009900AAF124FA8607B7410120D98E0F513
:105453000D12542EE8240EFAE439FB1218C18A0EF9
:105463008B0FAE0EAF0FEE4F605A8E828F8374D4C4
:10547300F0A3A3E50AF0A3E50B124633E50CF0AC69
:1054830008AD09EE2405FAE43FFB121A59123CBC9D
:10549300E50DF07411120D9812570A7808120ABD1F
:1054A300AC0DEC2CFCE433FDEE240EFAE43FFB12CE
:1054B30018A37403120AEFEEFAEFFB900AAF12542B
:1054C300CE1207B50248FD8E828F831254D222E09A
:1054D300F8A3E0F583888222F583E0FEA3E0FF8E44
:1054E300828F8322F0A3E50CC43354E022241DF5FC
:1054F30082E422241FF582E43822EA241E124A049D
:10550300F9EA241FF582E43B122E972274F6120562
:1055130077EAFEEBFF9003BE801388828983E06EF7
:105523007003A3E06F603688828983A3A3124FA818
:1055330070E87A047B0012194B8A088B09A808A922
:1055430009E8496018888289831257189003BE12AC
:105553005563A3A31255749003BE124AD1024A772E
:10556300122E998882898322EE241AF582E43FF56C
:1055730083EAF0A3EBF02274F41205777E00900324
:10558300BE80070E88828983A3A3124FA870F4EE0E
:1055930012562612194B8A088B09EA4509607E7F49
:1055A300009003BE802188828983124E8AEF1256AF
:1055B30026E5082AF582E5093BF583ECF0A3EDF037
:1055C3000F88828983A3A3124FA870DA9003AF12C6
:1055D300563A7003A3E0697808701C120AC1EEF50D
:1055E3000A780A120AC57C7B7D0379009003AF1207
:1055F3004F7812107B801A120AC1EEF50A780A124C
:105603000AC57C7B7D0379009003AF124F7812109B
:10561300757403120AEFAA08AB09121951120DF39C
:10562300022EA125E0FAE433FB228E828F83A3A30B
:10563300A3A3A3A3A3A3A31253FE90035AE0682238
:10564300C082C08380128A828B83A3A31253FA90F1
:1056530003BE124AD11219519003BE123BAA70E63F
:1056630002493574F5120577900367123D9C900348
:10567300D21256FE124AD17AD27B037950121CF908
:105683009003D212570A80151257D865087004A3E5
:10569300E0650960061258D21210B1050A1256F3DA
:1056A3005018E50A1258BE7003A3E06F70DA74C293
:1056B30028F5827407125BEE80E19003D2123D9CC1
:1056C300900AB1124FA860257A067B001218C1EA2E
:1056D3004B601A8A828B8374D5F0A3A3E4125724F8
:1056E30004125711900AB11254CE1207B5025CFC92
:1056F3009023C0E493F8E50AC398221257022212BA
:105703004B93F990036722123895750A0022123AD7
:105713002912571822EEF0A3EFF022240FF582E4AA
:1057230022125CBAA3A3A322EE2402FAE43FFB22D3
:10573300EE2417F582E43FF5837401F022F583121A
:105743004B93F9888289832274F71205777E008050
:10575300071258CA1210B10E12514F40F47E00EED8
:1057630012577A74FEF0A30412596BE4F00EEEC3E1
:10577300940340EB023C9675F003A4F8A9F074C0BF
:1057830028F8740339F988828983A32274F71205F0
:10579300777F0080010F9023C0E493F8EFC3985004
:1057A3002DEF75F017A4F8A9F0125AAC6A7003A391
:1057B300E06B70E11257D86C7003A3E06D600A745C
:1057C300FF6C700374FF6D70CC1258D280047A00A2
:1057D3007B00023C961257DC2274C228F5827407C0
:1057E300125ABB2274F61205777CFF7DFF7AFE7B8B
:1057F300FF12109FEA4B703C7508008032E5087574
:10580300F017A4F8A9F074C728F5827407122DE0E5
:105813006005125AA1701674B828FE740739FF8EFA
:10582300828F83124F78120EDDEEFAEFFB0508121A
:10583300583A40C9024A779023C0E493F8E508C375
:10584300982274F41205778A088B09ECFEEDFF8029
:105853000B1210B1EEFCEFFDAA08AB0912109FEA80
:105863004B70EE022EA174F7120577EAFEEBFFEE02
:105873004F601B7C177D0079001218AF8E828F83D7
:1058830074FEF0A3041238A7A314F0A304F0023C9F
:105893009674F7120577EAFEEBFF7508008014E5AE
:1058A300081258BE7003A3E06F60061258D212109C
:1058B300B1050812583A40E7023C9675F017A4F870
:1058C300A9F01257DC6E22EE75F017A4F8A9F07454
:1058D300B828FA740739FB2274F612057712109F61
:1058E3008A088B09A808A909E8496009E8240DFA80
:1058F300E439FB80047A007B00024A7774F41205D2
:10590300778A0A8B0BECFEEDFF75080075090080A2
:1059130034E509125BF9121E37E96027E50975F0D2
:1059230017A4F8A9F0125ACB7004A3E0650B700317
:1059330075080AEEFCEFFD125C00121A53E96003CE
:105943004308A005099023C0E493F8E509C39850E0
:1059530004E50860BC022A3C125966A3A3A3A3A3CF
:10596300A3A32212596BA322F0888289832212599E
:105973006B122E992274F31205778A088B09ECFEB9
:10598300EDFF750C007B007C01740D120D98E0F5A2
:105993000AA3E0F50B80101218BBE50CF5F0EA84BE
:1059A300ABF0750C007C007D0080010D9023C0E4FA
:1059B30093F8EDC3985049125C097003A3E0F460B7
:1059C300EA125AD17004A3E0650960DF125AAC6E83
:1059D3007003A3E06F60D4125ACB7004A3E0650B8D
:1059E30060C9125AA160C4C3940750BFEC050C7080
:1059F300BAE50CC39B40B474B828F5827407807869
:105A03007A0080010A9023C7E493F8EAC3985070A0
:105A1300EA75F016A4F8A9F0125AD764FE7003A32E
:105A2300E0F460E0125AD765087004A3E0650960EA
:105A3300D3125AD76E7003A3E06F60C8125AD765AA
:105A43000A7004A3E0650B60BB74F328F582740548
:105A5300122DE060AFC3940750AA125AC0640160CC
:105A6300A3E06402609EEC050C7099E50CC39B40B7
:105A73009374EA28F582740539F583124F788019F7
:105A8300E50C6011EB700E7401650C600302599A0A
:105A93007B010259A57AFE7BFF7F0502089B74C632
:105AA30028F5827407125ABB22125AB02274B828FE
:105AB300F5827407125ABB2239F583E02274EE286B
:105AC300F5827405125ABB22125AB0650A22125A81
:105AD300B065082274EA28F5827405125ABB227451
:105AE300F51205778A088B09ECFEEDFF750A008035
:105AF30002050A1256F35022EEFCEFFDE50A125B93
:105B0300F9121A53E960EAE50A75F017A4F8A9F047
:105B130074B828F5827407125BEE025CFCE9F8792D
:105B230007C3940D400479018019E8C39407400426
:105B33007903800FE8C39403400419198005E870C2
